:020000040800F2
:1000000000000420056500083D5C0008455C000810
:100010004D5C0008555C00085D5C000800000000B5
:100020000000000000000000000000004152010834
:10003000655C0008000000009154010809210108D6
:1000400055650008556500085565000855650008A8
:100050005565000855650008556500085565000898
:1000600055650008735C0008556500085565000873
:100070005565000855650008556500085565000878
:100080005565000855650008556500085565000868
:10009000556500085565000855650008815C000835
:1000A0005565000855650008556500085565000848
:1000B0005565000855650008915C00085565000805
:1000C0005565000855650008556500085565000828
:1000D00055650008A55C0008B95C00085565000876
:1000E000CD5C000855650008556500085565000899
:1000F00055650008556500085565000855650008F8
:1001000000000000DD5C000855650008556500082A
:10011000000000000000000055650008556500085B
:100120005565000855650008F15C0008055D00088C
:1001300055650008556500085565000855650008B7
:1001400055650008556500085565000855650008A7
:10015000195D00082D5D000855650008556500080B
:10016000556500085565000800000000000000000B
:10017000000000000000000000000000000000007F
:1001800055650008556500080000000000000000EB
:1001900055650008556500080000000000000000DB
:1001A000000000000000000000000000000000004F
:1001B000000000000000000000000000556500087D
:0401C0005565000879
:1001D00010B5054C237833B9044B13B10448AFF381
:1001E00000800123237010BDDC010020000000000E
:1001F000B0A1010808B5034B1BB103490348AFF395
:10020000008008BD00000000E0010020B0A101084E
:1002100001F0FF01102A2BDB10F0070F08D010F8B7
:10022000013B013A8B422DD010F0070F42B3F6D1BB
:10023000F0B441EA012141EA014122F007047FF0D4
:1002400000070023F0E80256083C85EA010586EA2B
:10025000010685FA47F5A3FA87F586FA47F6A5FA67
:1002600087F68EB9EED1F0BC01F0FF0102F0070273
:1002700032B110F8013B013A83EA010313B1F8D11E
:100280000020704701387047002D06BF35460338FF
:10029000073815F0010F07D1013015F4807F02BF38
:1002A000013015F4C03F0130F0BC0138704700BF89
:1002B000034613F8012B002AFBD1181A01387047A6
:1002C00081F0004102E000BF83F0004330B54FEA07
:1002D00041044FEA430594EA050F08BF90EA020F74
:1002E0001FBF54EA000C55EA020C7FEA645C7FEA07
:1002F000655C00F0E2804FEA5454D4EB5555B8BF2A
:100300006D420CDD2C4480EA020281EA030382EA9A
:10031000000083EA010180EA020281EA0303362D2C
:1003200088BF30BD11F0004F4FEA01314FF4801CFF
:100330004CEA113102D0404261EB410113F0004F11
:100340004FEA03334CEA133302D0524263EB4303C8
:1003500094EA050F00F0A780A4F10104D5F1200E66
:100360000DDB02FA0EFC22FA05F2801841F10001C1
:1003700003FA0EF2801843FA05F359410EE0A5F195
:1003800020050EF1200E012A03FA0EFC28BF4CF0C6
:10039000020C43FA05F3C01851EBE37101F000457C
:1003A00007D54FF0000EDCF1000C7EEB00006EEB89
:1003B0000101B1F5801F1BD3B1F5001F0CD3490813
:1003C0005FEA30004FEA3C0C04F101044FEA44526A
:1003D00012F5800F80F09A80BCF1004F08BF5FEAF1
:1003E000500C50F1000041EB045141EA050130BDD1
:1003F0005FEA4C0C404141EB0101013C28BFB1F5E3
:10040000801FE9D291F0000F04BF01460020B1FA2D
:1004100081F308BF2033A3F10B03B3F120020CDA00
:100420000C3208DD02F1140CC2F10C0201FA0CF0DE
:1004300021FA02F10CE002F11402D8BFC2F1200C43
:1004400001FA02F120FA0CFCDCBF41EA0C019040F9
:10045000E41AA2BF01EB0451294330BD6FEA040442
:100460001F3C1CDA0C340EDC04F11404C4F120022D
:1004700020FA04F001FA02F340EA030021FA04F33F
:1004800045EA030130BDC4F10C04C4F1200220FA96
:1004900002F001FA04F340EA0300294630BD21FAD4
:1004A00004F0294630BD94F0000F83F4801306BF9A
:1004B00081F480110134013D4EE77FEA645C18BF8E
:1004C0007FEA655C29D094EA050F08BF90EA020F25
:1004D00005D054EA000C04BF1946104630BD91EA1D
:1004E000030F1EBF0021002030BD5FEA545C05D120
:1004F0004000494128BF41F0004130BD14F580045F
:100500003CBF01F5801130BD01F0004545F0FE41D2
:1005100041F470014FF0000030BD7FEA645C1ABF07
:10052000194610467FEA655C1CBF0B46024650EA3E
:10053000013406BF52EA033591EA030F41F400216A
:1005400030BD00BF90F0000F04BF0021704730B5F0
:100550004FF4806404F132044FF000054FF00001C5
:1005600050E700BF90F0000F04BF0021704730B586
:100570004FF4806404F1320410F0004548BF40425B
:100580004FF000013EE700BF42004FEAE2014FEAB0
:1005900031014FEA02701FBF12F07F4393F07F4F8B
:1005A00081F06051704732F07F4208BF704793F08E
:1005B0007F4F04BF41F40021704730B54FF46074A1
:1005C00001F0004521F000411CE700BF50EA0102A4
:1005D00008BF704730B54FF000050AE050EA01024D
:1005E00008BF704730B511F0004502D5404261EBBD
:1005F00041014FF4806404F132045FEA915C3FF4FE
:10060000D8AE4FF003025FEADC0C18BF03325FEA9A
:10061000DC0C18BF033202EBDC02C2F1200300FA4B
:1006200003FC20FA02F001FA03FE40EA0E0021FA70
:1006300002F11444BDE600BF70B54FF0FF0C4CF45E
:10064000E06C1CEA11541DBF1CEA135594EA0C0F10
:1006500095EA0C0F00F0DEF82C4481EA030621EA4B
:100660004C5123EA4C5350EA013518BF52EA033586
:1006700041F4801143F4801338D0A0FB02CE4FF038
:100680000005E1FB02E506F00042E0FB03E54FF068
:100690000006E1FB03569CF0000F18BF4EF0010E60
:1006A000A4F1FF04B6F5007F64F5407404D25FEA5C
:1006B0004E0E6D4146EB060642EAC62141EA55510F
:1006C0004FEAC52040EA5E504FEACE2EB4F1FD0C51
:1006D00088BFBCF5E06F1ED8BEF1004F08BF5FEACF
:1006E000500E50F1000041EB045170BD06F0004681
:1006F00046EA010140EA020081EA0301B4EB5C042E
:10070000C2BFD4EB0C0541EA045170BD41F4801125
:100710004FF0000E013C00F3AB8014F1360FDEBF4A
:10072000002001F0004170BDC4F10004203C35DA26
:100730000C341BDC04F11404C4F1200500FA05F3A9
:1007400020FA04F001FA05F240EA020001F000424A
:1007500021F0004110EBD37021FA04F642EB0601C0
:100760005EEA430E08BF20EAD37070BDC4F10C04EA
:10077000C4F1200500FA04F320FA05F001FA04F2AE
:1007800040EA020001F0004110EBD37041F100019A
:100790005EEA430E08BF20EAD37070BDC4F12005A5
:1007A00000FA05F24EEA020E20FA04F301FA05F20D
:1007B00043EA020321FA04F001F0004121FA04F2B5
:1007C00020EA020000EBD3705EEA430E08BF20EA85
:1007D000D37070BD94F0000F0FD101F000464000BF
:1007E00041EB010111F4801F08BF013CF7D041EA41
:1007F000060195F0000F18BF704703F00046520045
:1008000043EB030313F4801F08BF013DF7D043EA15
:100810000603704794EA0C0F0CEA135518BF95EACB
:100820000C0F0CD050EA410618BF52EA4306D1D152
:1008300081EA030101F000414FF0000070BD50EA71
:10084000410606BF1046194652EA430619D094EAFB
:100850000C0F02D150EA013613D195EA0C0F05D1E5
:1008600052EA03361CBF104619460AD181EA030139
:1008700001F0004141F0FE4141F470014FF00000F1
:1008800070BD41F0FE4141F4780170BD70B54FF08C
:10089000FF0C4CF4E06C1CEA11541DBF1CEA13550C
:1008A00094EA0C0F95EA0C0F00F0A7F8A4EB0504EE
:1008B00081EA030E52EA03354FEA013100F08880E5
:1008C0004FEA03334FF0805545EA131343EA1263AE
:1008D0004FEA022245EA111545EA10654FEA002663
:1008E0000EF000419D4208BF964244F1FD0404F51C
:1008F000407402D25B084FEA3202B61A65EB030578
:100900005B084FEA32024FF480104FF4002CB6EB34
:10091000020E75EB030E22BFB61A754640EA0C00B4
:100920005B084FEA3202B6EB020E75EB030E22BFF4
:10093000B61A754640EA5C005B084FEA3202B6EB35
:10094000020E75EB030E22BFB61A754640EA9C00F4
:100950005B084FEA3202B6EB020E75EB030E22BFC4
:10096000B61A754640EADC0055EA060E18D04FEA82
:10097000051545EA16754FEA06164FEAC30343EA22
:1009800052734FEAC2025FEA1C1CC0D111F4801FEF
:100990000BD141EA00014FF000004FF0004CB6E7E8
:1009A00011F4801F04BF01430020B4F1FD0C88BF87
:1009B000BCF5E06F3FF6AFAEB5EB030C04BFB6EB92
:1009C000020C5FEA500C50F1000041EB045170BD85
:1009D0000EF0004E4EEA113114EB5C04C2BFD4EBB2
:1009E0000C0541EA045170BD41F480114FF0000E36
:1009F000013C90E645EA060E8DE60CEA135594EAB2
:100A00000C0F08BF95EA0C0F3FF43BAF94EA0C0FB4
:100A10000AD150EA01347FF434AF95EA0C0F7FF429
:100A200025AF104619462CE795EA0C0F06D152EA7D
:100A300003353FF4FDAE1046194622E750EA410661
:100A400018BF52EA43067FF4C5AE50EA41047FF472
:100A50000DAF52EA43057FF4EBAE12E74FF0FF3CD7
:100A600006E000BF4FF0010C02E000BF4FF0010CA8
:100A70004DF804CD4FEA410C7FEA6C5C4FEA430C21
:100A800018BF7FEA6C5C1BD001B050EA410C0CBF70
:100A900052EA430C91EA030F02BF90EA020F0020D2
:100AA000704710F1000F91EA030F58BF994208BF39
:100AB00090422CBFD8176FEAE37040F001007047F6
:100AC0004FEA410C7FEA6C5C02D150EA013C07D14D
:100AD0004FEA430C7FEA6C5CD6D152EA033CD3D098
:100AE0005DF8040B704700BF8446104662468C4692
:100AF0001946634600E000BF01B5FFF7B7FF0028C5
:100B000048BF10F1000F01BD4DF808EDFFF7F4FFED
:100B10000CBF012000205DF808FB00BF4DF808ED78
:100B2000FFF7EAFF34BF012000205DF808FB00BF9B
:100B30004DF808EDFFF7E0FF94BF012000205DF8BD
:100B400008FB00BF4DF808EDFFF7CEFF94BF012072
:100B500000205DF808FB00BF4DF808EDFFF7C4FF6B
:100B600034BF012000205DF808FB00BF4FEA410CB4
:100B70007FEA6C5C02D150EA013C0AD14FEA430C97
:100B80007FEA6C5C02D152EA033C02D14FF00000D4
:100B900070474FF0010070474FEA410212F5001212
:100BA00015D211D56FF47873B3EB625212D94FEAB4
:100BB000C12343F0004343EA505311F0004F23FA9E
:100BC00002F018BF404270474FF00000704750EAF3
:100BD000013005D111F0004008BF6FF000407047B0
:100BE0004FF00000704700BF4A0011D212F500120A
:100BF00011D20DD56FF47873B3EB62520ED44FEA75
:100C0000C12343F0004343EA505323FA02F07047F4
:100C10004FF00000704750EA013002D14FF0FF3032
:100C200070474FF0000070474FEA4102B2F1E043D5
:100C300024BFB3F5001CDCF1FE5C0DD901F0004CC3
:100C40004FEAC0024CEA5070B2F1004F40EB830013
:100C500008BF20F00100704711F0804F21D113F13F
:100C60003872BCBF01F00040704741F480114FEA78
:100C70005252C2F11802C2F1200C10FA0CF320FA01
:100C800002F018BF40F001004FEAC1234FEAD3231E
:100C900003FA0CFC40EA0C0023FA02F34FEA430388
:100CA000CCE77FEA625307D150EA01331EBF4FF011
:100CB000FE4040F44000704701F0004040F0FE402C
:100CC00040F40000704700BF53B94AB9002908BF7B
:100CD00000281CBF4FF0FF314FF0FF3000F0BEB9CD
:100CE000ADF1080C6DE904CE00F03CF8DDF804E04D
:100CF000DDE9022304B0704738B500220023044622
:100D00000D46FFF70BFF28B920462946BDE83840BD
:100D100000F00AB8204605F1004100F005F8404215
:100D200061EB410138BD00BFD0B50C4B0022064637
:100D30000F46FFF781FCFFF757FF0446FFF702FC61
:100D4000074B0022FFF778FC02460B463046394637
:100D5000FFF7BAFAFFF748FF2146D0BD0000F03D8B
:100D60000000F0412DE9F047089D8E460446884674
:100D7000002B4AD18A42174662D9B2FA82F64EB1A6
:100D8000C6F1200301FA06F820FA03F3B74043EA5C
:100D90000808B4404FEA174E1FFA87FCB8FBFEF173
:100DA000230C0EFB118843EA084301FB0CF29A4224
:100DB00009D9FB1801F1FF3080F0EA809A4240F235
:100DC000E78002393B449A1AA3B2B2FBFEF00EFB55
:100DD000102243EA024300FB0CFC9C4509D9FB1896
:100DE00000F1FF3280F0D6809C4540F2D3803B4436
:100DF000023840EA0140A3EB0C0300211DB1F3408F
:100E00000022C5E90032BDE8F0878B4205D90DB15B
:100E1000C5E9000100210846F5E7B3FA83F100298E
:100E200046D1734502D3824200F20581841A6EEBEB
:100E3000030201209046002DE5D0C5E90048E2E715
:100E4000002A00F09080B2FA82F6002E40F0A480D2
:100E50008A1A030C4FEA174E80B2BCB20121B2FBD2
:100E6000FEFC0EFB1C2243EA024304FB0CF29A42F6
:100E700007D9FB180CF1FF3802D29A4200F2E08049
:100E8000C4469B1AB3FBFEF20EFB123340EA034347
:100E900002FB04F49C4207D9FB1802F1FF3002D296
:100EA0009C4200F2CA8002461B1B42EA0C40A5E7A6
:100EB000C1F120068B4022FA06F71F430EFA01F417
:100EC00020FA06F32EFA06FE4FEA1749234300FAEA
:100ED00001F81FFA87FCBEFBF9F01C0C09FB10EEB1
:100EE00044EA0E4400FB0CFEA64502FA01F209D9C1
:100EF0003C1900F1FF3A80F09C80A64540F29980B1
:100F000002383C44A4EB0E041FFA83FEB4FBF9F351
:100F100009FB13444EEA044403FB0CFCA44508D926
:100F20003C1903F1FF3E80F08280A4457FD9023B4B
:100F30003C4443EA0040A4EB0C04A0FB02EC6445F3
:100F40007346E14662D35FD05DB1B8EB030264EB58
:100F5000090404FA06F622FA01F31E43CC40C5E95F
:100F6000006400214FE7B1FBF2FC010C41EA0E41A5
:100F700080B240EA01423B4638463C46B846BE464F
:100F80002026B1FBF7F1A2EB080241EA0C4166E72B
:100F9000014618E710462CE7C6F120022EFA02F3AC
:100FA000B740B14020FA02F24FEA174E0A43B3FBB2
:100FB000FEF8BCB20EFB1833110C41EA034108FBEA
:100FC00004F9B04089454FEA104380B23ED9791800
:100FD00008F1FF3C01D289451FD8A1EB0901B1FB03
:100FE000FEF909FB04F80EFB191192B242EA014224
:100FF000424529D2BA1809F1FF31C4D24245C2D2C2
:10100000A9F102013A44BEE7F0459DD2BEEB0203CE
:101010006CEB070C0138E14696E7A7EB0909494458
:10102000A8F1020CB1FBFEF909FB04F8DBE77346FB
:101030007FE7504666E70846FDE63B44023A33E761
:10104000ACF1020C3B441CE749469CE7A1EB0901CB
:10105000C446B1FBFEF909FB04F8C4E7704700BFC2
:1010600080B500AF02480AF0BDF800BF80BD00BFE8
:101070007408002080B582B000AF00237B60184B5D
:101080001B6B174A43F480031363154B1B6B03F46C
:1010900080037B607B68002205213A2006F036FD44
:1010A0003A2006F04FFD002206213B2006F02EFDDF
:1010B0003B2006F047FD00220521442006F026FDD6
:1010C000442006F03FFD00220621452006F01EFDCB
:1010D000452006F037FD00BF0837BD4680BD00BF84
:1010E0000038024080B485B000AF0023FB601EE0F2
:1010F000FB68BB6000237B600EE0BB685B08BA68DE
:1011000002F00102002A01D00E4A00E00022534002
:10111000BB607B6801337B607B68072BEDD90A4994
:10112000FB68BA6841F82320FB680133FB60FB6869
:10113000FF2BDDD900BF00BF1437BD465DF8047B2F
:10114000704700BF2083B8EDF801002080B485B05F
:1011500000AF786039604FF0FF33FB600023BB6065
:1011600010E0FB681A0AFB68DBB27868B9680144D2
:1011700009784B40094951F823305340FB60BB6864
:101180000133BB60BA683B689A42EAD3FB68DB4331
:1011900018461437BD465DF8047B7047F8010020FF
:1011A00080B59EB000AF114A07F1680307CA03C3B8
:1011B0001A7007F1680309211846FFF7C7FF78671F
:1011C0003B1D7A6F0A49184616F012FB3B1D184664
:1011D000FFF76EF803469AB2391D642305480AF0FA
:1011E000D9FC00BF7837BD4680BD00BF6CA20108A6
:1011F00028A20108BC08002080B500AF01200CF037
:101200005FFF00BF80BD000080B500AF084A00212D
:10121000084811F014F80346074A1360074A0021F2
:10122000074811F00CF80346064A136000BF80BD62
:10123000C0B2010849120008FC050020E4B2010810
:10124000711200080006002080B582B000AF7860FF
:101250004FF48051044807F036FA4FF47A7012F0D8
:10126000AFFD00BFF4E700BF000402400000000033
:10127000B0B5ADF58C5D84B006AF07F5BC73A3F5D2
:10128000BA731860CA4B07F5885202F10402136062
:10129000C84B07F588521360C74B07F5875202F118
:1012A0001C02136007F58B5303F11803A3F5967323
:1012B000C24A1C4615460FCD0FC495E8070003C46B
:1012C000227007F5825303F10C031846FEF7F0FF76
:1012D00003469AB207F5825101F10C016423B84824
:1012E0000AF058FC4FF4FA7012F06AFD07F58B53C0
:1012F00003F11803A3F5A873B24A1C4615460FCD97
:101300000FC40FCD0FC42B68237007F5815303F171
:1013100008031846FEF7CCFF03469AB207F5815141
:1013200001F108016423A6480AF034FCFFF7DAFE55
:1013300007F58B5303F11803A3F5B673A24A1C46B5
:1013400015460FCD0FC495E8070003C4228007F5AA
:10135000805303F10C031846FEF7AAFF03469AB226
:1013600007F5805101F10C01642395480AF012FC45
:10137000FFF716FF0122954995480FF06DFA0346D5
:1013800007F5875202F11B02137007F5875303F12B
:101390001B031A7807F6D8738E49184616F028FAF8
:1013A00007F6D8731846FEF783FF03469AB207F68E
:1013B000D871642382480AF0EDFB07F5875303F1E7
:1013C0001B031B78002B20D007F58B5303F1180368
:1013D000A3F60C23804A1C4615460FCD0FC40FCD33
:1013E0000FC42B68236007F26C731846FEF760FF8A
:1013F00003469AB207F26C71642371480AF0CAFB83
:101400004FF47A7012F0DCFCFAE707F58B5303F126
:101410001803A3F5D873714A1C4613460FCB84E812
:101420000F0007F6C8731846FEF742FF03469AB24C
:1014300007F6C871642362480AF0ACFB07F58B53CA
:1014400003F11803A3F5EA73654A1C4615460FCD50
:101450000FC40FCD0FC42B68238007F6A473184662
:10146000FEF726FF03469AB207F6A4716423544898
:101470000AF090FB07F67453012207F5885101F139
:101480000401096818460FF04BFA034607F5875226
:1014900002F11B02137007F5875303F11B031A783F
:1014A00007F554634F49184616F0A2F907F554633F
:1014B0001846FEF7FDFE03469AB207F55461642311
:1014C0003F480AF067FB07F5875303F11B031B78BE
:1014D000002B40F08D8007F52D6307F23C5107F695
:1014E000745063220FF0F2FB034607F5875202F1B6
:1014F0001B02137007F6745318460FF082FF07F5AE
:10150000875303F11B031B78002B33D107F58B5353
:1015100003F11803A3F5D5631B68002B2AD007F548
:101520008B5303F11803A3F5D5631B6807F58B52A2
:1015300002F11802A2F63C420021D15407F58B5368
:1015400003F11803A3F5D5631A6807F23C5307F2B9
:101550006C70254916F04CF907F26C731846FEF7CB
:10156000A7FE03469AB207F26C71642314480AF08E
:1015700011FB59E007F58B5303F11803A3F2C46381
:101580001A4A1C4615460FCD0FC495E8070084E89B
:10159000070007F6B4231846FEF78AFE03469AB200
:1015A00007F6B421642306480AF0F4FA3CE000BFD1
:1015B000ECA30108F8A3010800A4010888A9010808
:1015C000BC080020A4A90108C8A901081CA401089E
:1015D0001C4A002020A40108E4A9010808AA010867
:1015E00018AA010838A4010858A401083CAA010857
:1015F00007F58B5303F11803A3F60C23844A1C460A
:1016000015460FCD0FC40FCD0FC42B68236007F212
:101610006C731846FEF74CFE03469AB207F26C71E3
:1016200064237C480AF0B6FA07F58B5303F11803DC
:10163000A3F58C63784A1C4615460FCD0FC40FCD19
:101640000FC495E8030084E8030007F61853184612
:10165000FEF72EFE03469AB207F6185164236D4832
:101660000AF098FA07F6E4436C49184610F04BF973
:10167000034607F5875202F11B02137007F58753E3
:1016800003F11B031B78002B79D107F58B5303F172
:101690001803A3F5DC63624A1C4615460FCD0FC440
:1016A00095E8070003C422800234130C237007F668
:1016B00098231846FEF7FCFD03469AB207F69821D8
:1016C000642354480AF066FA002307F58B5202F1AE
:1016D0001402136046E007F6CC3207F6E4431146E5
:1016E000184610F0C9F9034607F5875202F11B02AC
:1016F000137007F5875303F11B031B78002B38D1B8
:1017000007F58B5303F11803A3F2AC539B7D002B19
:101710002FD007F58B5303F11803A3F2AC531968CC
:1017200007F6CC3303F1160207F26C700B463D4905
:1017300016F05EF807F26C731846FEF7B9FD034623
:101740009AB207F26C71642332480AF023FA07F563
:101750008B5303F114031B68013307F58B5202F11D
:101760001402136007F58B5303F114031B68092B54
:10177000B1DD07F6E443184610F053F917E007F51A
:10178000875303F11B031A7807F26C732649184636
:1017900016F02EF807F26C731846FEF789FD034623
:1017A0009AB207F26C7164231A480AF0F3F907F54C
:1017B0008B5303F11803A3F2DC531C4A1C46154655
:1017C0000FCD0FC40FCD0FC495E80F0007C42380C1
:1017D00007F69C331846FEF76BFD03469AB207F6F0
:1017E0009C3164230B480AF0D5F9114B1B78012B6F
:1017F00026D00F4B1B78022B07D00D4B1B78032BE9
:1018000001D10C4B1DE00C4B1BE00C4B19E000BF51
:1018100058AA0108BC0800207CAA01086CA4010891
:10182000A4AA010870A4010884A40108C0AA0108A0
:101830001C4A0020A0A40108A8A40108B0A4010823
:101840008D4B07F638301A468C4915F0D1FF07F654
:1018500038331846FEF72CFD03469AB207F63831A6
:10186000642387480AF096F907F58853186810F042
:101870005BF9034607F5875202F11B02137007F567
:10188000875303F11B031B7807F6D42007F5885212
:1018900012687C4915F0ACFF07F6D4231846FEF712
:1018A00007FD03469AB207F6D421642374480AF070
:1018B00071F907F5875303F11B031B78002B07D041
:1018C00007F5875303F11B031B78082B40F0C080FA
:1018D00007F58B5303F11803A3F5DE636A4A1C4630
:1018E00013460FCB07C4238002341B0C237007F66A
:1018F00088231846FEF7DCFC03469AB207F68821D7
:1019000064235F480AF046F907F58B5303F1180387
:10191000A3F20C735D4A1C4615460FCD0FC495E823
:10192000070003C4228007F66C231846FEF7C0FCAC
:1019300003469AB207F66C21642351480AF02AF94B
:1019400007F54F7307F58852116818460FF0DBFF53
:10195000034607F5875202F11B02137007F5875300
:1019600003F11B031B78002B5AD1002307F58B5280
:1019700002F11002136046E007F26C7207F54F7334
:101980001146184610F078F8034607F5875202F121
:101990001B02137007F5875303F11B031B78002B01
:1019A00038D107F58B5303F11803A3F60C239B7D65
:1019B000002B2FD007F58B5303F11803A3F60C234C
:1019C000196807F26C7303F1160207F23C500B46DC
:1019D0002F4915F00DFF07F23C531846FEF768FC3F
:1019E00003469AB207F23C51642325480AF0D2F824
:1019F00007F58B5303F110031B68013307F58B5276
:101A000002F11002136007F58B5303F110031B68FA
:101A1000092BB1DD07F54F73184610F002F817E0F7
:101A200007F5875303F11B031A7807F26C73194902
:101A3000184615F0DDFE07F26C731846FEF738FC09
:101A400003469AB207F26C7164230D480AF0A2F8BB
:101A5000114B1B78DBB2002B40F0F8800F4B1B784A
:101A6000DBB2002B40F0F280002307F58B5202F12D
:101A70000C02136031E000BFB8A40108C0A4010843
:101A8000BC080020D8A40108F0AA010800AB010896
:101A900070A40108F4A40108F8050020F90500204D
:101AA000AF4A07F58B5303F10C031B681344002264
:101AB0001A70AC4A07F58B5303F10C031B68002125
:101AC00042F8231007F58B5303F10C031B68013315
:101AD00007F58B5202F10C02136007F58B5303F1EB
:101AE0000C031B68012BDBDD9F4B00221A7007F2F1
:101AF0003C5307F5875202F11C0212689B491846B5
:101B000015F076FE07F23C531846FEF7D1FB03466C
:101B10009AB207F23C51642395480AF03BF80A2236
:101B200007F5875303F11C03196892480EF0F8FE7D
:101B3000034607F5875202F11B02137007F587531E
:101B400003F11B031A7807F54F738B49184615F0FC
:101B50004FFE07F54F731846FEF7AAFB03469AB2ED
:101B600007F54F71642382480AF014F807F587538C
:101B700003F11B031B78002B42D1804B01221A700A
:101B80007F4B01221A707D4B1B78DBB21A467C4BCF
:101B90001B78DBB207F26C700093134607F587528F
:101BA00002F11C021268774915F022FE07F26C73ED
:101BB0001846FEF77DFB03469AB207F26C71642368
:101BC0006B4809F0E7FF07F58B5303F11803A3F601
:101BD00004736D4A184611464F231A4616F00FF843
:101BE00007F51D731846FEF763FB03469AB207F527
:101BF0001D7164235E4809F0CDFF04F0F9FA25E079
:101C000007F58B5303F11803A3F60C235F4A1C4618
:101C100015460FCD0FC40FCD0FC40FCD0FC42B68C9
:101C20001A46228002341B0C237007F26C7318468C
:101C3000FEF73EFB03469AB207F26C7164234C48F0
:101C400009F0A8FF4FF47A7012F0BAF84C4B1B78E9
:101C5000DBB2002B01D004F0D9FA002307F58B5238
:101C600002F108021360BEE03D4A07F58B5303F111
:101C700008031B6813441B78DBB2002B00F0A8801C
:101C80003E4B1B78DBB2002B00F0A28007F58B5394
:101C900003F11803A3F58873324907F58B5202F15B
:101CA0000802126851F822201A6007F58B5303F1DD
:101CB0001803A3F588731B68002B00F0898007F5D3
:101CC0008B5303F108031B681B03314A991807F56E
:101CD0008B5303F11803A3F2111407F6682307F5D9
:101CE0008B5202F11802A2F58872126821480FF097
:101CF0005BF90346237007F58B5303F11803A3F236
:101D000011131B78002B49D1224B1A6807F58B530E
:101D100003F11803A3F5E2631B6813441D4A136023
:101D20001C4B1A681C4B1B68D31AB3F5C82F03D978
:101D3000184B1B68184A1360094A07F58B5303F1C7
:101D400008031B68134400221A70064A07F58B53D8
:101D500003F108031B68002142F8231038E000BF9C
:101D6000B8490020B0490020BB49002010A5010857
:101D7000BC080020544C002040A50108F8050020B4
:101D8000F905002054A501081CAB01086CAB010843
:101D9000B0290020040600200806002007F58B5318
:101DA00003F11803A3F211131A7807F26C73C649F2
:101DB000184615F01DFD07F26C731846FEF778FA09
:101DC00003469AB207F26C716423C04809F0E2FE40
:101DD00007F58B5303F108031B68013307F58B529A
:101DE00002F10802136007F58B5303F108031B6827
:101DF000012B7FF739AFB64B1B78DBB2002B02F01B
:101E00002786B44B1B78DBB2002B02F0218600231F
:101E100007F58B5202F10402136080E0AE4A07F529
:101E20008B5303F104031B6813441B78DBB2002BB4
:101E30006AD0AA4A07F58B5303F104031B6852F8D2
:101E4000233007F5875202F11402136007F5875318
:101E500003F114031B68002B56D007F58B5303F1D5
:101E600004031B681B039E4A991807F62C2307F5E9
:101E7000875202F1140212689A480FF095F803464F
:101E800007F5875202F11302137007F5875303F128
:101E900013031B78002B1ED1934B1A6807F58B5345
:101EA00003F11803A3F24C731B6813448E4A1360AA
:101EB000894A07F58B5303F104031B68134400227E
:101EC0001A70864A07F58B5303F104031B6800213F
:101ED00042F8231018E007F5875303F113031A782B
:101EE00007F26C738149184615F082FC07F26C7397
:101EF0001846FEF7DDF903469AB207F26C716423C7
:101F0000724809F047FE12E007F58B5303F1040312
:101F10001B68013307F58B5202F10402136007F5C9
:101F20008B5303F104031B68012B7FF777AF6E4BD4
:101F30001B6807F5875202F10C02136007F11803C2
:101F4000103B07F5875202F10C02126868491846E7
:101F500015F04EFC07F11803103B1846FEF7A8F9E0
:101F600003469AB207F1180110396423574809F063
:101F700011FE5C480FF0BCF95A480FF042FA554B7D
:101F800000221A7007F58B5303F11803A3F22C7388
:101F9000584A1C4615460FCD0FC495E8070084E843
:101FA000070007F5FE7007F5875303F10C031B6864
:101FB00007F5875202F11C0212684F4915F018FC10
:101FC00007F5FE731846FEF773F903469AB207F554
:101FD000FE7164233D4809F0DDFD434B00221A6089
:101FE000464B00221A6007F23C53012207F5875145
:101FF00001F11C01096818460EF092FC034607F532
:10200000875202F11B02137007F5875303F11B037C
:102010001B78002B42F0D48307F58B5303F1180390
:10202000A3F63C43DB6807F5875202F10802136010
:1020300007F178030C3B07F5875202F1080212689A
:102040002F49184615F0D4FB07F178030C3B1846CE
:10205000FEF72EF903469AB207F178010C39642392
:102060001A4809F097FD002307F58B52136007F219
:102070003C53002118460FF0F3F907F6282307F523
:102080004F7107F23C504FF400720EF01FFE0346F2
:1020900007F5875202F11B02137007F5875303F10E
:1020A0001B031B78002B5DD107F58B5303F118033D
:1020B000A3F5EA631B68002B54D0002307F58A526E
:1020C00002F11C0213603EE0B0A50108BC0800202C
:1020D000BB490020F8050020B8490020B049002085
:1020E000B0290020544C002004060020D4A501088B
:1020F000F8A50108A0AB010840A6010808060020C9
:1021000090A6010807F58B5303F11803A3F63C6270
:1021100007F58A5303F11C031B6813441B78FE2B3D
:1021200006D107F58B531B68013307F58B521360FB
:1021300007F58A5303F11C031B68013307F58A5224
:1021400002F11C02136007F58B5303F11803A3F58A
:10215000EA631B6807F58A5202F11C0212689A4270
:10216000D0D38AE707F1D803083B07F58B521268F2
:10217000B049184615F03CFB07F1D803083B184658
:10218000FEF796F803469AB207F1D801083964239E
:10219000A94809F0FFFC07F23C53002118460FF054
:1021A0005FF94FF4805013F073FC034607F5875234
:1021B00002F10402136007F5875303F104031B685F
:1021C000002B02F0D58207F5875303F108031B6843
:1021D00007F58A5202F11802136007F5875303F1DD
:1021E00008031B68022B67D907F5875303F108031F
:1021F0001B68DA1E07F23C53114618460FF030F9FF
:1022000007F6242307F5226107F23C5003220EF063
:102210005DFD07F58B5303F11803A3F254731B689C
:10222000032B43D107F58B5303F11803A3F5EB639D
:102230001B78FF2B3AD107F58B5303F11803A3F555
:10224000EB635B78FF2B31D107F58B5303F1180358
:10225000A3F5EB639B78FF2B28D107F58A5303F195
:1022600018031B68033B07F58A5202F1180213603A
:1022700007F58B5303F11803A3F60C236F4A1C4692
:1022800015460FCD0FC40FCD0FC40FCD0FC42B6853
:10229000237007F26C731846FEF70AF803469AB2E9
:1022A00007F26C716423644809F074FC07F23C5334
:1022B000002118460FF0D4F807F6242307F23C500B
:1022C000022207F5875101F1040109680EF0FEFCB6
:1022D000034607F5875202F11B02137007F5875377
:1022E00003F11B031B78002B42F00D8207F58B5383
:1022F00003F11803A3F254731B68022B42F003820C
:1023000007F5875303F104031B681B78422B42F047
:10231000BB8107F5875303F104031B6801331B7866
:102320004C2B42F0B18107F59C73043B07F58A52B0
:1023300002F1180212684249184615F059FA07F5D9
:102340009C73043B1846FDF7B3FF03469AB207F5AA
:102350009C7104396423384809F01CFC07F64C21B1
:1023600007F26C730A2218460EF0DAFA034607F5F4
:10237000875202F11B02137007F5875303F11B0309
:102380001B78002B42F067814FF4005013F080FB64
:10239000034607F5875213604FF4805013F078FB23
:1023A000034607F5865202F11C02136007F58753B6
:1023B0001B68002B02F0108107F5865303F11C0304
:1023C0001B68002B02F00881002307F58A5202F1F6
:1023D00014021360002307F58A5202F11002136001
:1023E000022307F58A5202F10C021360002307F55D
:1023F000865202F118021360002307F58A5202F197
:1024000008021360002307F58A5202F104021360E8
:10241000002307F58A521360002307F5895202F161
:102420001C02136007F23C53022118460FF018F803
:1024300001F008BAC0A60108BC080020BCAB010826
:10244000E4A6010807F58A5303F104031A6807F5A7
:102450008A5303F108031B689A4256D307F58A533F
:1024600003F10C031B6807F5865202F11802136092
:1024700007F58A5303F118031A6807F58A5303F125
:102480000C031B68D31AB3F5005F28BF4FF4005349
:1024900007F5865202F11402136007F61C2307F2B7
:1024A0003C5007F5865202F11402126807F5875175
:1024B00009680EF00BFC034607F5875202F11B0278
:1024C000137007F5875303F11B031B78002B41F0B2
:1024D000C68107F58B5303F11803A3F25C731B68E5
:1024E000002B01F0BC8107F58B5303F11803A3F215
:1024F0005C731B6807F58A5202F10802136000231F
:1025000007F58A5202F10402136007F58A5303F1BA
:1025100004031B685A1C07F58A5101F104010A6083
:1025200007F58752126813441B7807F5865202F1AB
:102530001302137007F58A5303F10C031B68013370
:1025400007F58A5202F10C02136007F5865303F176
:1025500013031B78FE2B40F09A8507F58A531B68FE
:10256000013307F58A52136007F58A5303F110030C
:102570001B68002B27D007F5216307F26C7007F565
:102580008A5202F11002126807F5865101F11C010E
:1025900009680EF009FD07F58B5303F11803A3F545
:1025A000ED631B6807F58A5202F1140212681344A6
:1025B00007F58A5202F114021360002307F58A52CC
:1025C00002F11002136007F58A5303F104031B683C
:1025D000023307F58A5202F1080212689A4280F02B
:1025E000888107F58A5303F108031A6807F58A53AF
:1025F00003F104031B68D31A07F58652136007F52D
:1026000086531B68002B00F0D98007F587531A68A2
:1026100007F58A5303F104031B6813441A7807F57E
:102620008B5303F11803A3F5EC631A7007F5865377
:102630001B68012B28D907F58A5303F104031B6893
:10264000013307F58752126813441A7807F58B5344
:1026500003F11803A3F5EC635A7007F58A5303F1ED
:1026600004031B68023307F58A5202F10402136067
:1026700007F58A5303F10C031B68023307F58A52EE
:1026800002F10C0213606DE107F58A5303F10403B4
:102690001B68013307F58A5202F10402136007F543
:1026A0008A5303F10C031B68013307F58A5202F1C8
:1026B0000C02136007F23C5307F58A5202F10C0238
:1026C000116818460EF0CCFE07F58A5303F1180383
:1026D0001A6807F58A5303F10C031B68D31AB3F584
:1026E000005F28BF4FF4005307F5855202F118022E
:1026F000136007F60C2307F23C5007F5855202F1F0
:102700001802126807F5875109680EF0DFFA0346D0
:1027100007F5875202F11B02137007F5875303F187
:102720001B031B78002B41F09A8007F58B5303F1B4
:102730001803A3F26C731B68002B01F0908007F55F
:102740008A5303F10C031B6807F5865202F1180245
:10275000136007F58B5303F11803A3F26C731B6826
:1027600007F58A5202F108021360002307F58A5226
:1027700002F10402136007F58A5303F104031B6896
:102780005A1C07F58A5101F104010A6007F58752C6
:10279000126813441A7807F58B5303F11803A3F555
:1027A000EC635A7007F58A5303F10C031B6801337D
:1027B00007F58A5202F10C021360D3E007F23C5392
:1027C00007F58A5202F10C02116818460EF048FE15
:1027D00007F58A5303F118031A6807F58A5303F1C2
:1027E0000C031B68D31AB3F5005F28BF4FF40053E6
:1027F00007F5855202F11C02136007F6082307F261
:102800003C5007F5855202F11C02126807F587510A
:1028100009680EF05BFA034607F5875202F11B02C6
:10282000137007F5875303F11B031B78002B41F04E
:10283000168007F58B5303F11803A3F5EE631B68AD
:10284000012B41F20C8007F58A5303F10C031B683E
:1028500007F5865202F11802136007F58B5303F156
:102860001803A3F5EE631B6807F58A5202F108020C
:102870001360002307F58A5202F10402136007F582
:102880008A5303F104031B685A1C07F58A5101F1AE
:1028900004010A6007F58752126813441A7807F595
:1028A0008B5303F11803A3F5EC631A7007F58A53F1
:1028B00003F104031B685A1C07F58A5101F1040156
:1028C0000A6007F58752126813441A7807F58B538C
:1028D00003F11803A3F5EC635A7007F58A5303F16B
:1028E0000C031B68023307F58A5202F10C021360D5
:1028F00038E007F58A5303F104031B685A1C07F5F7
:102900008A5101F104010A6007F5875212681344E5
:102910001A7807F58B5303F11803A3F5EC631A70CB
:1029200007F58A5303F104031B685A1C07F58A5103
:1029300001F104010A6007F58752126813441A78FE
:1029400007F58B5303F11803A3F5EC635A7007F5F1
:102950008A5303F10C031B68023307F58A5202F114
:102960000C02136007F58B5303F11803A3F5EC6316
:102970001B781AB207F58B5303F11803A3F5EC6328
:102980005B781BB21B021BB213431BB207F58552C7
:1029900002F11602138007F5855303F116031B8815
:1029A000002B1AD107F58A5303F10C031B68033B74
:1029B00007F51D7007F58A521268BC4914F018FF1C
:1029C00007F51D731846FDF773FC03469AB207F529
:1029D0001D716423B64809F0DDF807F5855303F14E
:1029E00016031B8807F5895202F11C021268134472
:1029F00007F5895202F11C021360AE4B07F58552B0
:102A000002F11002136007F5855303F110031868F3
:102A1000FDF74EFC024607F6142307F26C7007F52B
:102A2000855101F1100109680EF0BEFA07F58B53CC
:102A300003F11803A3F264731B6807F58A5202F1CD
:102A400014021268134407F58A5202F1140213604B
:102A5000002307F5895202F11A021380DEE207F51E
:102A60008A5303F104031B680C3307F58A5202F101
:102A7000080212689A4280F0118107F58A5303F127
:102A800008031A6807F58A5303F104031B68D31A75
:102A900007F5855202F10C021360002307F58952F5
:102AA00002F11402136028E007F58A5303F10403CE
:102AB0001B685A1C07F58A5101F104010A6007F5E9
:102AC000875212681344197807F58B5303F11803E2
:102AD000A3F27C7207F5895303F114031B681344B6
:102AE0000A461A7007F5895303F114031B68013372
:102AF00007F5895202F11402136007F5895303F1B7
:102B000014031A6807F5855303F10C031B689A42F6
:102B1000CAD307F58A5303F10C031A6807F58553E6
:102B200003F10C031B68134407F58A5202F10C02EF
:102B3000136007F23C5307F58A5202F10C02116848
:102B400018460EF08DFC07F58A5303F118031A6836
:102B500007F58A5303F10C031B68D31AB3F5005F22
:102B600028BF4FF4005307F5855202F108021360A5
:102B700007F6F81307F23C5007F5855202F10802F8
:102B8000126807F5875109680EF0A0F8034607F5AB
:102B9000875202F11B02137007F5875303F11B03E1
:102BA0001B78002B40F0478207F5855303F10C0397
:102BB0001B68C3F10C0207F58B5303F11803A3F54F
:102BC000F0631B689A4200F2368207F58A5303F1DC
:102BD0000C031B6807F5865202F11802136007F513
:102BE0008B5303F11803A3F5F0631B6807F58A52B2
:102BF00002F108021360002307F58A5202F1040271
:102C0000136007F5855303F10C031B6807F5895220
:102C100002F11002136028E007F58A5303F1040360
:102C20001B685A1C07F58A5101F104010A6007F577
:102C3000875212681344197807F58B5303F1180370
:102C4000A3F27C7207F5895303F110031B68134448
:102C50000A461A7007F5895303F110031B68013304
:102C600007F5895202F11002136007F5895303F149
:102C700010031B680B2BCFD907F58A5303F10C0304
:102C80001A6807F5855303F10C031B68D31A0C333C
:102C900007F58A5202F10C02136048E0002307F5A1
:102CA000895202F10C0213602FE000BF1CA701083B
:102CB000BC08002010A3010807F58A5303F10403A0
:102CC0001B685A1C07F58A5101F104010A6007F5D7
:102CD000875212681344197807F58B5303F11803D0
:102CE000A3F27C7207F5895303F10C031B681344AC
:102CF0000A461A7007F5895303F10C031B68013368
:102D000007F5895202F10C02136007F5895303F1AC
:102D10000C031B680B2BCFD907F58A5303F10C0367
:102D20001B680C3307F58A5202F10C02136007F599
:102D30008B5303F11803A3F27C731B781A4607F533
:102D40008B5303F11803A3F27C735B781B021A43C5
:102D500007F58B5303F11803A3F27C739B781B04D4
:102D60001A4307F58B5303F11803A3F27C73DB7846
:102D70001B06134307F5855202F10402136007F5A1
:102D80008B5303F11803A3F27C731B791A4607F5E2
:102D90008B5303F11803A3F27C735B791B021A4374
:102DA00007F58B5303F11803A3F27C739B791B0483
:102DB0001A4307F58B5303F11803A3F27C73DB79F5
:102DC0001B06134307F58552136007F58B5303F178
:102DD0001803A3F27C731B7A1A4607F58B5303F191
:102DE0001803A3F27C735B7A1B021A4307F58B531B
:102DF00003F11803A3F27C739B7A1B041A4307F5B3
:102E00008B5303F11803A3F27C73DB7A1B06134385
:102E100007F5845202F11C02136007F5855303F194
:102E200004031868FDF79EFBC3A3D3E90023FDF755
:102E30002DFD02460B4607F5845101F11001C1E951
:102E4000002307F585531868FDF78CFBBAA3D3E977
:102E50000023FDF71BFD02460B4607F5845101F1E7
:102E60000801C1E9002307F5845303F11C03186826
:102E7000FDF778FBB0A3D3E90023FDF707FD024679
:102E80000B4607F58451C1E9002307F51D7007F5CE
:102E90008453D3E90023CDE9042307F5845303F1D8
:102EA0000803D3E90023CDE9022307F5845303F196
:102EB0001003D3E90023CDE900239D4A602114F0DB
:102EC00061FC07F5895303F10803186007F51D73CA
:102ED0002E21184614F0A8FD07F5835303F11C03B7
:102EE000186007F5835303F11C031B68002B6BD09C
:102EF00007F5895303F108031B68013B07F51D72B1
:102F0000134407F5895202F1040213600AE007F541
:102F1000895303F104031B68013B07F5895202F151
:102F20000402136007F5895303F104031A6807F5D7
:102F3000835303F11C031B689A4207D907F5895391
:102F400003F104031B681B78302BE0D007F589538D
:102F500003F104031A6807F5835303F11C031B688C
:102F60009A4211D107F5895303F104031B68013319
:102F700007F5895202F10402136007F5895303F142
:102F800004031B6830221A7007F5895303F1040308
:102F90001B68013307F5895202F10402136007F53B
:102FA000895303F104031B6820221A7007F51D736F
:102FB00007F5895202F104021268D31A013307F5AA
:102FC000895202F10802136007F5895303F10803DF
:102FD0001A6807F6142307F51D7107F26C700DF0DF
:102FE000E3FF07F58B5303F11803A3F264731B6827
:102FF00007F58A5202F114021268134407F58A5247
:1030000002F11402136007F5895303F11A031B88B8
:10301000013307F5895202F11A02138007F589532B
:1030200003F11A031A8807F5855303F116031B8869
:103030009A42FFF414AD3F4B07F5855202F110029E
:10304000136007F5855303F110031868FDF730F995
:10305000024607F6142307F26C7007F5855101F15B
:10306000100109680DF0A0FF07F58B5303F1180359
:10307000A3F264731B6807F58A5202F11402126806
:10308000134407F58A5202F114021360A9E307F50D
:10309000865303F1130393F90030002B50DB07F53F
:1030A0008A5303F110031B6840F6FE72934227D93E
:1030B00007F6F41307F26C7007F58A5202F110025A
:1030C000126807F5865101F11C0109680DF06CFFCB
:1030D00007F58B5303F11803A3F284731B6807F5FC
:1030E0008A5202F114021268134407F58A5202F15F
:1030F00014021360002307F58A5202F110021360D4
:1031000007F58A5303F110031B685A1C07F58A510F
:1031100001F110010A6007F5865202F11C021268E3
:10312000134407F5865202F1130212781A7058E31D
:1031300060A3010820A301080000000080842E4144
:1031400007F5865303F113031B78BF2B40F2EB8086
:1031500007F5865303F113031B78DF2B00F2E3809E
:1031600007F58A5303F110031B6840F6FD72934282
:1031700027D907F51F6307F26C7007F58A5202F131
:103180001002126807F5865101F11C0109680DF063
:103190000BFF07F58B5303F11803A3F5F1631B68CD
:1031A00007F58A5202F114021268134407F58A5295
:1031B00002F114021360002307F58A5202F1100293
:1031C000136007F58A5303F110031B685A1C07F5B7
:1031D0008A5101F110010A6007F5865202F11C02C2
:1031E0001268134407F5865202F1130212781A701E
:1031F00007F58A5303F104031A6807F58A5303F1AC
:1032000008031B689A4260D307F23C5307F58A52C1
:1032100002F10C02116818460EF022F907F58A53E4
:1032200003F118031A6807F58A5303F10C031B68AE
:10323000D31AB3F5005F28BF4FF4005307F5865249
:1032400002F10C02136007F6EC1307F23C5007F58D
:10325000865202F10C02126807F5875109680DF0D9
:1032600035FD034607F5875202F11B02137007F57F
:10327000875303F11B031B78002B40F0F08207F506
:103280008B5303F11803A3F28C731B68002B00F01F
:10329000E68207F58A5303F10C031B6807F5865293
:1032A00002F11802136007F58B5303F11803A3F220
:1032B0008C731B6807F58A5202F108021360002321
:1032C00007F58A5202F10402136007F58A5303F1ED
:1032D00004031B685A1C07F58A5101F104010A60B6
:1032E00007F5875212681A4407F58A5303F1100351
:1032F0001B68591C07F58A5000F11000016007F5A2
:10330000865101F11C0109680B4412781A7007F507
:103310008A5303F10C031B68013307F58A5202F14B
:103320000C0213605DE207F5865303F113031B786B
:10333000DF2B40F2FD8007F5865303F113031B7862
:10334000EF2B00F2F58007F58A5303F110031B6899
:1033500040F6FC72934227D907F6E81307F26C7027
:1033600007F58A5202F11002126807F5865101F141
:103370001C0109680DF018FE07F58B5303F11803C3
:10338000A3F5F2631B6807F58A5202F11402126872
:10339000134407F58A5202F114021360002307F563
:1033A0008A5202F11002136007F58A5303F11003E9
:1033B0001B685A1C07F58A5101F110010A6007F5D4
:1033C000865202F11C021268134407F5865202F17C
:1033D000130212781A70002307F589521360A0E0D7
:1033E00007F58A5303F104031A6807F58A5303F1BA
:1033F00008031B689A4260D307F23C5307F58A52D0
:1034000002F10C02116818460EF02AF807F58A53EB
:1034100003F118031A6807F58A5303F10C031B68BC
:10342000D31AB3F5005F28BF4FF4005307F5865257
:1034300002F10802136007F6E41307F23C5007F5A7
:10344000865202F10802126807F5875109680DF0EB
:103450003DFC034607F5875202F11B02137007F586
:10346000875303F11B031B78002B40F0B78107F54E
:103470008B5303F11803A3F294731B68002B00F025
:10348000AD8107F58A5303F10C031B6807F58652DB
:1034900002F11802136007F58B5303F11803A3F22E
:1034A00094731B6807F58A5202F108021360002327
:1034B00007F58A5202F10402136007F58A5303F1FB
:1034C00004031B685A1C07F58A5101F104010A60C4
:1034D00007F5875212681A4407F58A5303F110035F
:1034E0001B68591C07F58A5000F11000016007F5B0
:1034F000865101F11C0109680B4412781A7007F516
:103500008A5303F10C031B68013307F58A5202F159
:103510000C02136007F589531B68013307F58952C4
:10352000136007F589531B68012B7FF759AF55E1ED
:1035300007F5865303F113031B78EF2B40F2058147
:1035400007F5865303F113031B78F72B00F2FD8078
:1035500007F58A5303F110031B6840F6FB72934290
:1035600027D907F51E6307F26C7007F58A5202F13E
:103570001002126807F5865101F11C0109680DF06F
:1035800013FD07F58B5303F11803A3F5F3631B68D1
:1035900007F58A5202F114021268134407F58A52A1
:1035A00002F114021360002307F58A5202F110029F
:1035B000136007F58A5303F110031B685A1C07F5C3
:1035C0008A5101F110010A6007F5865202F11C02CE
:1035D0001268134407F5865202F1130212781A702A
:1035E000002307F5885202F11C021360A4E007F5DE
:1035F0008A5303F104031A6807F58A5303F1080399
:103600001B689A4260D307F23C5307F58A5202F1D5
:103610000C02116818460DF023FF07F58A5303F1D9
:1036200018031A6807F58A5303F10C031B68D31AB1
:10363000B3F5005F28BF4FF4005307F5865202F13F
:103640000402136007F6DC1307F23C5007F58652BC
:1036500002F10402126807F5875109680DF036FB84
:10366000034607F5875202F11B02137007F58753D3
:1036700003F11B031B78002B40F0B28007F58B533E
:1036800003F11803A3F29C731B68002B00F0A880C1
:1036900007F58A5303F10C031B6807F5865202F104
:1036A0001802136007F58B5303F11803A3F29C7300
:1036B0001B6807F58A5202F108021360002307F520
:1036C0008A5202F10402136007F58A5303F10403DE
:1036D0001B685A1C07F58A5101F104010A6007F5BD
:1036E000875212681A4407F58A5303F110031B68C6
:1036F000591C07F58A5000F11000016007F586514A
:1037000001F11C0109680B4412781A7007F58A53FD
:1037100003F10C031B68013307F58A5202F10C0216
:10372000136007F5885303F11C031B68013307F589
:10373000885202F11C02136007F5885303F11C0341
:103740001B68022B7FF753AF4AE007F58A5303F15A
:1037500010031B6840F6FE72934227D907F6D81370
:1037600007F26C7007F58A5202F11002126807F531
:10377000865101F11C0109680DF016FC07F58B5309
:1037800003F11803A3F5F4631B6807F58A5202F1ED
:1037900014021268134407F58A5202F114021360EE
:1037A000002307F58A5202F11002136007F58A53CD
:1037B00003F110031B685A1C07F58A5101F110012F
:1037C0000A6007F5865202F11C021268134407F5DD
:1037D000865202F1130212781A7002E000BF00E074
:1037E00000BF07F58A5303F110031B6840F6FB7214
:1037F000934227D907F6D41307F26C7007F58A5263
:1038000002F11002126807F5865101F11C010968E6
:103810000DF0CAFB07F58B5303F11803A3F2A47351
:103820001B6807F58A5202F114021268134407F567
:103830008A5202F114021360002307F58A5202F142
:103840001002136007F58A5303F10C031A6807F599
:103850008A5303F118031B689A42FEF4F3AD07F58F
:103860008A5303F110031B68002B21D007F51D6359
:1038700007F26C7007F58A5202F11002126807F520
:10388000865101F11C0109680DF08EFB07F58B5381
:1038900003F11803A3F5F5631B6807F58A5202F1DB
:1038A00014021268134407F58A5202F114021360DD
:1038B00007F26C7318460DF01BFD07F26C73184687
:1038C0000DF09FFD07F64C2107F26C73032218469A
:1038D0000DF026F8034607F5875202F11B0213701C
:1038E00007F5875303F11B031B78002B40F02F864D
:1038F00007F58B5303F11803A3F5807307F58B527B
:1039000002F11802A2F60C22D2681A6007F58B5356
:1039100003F11803A3F582744FF4005012F0B8F8C5
:103920000346236007F58B5303F11803A3F5827355
:103930001B68002B00F00186002307F5885202F176
:1039400018021360002307F5885202F11402136075
:1039500000F0BCBD07F26C7307F5885202F1180243
:10396000116818460DF07CFD07F58B5303F1180321
:10397000A3F580731A6807F5885303F118031B68D1
:10398000D21A07F58B5303F11803A3F58473B2F52C
:10399000005F28BF4FF400521A6007F6CC1307F5FA
:1039A0008B5202F11802A2F5847207F58B5101F1D6
:1039B0001801A1F5827107F26C70126809680DF0A8
:1039C00085F9034607F5875202F11B02137007F5CC
:1039D000875303F11B031B78002B40F0868507F506
:1039E0008B5303F11803A3F2AC731B68002B00F098
:1039F0007C85002307F5885202F11002136000F065
:103A000043BD07F58B5303F11803A3F582731A68BE
:103A100007F5885303F110031B6813441B783C2BF4
:103A200040F0FD8007F5885303F110031B68013354
:103A300007F58B5202F11802A2F582721268134444
:103A40001B782F2B40F0EB8007F5885303F1100310
:103A50001B68023307F58B5202F11802A2F582723D
:103A6000126813441B78442B40F0D98007F5885323
:103A700003F110031B68033307F58B5202F11802A0
:103A8000A2F58272126813441B78612B40F0C78044
:103A900007F5885303F110031B68043307F58B52B5
:103AA00002F11802A2F58272126813441B78742B7B
:103AB00040F0B58007F5885303F110031B68053308
:103AC00007F58B5202F11802A2F5827212681344B4
:103AD0001B78742B40F0A38007F5885303F1100383
:103AE0001B68063307F58B5202F11802A2F58272A9
:103AF000126813441B78612B40F0918007F58853BE
:103B000003F110031B68073307F58B5202F118020B
:103B1000A2F58272126813441B783E2B7FD107F501
:103B2000885303F110031B68053307F58B5202F12C
:103B30001802A2F582721268134461221A7007F506
:103B4000885303F110031B68063307F58B5202F10B
:103B50001802A2F58272126813443E221A7007F509
:103B6000885303F110031B68073307F58B5202F1EA
:103B70001802A2F582721268134420221A7007F507
:103B8000885303F118031A6807F5885303F11003EB
:103B90001B681A4407F26C73114618460DF060FC5E
:103BA00007F58B5303F11803A3F582731A6807F521
:103BB000885303F110031B68D11807F6C81307F2E6
:103BC0006C7008220DF0F0F907F5885303F1140327
:103BD0001B68013307F5885202F11402136007F5E0
:103BE000885303F118031A6807F5885303F110038B
:103BF0001B681A4407F51D738749184613F0F8FD32
:103C000007F51D731846FCF753FB03469AB207F5F8
:103C10001D716423814807F0BDFF00F02ABC07F541
:103C20008B5303F11803A3F582731A6807F58853C1
:103C300003F110031B6813441B783C2B40F0F28007
:103C400007F5885303F110031B68013307F58B5206
:103C500002F11802A2F58272126813441B78442BF9
:103C600040F0E08007F5885303F110031B6802332E
:103C700007F58B5202F11802A2F582721268134402
:103C80001B78612B40F0CE8007F5885303F11003B9
:103C90001B68033307F58B5202F11802A2F58272FA
:103CA000126813441B78742B40F0BC8007F58853CE
:103CB00003F110031B68043307F58B5202F118025D
:103CC000A2F58272126813441B78742B40F0AA800C
:103CD00007F5885303F110031B68053307F58B5272
:103CE00002F11802A2F58272126813441B78612B4C
:103CF00040F0988007F5885303F110031B680633E2
:103D000007F58B5202F11802A2F582721268134471
:103D10001B78202B40F0868007F5885303F11003B1
:103D20001B68043307F58B5202F11802A2F5827268
:103D30001268134461221A7007F5885303F11003C7
:103D40001B68053307F58B5202F11802A2F5827247
:103D50001268134420221A7007F5885303F11003E8
:103D60001B68063307F58B5202F11802A2F5827226
:103D70001268134420221A7007F5885303F11803C0
:103D80001A6807F5885303F110031B681A4407F2F9
:103D90006C73114618460DF063FB07F58B5303F166
:103DA0001803A3F582731A6807F5885303F110030B
:103DB0001B68D11807F6C41307F26C7007220DF0C8
:103DC000F3F807F5885303F114031B68013307F573
:103DD000885202F11402136007F5885303F11803A7
:103DE0001A6807F5885303F110031B681A4407F596
:103DF0001D730B49184613F0FBFC07F51D7318469D
:103E0000FCF756FA03469AB207F51D71642303487E
:103E100007F0C0FE2DE300BF4CA70108BC0800203E
:103E200068A7010807F5885303F110031B68002BEE
:103E300000F0238107F58B5303F11803A3F5827378
:103E40001A6807F5885303F110031B6813441B78A5
:103E50002F2B40F0128107F5885303F110031B68E4
:103E6000013307F58B5202F11802A2F58272126833
:103E700013441B78442B40F0008107F5885303F16D
:103E800010031B68023307F58B5202F11802A2F5EA
:103E90008272126813441B78612B40F0EE8007F5A4
:103EA000885303F110031B68033307F58B5202F1AB
:103EB0001802A2F58272126813441B78742B40F02A
:103EC000DC8007F5885303F110031B68043307F502
:103ED0008B5202F11802A2F58272126813441B7809
:103EE000612B40F0CA8007F5885303F110031B686B
:103EF000053307F58B5202F11802A2F5827212689F
:103F000013441B783E2B40F0B88007F5885303F12B
:103F100010031B68013B07F58B5202F11802A2F552
:103F20008272126813441B783C2B00F0A18207F5C3
:103F3000885303F110031B68013B07F58B5202F114
:103F40001802A2F58272126813441B78202B33D01A
:103F500007F5885303F110031B68013B07F58B52EB
:103F600002F11802A2F58272126813441B780A2B20
:103F700022D007F5885303F110031B68013B07F5B6
:103F80008B5202F11802A2F58272126813441B7858
:103F90000D2B11D007F5885303F110031B68013B6B
:103FA00007F58B5202F11802A2F5827212681344CF
:103FB0001B78092B40F05C8207F5885303F110034E
:103FC0001B68013B07F58B5202F11802A2F58272C1
:103FD000126813443C221A7007F5885303F1180342
:103FE0001A6807F5885303F110031B6813445A1E1F
:103FF00007F26C73114618460DF032FA07F5885334
:1040000003F110031B68013B07F58B5202F1180204
:10401000A2F582721268D11807F51C6307F26C7062
:1040200006220CF0C1FF07F5885303F114031B6847
:10403000013307F5885202F11402136007F5885323
:1040400003F118031A6807F5885303F110031B687E
:104050001A4407F51D733D49184613F0C9FB07F5CF
:104060001D731846FCF724F903469AB207F51D7133
:104070006423374807F08EFDFAE107F58B5303F10F
:104080001803A3F582731A6807F5885303F1100328
:104090001B6813441B783C2B10D107F5885303F1A0
:1040A00010031B68013307F58B5202F11802A2F5C9
:1040B0008272126813441B78762B34D007F58B5329
:1040C00003F11803A3F582731A6807F5885303F107
:1040D00010031B6813441B783C2B40F0CA8107F582
:1040E000885303F110031B68013307F58B5202F16B
:1040F0001802A2F58272126813441B782F2B40F02D
:10410000B88107F5885303F110031B68023307F5E4
:104110008B5202F11802A2F58272126813441B78C6
:10412000762B40F0A68107F5885303F110031B6836
:10413000013307F58B5202F11802A2F58272126860
:1041400013441B782F2B05D1022204E084A7010819
:10415000BC080020012207F58B5303F11803A3F5D7
:1041600086731A6007F58B5303F11803A3F5867362
:1041700007F5885202F1100212681B68134407F514
:104180008B5202F11802A2F58272126813441B7856
:10419000762B40F06E8107F58B5303F11803A3F5DE
:1041A000867307F5885202F1100212681B681344E7
:1041B000013307F58B5202F11802A2F582721268E0
:1041C00013441B78612B40F0548107F58B5303F1A6
:1041D0001803A3F5867307F5885202F110021268DE
:1041E0001B681344023307F58B5202F11802A2F543
:1041F0008272126813441B786C2B40F03A8107F5E9
:104200008B5303F11803A3F5867307F5885202F167
:10421000100212681B681344033307F58B5202F136
:104220001802A2F58272126813441B78752B40F0B5
:10423000208107F58B5303F11803A3F5867307F567
:10424000885202F1100212681B681344043307F508
:104250008B5202F11802A2F58272126813441B7885
:104260006C2B40F0068107F58B5303F11803A3F57F
:10427000867307F5885202F1100212681B68134416
:10428000053307F58B5202F11802A2F5827212680B
:1042900013441B78752B40F0EC8007F58B5303F12A
:1042A0001803A3F5867307F5885202F1100212680D
:1042B0001B681344063307F58B5202F11802A2F56E
:1042C0008272126813441B78652B40F0D28007F588
:1042D0008B5303F11803A3F5867307F5885202F197
:1042E000100212681B681344073307F58B5202F162
:1042F0001802A2F58272126813441B783E2B40F01C
:10430000B88007F58B5303F11803A3F5867307F5FF
:10431000885202F1100212681B681344043307F537
:104320008B5202F11802A2F58272126813446522C0
:104330001A7007F58B5303F11803A3F5867307F57D
:10434000885202F1100212681B681344053307F506
:104350008B5202F11802A2F58272126813443E22B7
:104360001A7007F58B5303F11803A3F5867307F54D
:10437000885202F1100212681B681344063307F5D5
:104380008B5202F11802A2F58272126813442022A5
:104390001A7007F58B5303F11803A3F5867307F51D
:1043A000885202F1100212681B681344073307F5A4
:1043B0008B5202F11802A2F5827212681344202275
:1043C0001A7007F5885303F118031A6807F5885324
:1043D00003F110031B681A4407F26C731146184668
:1043E0000DF03EF807F58B5303F11803A3F5827324
:1043F0001A6807F5885303F110031B68D11807F5F5
:104400008B5303F11803A3F586731B6803F10802AD
:1044100007F6BC1307F26C700CF0C6FD07F5885365
:1044200003F114031B68013307F5885202F11402EB
:10443000136007F5885303F118031A6807F58853CA
:1044400003F110031B681A4407F51D73BE49184693
:1044500013F0CEF907F51D731846FBF729FF034645
:104460009AB207F51D716423B84807F093FB00E08A
:1044700000BF07F5885303F110031B68013307F5EC
:10448000885202F11002136007F58B5303F11803F1
:10449000A3F2AC731B68093B07F5885202F11002C6
:1044A00012689A42FFF4ADAA07F58B5303F1180383
:1044B000A3F2AC731B6807F5885202F11802126868
:1044C000134407F5885202F11802136007F58B5365
:1044D00003F11803A3F5807307F5885202F118025F
:1044E00012681B689A42FFF435AA07F58B5303F153
:1044F0001803A3F58273186811F0D2FA07F58853F0
:1045000003F114031B68002B17D007F51D7307F583
:10451000885202F1140212688D49184613F068F9A6
:1045200007F51D731846FBF7C3FE03469AB207F55D
:104530001D716423854807F02DFB07F26C73184644
:104540000CF0D6FE07F26C7318460CF05AFF07F514
:104550001D7007F58A5303F114031B68009307F5D8
:10456000895303F11C031B6807F58A5212687949C5
:1045700013F03EF907F51D731846FBF799FE034645
:104580009AB207F51D716423704807F003FB07F525
:10459000CC7307F58A5202F1140212686E4918466C
:1045A00013F026F907F5CC731846FBF781FE034696
:1045B0009AB207F5CC716423644807F0EBFA07F56B
:1045C0008753186811F06CFA07F5865303F11C0342
:1045D000186811F065FA33E007F58B5303F11803FF
:1045E000A3F2DC735D4A1C4615460FCD0FC495E857
:1045F0000F0007C4237007F69C131846FBF758FEFC
:1046000003469AB207F69C116423504807F0C2FA99
:1046100007F587531B68002B04D007F587531868EC
:1046200011F03EFA07F5865303F11C031B68002BBB
:1046300006D007F5865303F11C03186811F030FA11
:1046400007F26C7318460CF053FE07F26C731846B1
:104650000CF0D7FE38E007F5875303F11B031A78F7
:1046600007F51D733E49184613F0C2F807F51D7390
:104670001846FBF71DFE03469AB207F51D71642329
:10468000324807F087FA1FE007F5875303F1040368
:104690001B681B781A4607F5875303F104031B6850
:1046A00001331B7807F26C702E4913F0A1F807F262
:1046B0006C731846FBF7FCFD03469AB207F26C7167
:1046C0006423224807F066FA07F58B5303F11803B9
:1046D000A3F60C23244A1C4615460FCD0FC40FCD5C
:1046E0000FC495E80F0084E80F0007F26C731846BA
:1046F000FBF7DEFD03469AB207F26C7164231348A0
:1047000007F048FA17E007F5875303F11B031A78FF
:1047100007F26C731549184613F06AF807F26C73C8
:104720001846FBF7C5FD03469AB207F26C71642385
:10473000064807F02FFA07F5875303F104031868BA
:1047400011F0AEF936E000BFACA70108BC080020AC
:10475000C8A70108E4A7010840A80108F0AB0108B8
:104760006CA8010890A8010810AC0108C8A80108AD
:1047700007F58B5303F11803A3F60C23B74A1C4625
:1047800015460FCD0FC40FCD0FC495E80300206070
:104790000434218002340B0C237007F26C7318462A
:1047A000FBF786FD03469AB207F26C716423AC48AE
:1047B00007F0F0F907F23C5318460CF022FE17E020
:1047C00007F5875303F11B031A7807F26C73A549A9
:1047D000184613F00DF807F26C731846FBF768FDE6
:1047E00003469AB207F26C7164239D4807F0D2F930
:1047F000002307F5885202F10C0213601CE09A4A6C
:1048000007F5885303F10C031B68134400221A7048
:10481000964A07F5885303F10C031B68002142F800
:10482000231007F5885303F10C031B68013307F5C8
:10483000885202F10C02136007F5885303F10C0350
:104840001B68012BDBDD8A4B00221A704FF47A7053
:104850000FF0B6FA874B00221A7007F54F7307F571
:10486000875202F11C0212688349184612F0C0FFF9
:1048700007F54F731846FBF71BFD03469AB207F581
:104880004F716423764807F085F97C4B01221A703A
:1048900007F5BC737A4AA3F1A80415460FCD0FC4DF
:1048A0000FCD0FC42B68236007F1D803083B1846CF
:1048B000FBF7FEFC03469AB207F1D80108396423DE
:1048C000674807F067F907F5BC736E4AA3F1440423
:1048D00015460FCD0FC40FCD0FC495E8070003C4D4
:1048E000227007F59C73043B1846FBF7E1FC034676
:1048F0009AB207F59C7104396423594807F04AF9C4
:1049000007F5CC7307F58852116818460CF0FBFFC9
:10491000034607F5875202F11B02137007F5875310
:1049200003F11B031B78002B5AD1002307F5885293
:1049300002F10802136046E007F26C7207F5CC73CF
:10494000114618460DF098F8034607F5875202F114
:104950001B02137007F5875303F11B031B78002B11
:1049600038D107F58B5303F11803A3F60C239B7D75
:10497000002B2FD007F58B5303F11803A3F60C235C
:10498000196807F26C7303F1160207F51D700B46E8
:104990003D4912F02DFF07F51D731846FBF788FC03
:1049A00003469AB207F51D7164232D4807F0F2F80B
:1049B00007F5885303F108031B68013307F5885294
:1049C00002F10802136007F5885303F108031B681E
:1049D000092BB1DD07F5CC7318460DF022F817E06E
:1049E00007F5875303F11B031A7807F26C73274905
:1049F000184612F0FDFE07F26C731846FBF758FCE0
:104A000003469AB207F26C716423154807F0C2F8A6
:104A10004FF4FA700FF0D4F907F58B5303F1180334
:104A2000A3F5E9631A4A1C4615460FCD0FC495E855
:104A3000070084E8070007F523631846FBF738FCF6
:104A400003469AB207F523616423054807F0A2F8EC
:104A50000A200FF0B5F9FCF7FBBF00BF40AC01081E
:104A6000BC080020F4A80108B8490020B049002083
:104A7000BB490020F80500201CA90108F905002009
:104A800068AC01088CAC010870A4010860A9010899
:104A9000B8AC010880B588B000AF07F10C03002264
:104AA0001A605A609A60DA601A610023BB606A4B30
:104AB0001B6B694A43F004031363674B1B6B03F0E2
:104AC0000403BB60BB6800237B60634B1B6B624AC3
:104AD00043F001031363604B1B6B03F001037B6026
:104AE0007B6800233B605C4B1B6B5B4A43F002031B
:104AF0001363594B1B6B03F002033B603B680022BE
:104B000041F21001554803F0C5FD002245F20301B2
:104B1000534803F0BFFD01224FF44071504803F0A9
:104B2000B9FD1023FB6001233B6101237B6100235E
:104B3000BB6107F10C031946484803F01FFC44F21F
:104B40000303FB6001233B6101237B610023BB6105
:104B500007F10C031946424803F010FC4FF4805350
:104B6000FB6001233B6100237B610023BB6107F1F4
:104B70000C0319463A4803F001FC4FF40053FB6064
:104B80004FF488133B6100237B6107F10C03194646
:104B9000334803F0F3FB4FF48053FB6001233B6188
:104BA00000237B610023BB6107F10C0319462B48EE
:104BB00003F0E4FB0823FB604FF444133B61012343
:104BC0007B6107F10C031946254803F0D7FB40230E
:104BD000FB604FF404133B6101237B6107F10C037D
:104BE00019461F4803F0CAFB8023FB6000233B618A
:104BF00001237B6107F10C031946194803F0BEFB42
:104C00004FF44073FB6001233B6101237B6102236E
:104C1000BB6107F10C031946114803F0AFFB0022FA
:104C20000221092002F072FF092002F08BFF00220E
:104C30000321172002F06AFF172002F083FF0022F1
:104C40000221282002F062FF282002F07BFF00BF33
:104C50002037BD4680BD00BF003802400000024042
:104C60000004024080B582B000AF0346FB80FB88A1
:104C7000402B02D102F05EFD04E0FB88082B01D13D
:104C800002F086FD00BF0837BD4680BDB0B5DCB080
:104C900000AF02F01DFE00F053F9FFF7FBFEFCF73A
:104CA000E9F900F005FA01F0B9F901F021F900F095
:104CB0006DFE01F089F9954B07F5A4741D460FCDE3
:104CC0000FC40FCD0FC495E8030084E8030007F577
:104CD000A4731846FBF7ECFA03469AB207F5A471E1
:104CE00064238B4806F056FF8A4B07F596741D46E1
:104CF0000FCD0FC495E8070003C4228007F5967313
:104D00001846FBF7D5FA03469AB207F59671642365
:104D10007F4806F03FFF00F07BFB7F4B07F58A746E
:104D20001D460FCD0FC495E8030020600434218098
:104D300007F58A731846FBF7BBFA03469AB207F5E4
:104D40008A716423724806F025FFFCF789F9734BDA
:104D500007F1FC041D460FCD0FC495E8030084E85D
:104D6000030007F1FC031846FBF7A2FA03469AB2C8
:104D700007F1FC016423664806F00CFF08F042FFCF
:104D8000674B07F1E8041D460FCD0FC42B68236065
:104D900007F1E8031846FBF78BFA03469AB207F1CE
:104DA000E80164235A4806F0F5FE5E4B07F1D4048F
:104DB0001D460FCD0FC42B68237007F1D40318468E
:104DC000FBF776FA03469AB207F1D4016423504800
:104DD00006F0E0FE544B07F1B0041D460FCD0FC4A2
:104DE0000FCD0FC42B68238007F1B0031846FBF7E3
:104DF0005FFA03469AB207F1B0016423444806F013
:104E0000C9FE0DF09BF9494B07F190041D460FCDEB
:104E10000FC495E80F0007C4238007F190031846DC
:104E2000FBF746FA03469AB207F19001642338482B
:104E300006F0B0FE07F5B873A3F582733C4A1C4632
:104E400015460FCD0FC40FCD0FC42B68237007F18B
:104E50006C031846FBF72CFA03469AB207F16C0173
:104E600064232B4806F096FEFCF7CEF907F5B873DD
:104E7000A3F592732F4A1C4615460FCD0FC495E833
:104E80000F0007C4237007F14C031846FBF710FA14
:104E900003469AB207F14C0164231D4806F07AFEDE
:104EA00007F5B873A3F5A473234A1C4615460FCD26
:104EB0000FC40FCD0FC42B68237007F128031846C9
:104EC000FBF7F6F903469AB207F12801642310486C
:104ED00006F060FE0DF078F907F5B873A3F5B67328
:104EE000164A1C4615460FCD0FC40FCD0FC42B68B4
:104EF00023703B1D1846FBF7DBF903469AB2391DB8
:104F00006423034806F046FE00BFFDE7D4AC010869
:104F1000BC080020FCAC010818AD010830AD010848
:104F200048AD01085CAD010870AD010894AD010801
:104F3000B4AD0108D8AD0108F8AD01081CAE0108F8
:104F400080B594B000AF07F11C033422002118464D
:104F500012F062FD07F1080300221A605A609A609D
:104F6000DA601A6100237B60294B1B6C284A43F0EE
:104F700080531364264B1B6C03F080537B607B686B
:104F800000233B60234B1B68224A43F440431360D9
:104F9000204B1B6803F440433B603B680623FB61E6
:104FA00001237B620123BB621023FB6202237B632C
:104FB0000023BB631023FB63C0233B6402237B6499
:104FC0000423BB640223FB6407F11C03184603F0AF
:104FD0008DFF0346002B01D000F064F80F23BB6067
:104FE0000223FB6000233B614FF480537B6100236D
:104FF000BB6107F108030321184603F097FB034642
:10500000002B01D000F04EF800BF5037BD4680BDE8
:10501000003802400070004080B582B000AF786078
:10502000391D4FF6FF730122034806F0B3FD7B687C
:1050300018460837BD4680BD0409002080B584B0FD
:1050400000AF78600023FB7307F10F014FF6FF7389
:1050500001220A4806F029FEFB7B0D2B04D10D200E
:10506000FFF7DAFF0A23FB73FB7B1846FFF7D4FF39
:10507000034618461037BD4680BD00BF0409002016
:1050800080B582B000AF78607B681B68044A9342A9
:1050900001D102F03FFC00BF0837BD4680BD00BF14
:1050A0000008004080B400AF72B600BF00BFFDE74B
:1050B00080B586B000AF3B1D00221A605A609A602E
:1050C000DA601A6100233B60244B254A1A60234BA7
:1050D00000225A60214B7F229A60204BFF22DA6027
:1050E0001E4B00221A611D4B00225A611B4B0022ED
:1050F0009A611A4804F07EF90346002B01D0FFF7AD
:10510000D1FF00233B7100237B710023BB7100237F
:105110003B6100237B613B1D002219460F4804F0D0
:10512000EAF90346002B01D0FFF7BCFF01233B70D7
:1051300001237B700123BB700023FB703B460022E0
:105140001946064804F0CFFA0346002B01D0FFF7BA
:10515000A9FF00BF1837BD4680BD00BF0C06002068
:105160000028004080B592B000AF786007F10C03D2
:105170003C220021184612F04FFC7B681B680C4A49
:10518000934211D10823FB604FF48073BB6207F197
:105190000C03184603F0DCFC0346002B01D0FFF79C
:1051A00081FF044B01221A6000BF4837BD4680BD15
:1051B000002800403C0E474280B59AB000AF7860AE
:1051C00007F1540300221A605A609A60DA601A618B
:1051D00007F118033C220021184612F01DFC7B68E1
:1051E0001B68794A934240F0EB806023BB61002347
:1051F0003B640023BB6307F11803184603F0A8FCC7
:105200000346002B01D0FFF74DFF00237B616F4B5E
:105210005B6C6E4A43F4006353646C4B5B6C03F449
:1052200000637B617B6900233B61684B1B6B674AB2
:1052300043F001031363654B1B6B03F001033B61F8
:105240003B690023FB60614B1B6B604A43F0020328
:1052500013635E4B1B6B03F00203FB60FB68402390
:105260007B650223BB650123FB6503233B660C239F
:105270007B6607F154031946554803F07FF84FF455
:1052800000437B650223BB650023FB6503233B666C
:105290000C237B6607F1540319464E4803F06EF861
:1052A00010237B650223BB650123FB6503233B665B
:1052B0000C237B6607F154031946464803F05EF859
:1052C000454B464A1A60444B4FF000625A60424BCD
:1052D00000229A60404B0022DA603F4B4FF480621C
:1052E0001A613D4B4FF480525A613B4B4FF4804260
:1052F0009A61394B2022DA61374B4FF400321A623F
:10530000354B04225A62344B03229A62324B4FF4DB
:105310000002DA62304B4FF400121A632E4802F09A
:105320001FFC0346002B01D0FFF7BCFE7B682A4A16
:105330001A64294A7B689363294B2A4A1A60284BCE
:105340004FF000625A60264B40229A60244B0022A4
:10535000DA60234B4FF480621A61214B4FF4805284
:105360005A611F4B4FF480429A611D4B2022DA6133
:105370001B4B4FF400321A62194B04225A62184B2D
:1053800003229A62164B4FF40002DA62144B4FF478
:1053900000121A63124802F0E3FB0346002B01D00F
:1053A000FFF780FE7B680E4ADA630D4A7B689363E1
:1053B00000220521312002F0A9FB312002F0C2FBBE
:1053C00000BF6837BD4680BD002C01400038024058
:1053D0000000024000040240B00600205864024071
:1053E00010070020A064024080B582B000AF786052
:1053F0007868FAF75DFF03469AB264237968034838
:1054000006F0C8FB00BF0837BD4680BDBC080020C1
:10541000F0B5F3B004AF07F5B8733C22002118468D
:1054200012F0FAFA6023C7F870310023C7F89831F8
:105430000023C7F8903107F5B873184603F088FBCE
:105440000346002B03D0C548FFF7CEFF7DE207F5EA
:10545000DC73A3F5867300221A60C14B5B6CC04AF3
:1054600043F400635364BE4B5B6C03F4006207F5C6
:10547000DC73A3F586731A6007F5DC73A3F58673F6
:105480001B6807F5DC73A3F5887300221A60B44B20
:105490001B6BB34A43F001031363B14B1B6B03F067
:1054A000010207F5DC73A3F588731A6007F5DC7356
:1054B000A3F588731B6807F5DC73A3F58A730022D4
:1054C0001A60A74B1B6BA64A43F002031363A44B5D
:1054D0001B6B03F0020207F5DC73A3F58A731A60F5
:1054E00007F5DC73A3F58A731B6807F5AE7300221A
:1054F0001A605A609A60DA601A614023C7F85C311A
:105500000223C7F860310123C7F864310323C7F8C9
:1055100068310C23C7F86C3107F5AE731946914812
:1055200002F02CFF4FF40043C7F85C310223C7F8A8
:1055300060310023C7F864310323C7F868310C23B6
:10554000C7F86C3107F5AE731946874802F016FFAD
:105550001023C7F85C310223C7F860310123C7F874
:1055600064310323C7F868310C23C7F86C3107F5A1
:10557000AE7319467C4802F001FF7C4B7C4A1A60EE
:105580007A4B00225A60794B00229A60774B0022B6
:10559000DA60764B00221A61744B00225A61734B19
:1055A00076229A617348FFF71FFF7348FFF71CFFCD
:1055B0004FF4FA7002F0CEF97048FFF715FF6B4B0D
:1055C0001E686A4D6C4605F1100393E8070084E8F5
:1055D00007002B1D0ECB304607F0A0FD0346002B25
:1055E00003D06748FFF700FFAFE16648FFF7FCFE16
:1055F000654B01221A606548FFF7F6FE5B4B1B689E
:10560000184607F0D4FD0A2002F0A4F9574B1B6896
:105610005A6807F594735E49184612F0E9F807F5E1
:1056200094731846FFF7E0FE504B1B681A6807F5A5
:1056300094735849184612F0DBF807F5947318462E
:10564000FFF7D2FE5448FFF7CFFE0023C7F814310E
:105650000023C7F818310023C7F81C310023C7F80E
:1056600020314FF48063C7F82431404B1B6807F5A5
:105670008A721146184607F0B6FD4FF47A73C7F8E0
:10568000B4311AE0D7F8B431013BC7F8B431D7F8D8
:10569000B431002B11D14148FFF7A6FE334B1B68F4
:1056A0005A6B07F154033E49184612F0A1F807F16E
:1056B00054031846FFF798FE47E12C4B1B685B6BC1
:1056C00003F08003002BDDD0284B1B6880229A63F7
:1056D0003448FFF789FE0A2002F03CF93248FFF710
:1056E00083FE4FF4D573C7F814310823C7F8183177
:1056F0004023C7F81C310023C7F820314FF48063E2
:10570000C7F82431194B1B6807F58A7211461846F1
:1057100007F069FD4FF47A73C7F8B4314AE0D7F85F
:10572000B431013BC7F8B431D7F8B431002B41D1C3
:105730001E48FFF759FE0D4B1B685A6B07F15403C7
:105740001749184612F054F807F154031846FFF7AA
:105750004BFE1748FFF748FE33E000BF40AE01089C
:105760000038024000000240000402402C060020E5
:10577000002C014064AE01087CAE010898AE01081F
:10578000BCAE0108E4AE0108A08025420CAF0108C0
:1057900024AF01083CAF010854AF01087CAF0108F9
:1057A00094AF0108A8AF0108B4AF0108DCAF01084D
:1057B000F4AF0108674B1B685B6B03F04503002BDC
:1057C000ADD0644B1B685B6B03F00403002B07D068
:1057D000604B1B6804229A635F48FFF705FE2EE0CA
:1057E0005C4B1B685B6B03F00103002B07D0594B2C
:1057F0001B6801229A635948FFF7F6FD1FE0554BDD
:105800001B685B6B03F04003002B18D0514B1B68E7
:1058100040229A634F4B1B680021184607F01AFD7F
:10582000C7F8B00107F15403D7F8B0214C49184626
:1058300011F0DEFF07F154031846FFF7D5FD494884
:10584000FFF7D2FD434804F0DFF8034687F8AF3195
:1058500097F8AF31002B35D097F8AF213D4B93F837
:105860003430DBB219463B4B9B6B381D00930B4623
:105870003D4911F0BDFF3B1D1846FFF7B5FD4FF444
:10588000FA7002F067F83948FFF7AEFD314B9E22FF
:105890009A61304804F0B8F8034687F8AF3197F8BA
:1058A000AF31002B0ED097F8AF212A4B9B6B07F13D
:1058B00054002F4911F09CFF07F154031846FFF7DD
:1058C00093FD42E02B48FFF78FFD224B5B6D214A91
:1058D000926D02FB03F31A0D1E4B9B6D07F1B00096
:1058E000254911F085FF07F1B0031846FFF77CFD4D
:1058F000184B04229A61214B5B6823F0FF02154B81
:105900009B69DBB21D4913434B601D48FFF76CFDDB
:105910004FF400610F4804F031FE034687F8AF31C1
:1059200097F8AF31002B0DD097F8AF2107F1540352
:105930001449184611F05CFF07F154031846FFF7AD
:1059400053FD02E01048FFF74FFD07F5DE77BD4637
:10595000F0BD00BF2C06002020B0010840B00108B7
:1059600050B0010870B0010894B00108C8B0010837
:10597000E8B001080CB101081CB10108002C01407D
:1059800040B1010868B1010898B1010880B500AFC5
:10599000174B184A1A60164B4FF482725A60144B18
:1059A00000229A60124B0022DA60114B00221A6129
:1059B0000F4B00225A610E4B4FF400729A610C4B50
:1059C0002822DA610A4B00221A62094B00225A622D
:1059D000074B00229A62064B0A22DA62044805F05D
:1059E00028FB0346002B01D0FFF75CFB00BF80BD06
:1059F000700700200030014080B58AB000AF7860A9
:105A000007F1140300221A605A609A60DA601A6182
:105A10007B681B68304A934259D100233B612F4B6E
:105A20005B6C2E4A43F4805353642C4B5B6C03F441
:105A300080533B613B690023FB60284B1B6B274A6B
:105A400043F001031363254B1B6B03F00103FB6061
:105A5000FB68A0237B610223BB610023FB6103235E
:105A60003B6205237B6207F1140319461C4802F0D0
:105A700085FC1C4B1C4A1A601A4B4FF0C0625A60DE
:105A8000184B40229A60174B0022DA60154B4FF4F6
:105A900080621A61134B00225A61124B00229A61F4
:105AA000104B0022DA610F4B00221A620D4B0022CC
:105AB0005A620C4802F054F80346002B01D0FFF75D
:105AC000F1FA7B68074A9A64064A7B68936300BFD1
:105AD0002837BD4680BD00BF00300140003802407D
