:020000040800F2
:1000000000000420E52E00084D25000855250008B5
:100010005D250008652500086D250008000000002A
:10002000000000000000000000000000213B01086B
:100030007525000800000000713D0108ED09010868
:10004000352F0008352F0008352F0008352F000800
:10005000352F0008352F0008352F0008352F0008F0
:10006000352F0008352F0008352F0008352F0008E0
:10007000352F0008352F0008352F0008352F0008D0
:10008000352F0008352F0008352F0008352F0008C0
:10009000352F0008352F0008352F0008352F0008B0
:1000A000352F0008352F0008352F0008352F0008A0
:1000B000352F000885250008AD250008352F0008DC
:1000C000352F0008352F0008352F0008352F000880
:1000D000352F0008C1250008D5250008352F000858
:1000E000352F0008352F0008352F0008352F000860
:1000F000352F0008352F0008352F0008352F000850
:1001000000000000E9250008352F0008352F000801
:100110000000000000000000352F0008352F000807
:10012000352F0008352F0008FD250008112600088E
:10013000352F0008352F0008352F0008352F00080F
:10014000352F0008352F0008352F0008352F0008FF
:100150002526000839260008352F0008352F00080D
:10016000352F0008352F00080000000000000000B7
:10017000000000000000000000000000000000007F
:10018000352F0008352F0008000000000000000097
:10019000352F0008352F0008000000000000000087
:1001A000000000000000000000000000000000004F
:1001B000000000000000000000000000352F0008D3
:0401C000352F0008CF
:1001D00010B5054C237833B9044B13B10448AFF381
:1001E00000800123237010BDDC010020000000000E
:1001F000D890010808B5034B1BB103490348AFF37E
:10020000008008BD00000000E0010020D890010837
:1002100001F0FF01102A2BDB10F0070F08D010F8B7
:10022000013B013A8B422DD010F0070F42B3F6D1BB
:10023000F0B441EA012141EA014122F007047FF0D4
:1002400000070023F0E80256083C85EA010586EA2B
:10025000010685FA47F5A3FA87F586FA47F6A5FA67
:1002600087F68EB9EED1F0BC01F0FF0102F0070273
:1002700032B110F8013B013A83EA010313B1F8D11E
:100280000020704701387047002D06BF35460338FF
:10029000073815F0010F07D1013015F4807F02BF38
:1002A000013015F4C03F0130F0BC0138704700BF89
:1002B000034613F8012B002AFBD1181A01387047A6
:1002C00081F0004102E000BF83F0004330B54FEA07
:1002D00041044FEA430594EA050F08BF90EA020F74
:1002E0001FBF54EA000C55EA020C7FEA645C7FEA07
:1002F000655C00F0E2804FEA5454D4EB5555B8BF2A
:100300006D420CDD2C4480EA020281EA030382EA9A
:10031000000083EA010180EA020281EA0303362D2C
:1003200088BF30BD11F0004F4FEA01314FF4801CFF
:100330004CEA113102D0404261EB410113F0004F11
:100340004FEA03334CEA133302D0524263EB4303C8
:1003500094EA050F00F0A780A4F10104D5F1200E66
:100360000DDB02FA0EFC22FA05F2801841F10001C1
:1003700003FA0EF2801843FA05F359410EE0A5F195
:1003800020050EF1200E012A03FA0EFC28BF4CF0C6
:10039000020C43FA05F3C01851EBE37101F000457C
:1003A00007D54FF0000EDCF1000C7EEB00006EEB89
:1003B0000101B1F5801F1BD3B1F5001F0CD3490813
:1003C0005FEA30004FEA3C0C04F101044FEA44526A
:1003D00012F5800F80F09A80BCF1004F08BF5FEAF1
:1003E000500C50F1000041EB045141EA050130BDD1
:1003F0005FEA4C0C404141EB0101013C28BFB1F5E3
:10040000801FE9D291F0000F04BF01460020B1FA2D
:1004100081F308BF2033A3F10B03B3F120020CDA00
:100420000C3208DD02F1140CC2F10C0201FA0CF0DE
:1004300021FA02F10CE002F11402D8BFC2F1200C43
:1004400001FA02F120FA0CFCDCBF41EA0C019040F9
:10045000E41AA2BF01EB0451294330BD6FEA040442
:100460001F3C1CDA0C340EDC04F11404C4F120022D
:1004700020FA04F001FA02F340EA030021FA04F33F
:1004800045EA030130BDC4F10C04C4F1200220FA96
:1004900002F001FA04F340EA0300294630BD21FAD4
:1004A00004F0294630BD94F0000F83F4801306BF9A
:1004B00081F480110134013D4EE77FEA645C18BF8E
:1004C0007FEA655C29D094EA050F08BF90EA020F25
:1004D00005D054EA000C04BF1946104630BD91EA1D
:1004E000030F1EBF0021002030BD5FEA545C05D120
:1004F0004000494128BF41F0004130BD14F580045F
:100500003CBF01F5801130BD01F0004545F0FE41D2
:1005100041F470014FF0000030BD7FEA645C1ABF07
:10052000194610467FEA655C1CBF0B46024650EA3E
:10053000013406BF52EA033591EA030F41F400216A
:1005400030BD00BF90F0000F04BF0021704730B5F0
:100550004FF4806404F132044FF000054FF00001C5
:1005600050E700BF90F0000F04BF0021704730B586
:100570004FF4806404F1320410F0004548BF40425B
:100580004FF000013EE700BF42004FEAE2014FEAB0
:1005900031014FEA02701FBF12F07F4393F07F4F8B
:1005A00081F06051704732F07F4208BF704793F08E
:1005B0007F4F04BF41F40021704730B54FF46074A1
:1005C00001F0004521F000411CE700BF50EA0102A4
:1005D00008BF704730B54FF000050AE050EA01024D
:1005E00008BF704730B511F0004502D5404261EBBD
:1005F00041014FF4806404F132045FEA915C3FF4FE
:10060000D8AE4FF003025FEADC0C18BF03325FEA9A
:10061000DC0C18BF033202EBDC02C2F1200300FA4B
:1006200003FC20FA02F001FA03FE40EA0E0021FA70
:1006300002F11444BDE600BF70B54FF0FF0C4CF45E
:10064000E06C1CEA11541DBF1CEA135594EA0C0F10
:1006500095EA0C0F00F0DEF82C4481EA030621EA4B
:100660004C5123EA4C5350EA013518BF52EA033586
:1006700041F4801143F4801338D0A0FB02CE4FF038
:100680000005E1FB02E506F00042E0FB03E54FF068
:100690000006E1FB03569CF0000F18BF4EF0010E60
:1006A000A4F1FF04B6F5007F64F5407404D25FEA5C
:1006B0004E0E6D4146EB060642EAC62141EA55510F
:1006C0004FEAC52040EA5E504FEACE2EB4F1FD0C51
:1006D00088BFBCF5E06F1ED8BEF1004F08BF5FEACF
:1006E000500E50F1000041EB045170BD06F0004681
:1006F00046EA010140EA020081EA0301B4EB5C042E
:10070000C2BFD4EB0C0541EA045170BD41F4801125
:100710004FF0000E013C00F3AB8014F1360FDEBF4A
:10072000002001F0004170BDC4F10004203C35DA26
:100730000C341BDC04F11404C4F1200500FA05F3A9
:1007400020FA04F001FA05F240EA020001F000424A
:1007500021F0004110EBD37021FA04F642EB0601C0
:100760005EEA430E08BF20EAD37070BDC4F10C04EA
:10077000C4F1200500FA04F320FA05F001FA04F2AE
:1007800040EA020001F0004110EBD37041F100019A
:100790005EEA430E08BF20EAD37070BDC4F12005A5
:1007A00000FA05F24EEA020E20FA04F301FA05F20D
:1007B00043EA020321FA04F001F0004121FA04F2B5
:1007C00020EA020000EBD3705EEA430E08BF20EA85
:1007D000D37070BD94F0000F0FD101F000464000BF
:1007E00041EB010111F4801F08BF013CF7D041EA41
:1007F000060195F0000F18BF704703F00046520045
:1008000043EB030313F4801F08BF013DF7D043EA15
:100810000603704794EA0C0F0CEA135518BF95EACB
:100820000C0F0CD050EA410618BF52EA4306D1D152
:1008300081EA030101F000414FF0000070BD50EA71
:10084000410606BF1046194652EA430619D094EAFB
:100850000C0F02D150EA013613D195EA0C0F05D1E5
:1008600052EA03361CBF104619460AD181EA030139
:1008700001F0004141F0FE4141F470014FF00000F1
:1008800070BD41F0FE4141F4780170BD70B54FF08C
:10089000FF0C4CF4E06C1CEA11541DBF1CEA13550C
:1008A00094EA0C0F95EA0C0F00F0A7F8A4EB0504EE
:1008B00081EA030E52EA03354FEA013100F08880E5
:1008C0004FEA03334FF0805545EA131343EA1263AE
:1008D0004FEA022245EA111545EA10654FEA002663
:1008E0000EF000419D4208BF964244F1FD0404F51C
:1008F000407402D25B084FEA3202B61A65EB030578
:100900005B084FEA32024FF480104FF4002CB6EB34
:10091000020E75EB030E22BFB61A754640EA0C00B4
:100920005B084FEA3202B6EB020E75EB030E22BFF4
:10093000B61A754640EA5C005B084FEA3202B6EB35
:10094000020E75EB030E22BFB61A754640EA9C00F4
:100950005B084FEA3202B6EB020E75EB030E22BFC4
:10096000B61A754640EADC0055EA060E18D04FEA82
:10097000051545EA16754FEA06164FEAC30343EA22
:1009800052734FEAC2025FEA1C1CC0D111F4801FEF
:100990000BD141EA00014FF000004FF0004CB6E7E8
:1009A00011F4801F04BF01430020B4F1FD0C88BF87
:1009B000BCF5E06F3FF6AFAEB5EB030C04BFB6EB92
:1009C000020C5FEA500C50F1000041EB045170BD85
:1009D0000EF0004E4EEA113114EB5C04C2BFD4EBB2
:1009E0000C0541EA045170BD41F480114FF0000E36
:1009F000013C90E645EA060E8DE60CEA135594EAB2
:100A00000C0F08BF95EA0C0F3FF43BAF94EA0C0FB4
:100A10000AD150EA01347FF434AF95EA0C0F7FF429
:100A200025AF104619462CE795EA0C0F06D152EA7D
:100A300003353FF4FDAE1046194622E750EA410661
:100A400018BF52EA43067FF4C5AE50EA41047FF472
:100A50000DAF52EA43057FF4EBAE12E74FF0FF3CD7
:100A600006E000BF4FF0010C02E000BF4FF0010CA8
:100A70004DF804CD4FEA410C7FEA6C5C4FEA430C21
:100A800018BF7FEA6C5C1BD001B050EA410C0CBF70
:100A900052EA430C91EA030F02BF90EA020F0020D2
:100AA000704710F1000F91EA030F58BF994208BF39
:100AB00090422CBFD8176FEAE37040F001007047F6
:100AC0004FEA410C7FEA6C5C02D150EA013C07D14D
:100AD0004FEA430C7FEA6C5CD6D152EA033CD3D098
:100AE0005DF8040B704700BF8446104662468C4692
:100AF0001946634600E000BF01B5FFF7B7FF0028C5
:100B000048BF10F1000F01BD4DF808EDFFF7F4FFED
:100B10000CBF012000205DF808FB00BF4DF808ED78
:100B2000FFF7EAFF34BF012000205DF808FB00BF9B
:100B30004DF808EDFFF7E0FF94BF012000205DF8BD
:100B400008FB00BF4DF808EDFFF7CEFF94BF012072
:100B500000205DF808FB00BF4DF808EDFFF7C4FF6B
:100B600034BF012000205DF808FB00BF4FEA410CB4
:100B70007FEA6C5C02D150EA013C0AD14FEA430C97
:100B80007FEA6C5C02D152EA033C02D14FF00000D4
:100B900070474FF0010070474FEA410212F5001212
:100BA00015D211D56FF47873B3EB625212D94FEAB4
:100BB000C12343F0004343EA505311F0004F23FA9E
:100BC00002F018BF404270474FF00000704750EAF3
:100BD000013005D111F0004008BF6FF000407047B0
:100BE0004FF00000704700BF4A0011D212F500120A
:100BF00011D20DD56FF47873B3EB62520ED44FEA75
:100C0000C12343F0004343EA505323FA02F07047F4
:100C10004FF00000704750EA013002D14FF0FF3032
:100C200070474FF0000070474FEA4102B2F1E043D5
:100C300024BFB3F5001CDCF1FE5C0DD901F0004CC3
:100C40004FEAC0024CEA5070B2F1004F40EB830013
:100C500008BF20F00100704711F0804F21D113F13F
:100C60003872BCBF01F00040704741F480114FEA78
:100C70005252C2F11802C2F1200C10FA0CF320FA01
:100C800002F018BF40F001004FEAC1234FEAD3231E
:100C900003FA0CFC40EA0C0023FA02F34FEA430388
:100CA000CCE77FEA625307D150EA01331EBF4FF011
:100CB000FE4040F44000704701F0004040F0FE402C
:100CC00040F40000704700BF53B94AB9002908BF7B
:100CD00000281CBF4FF0FF314FF0FF3000F0BEB9CD
:100CE000ADF1080C6DE904CE00F03CF8DDF804E04D
:100CF000DDE9022304B0704738B500220023044622
:100D00000D46FFF70BFF28B920462946BDE83840BD
:100D100000F00AB8204605F1004100F005F8404215
:100D200061EB410138BD00BFD0B50C4B0022064637
:100D30000F46FFF781FCFFF757FF0446FFF702FC61
:100D4000074B0022FFF778FC02460B463046394637
:100D5000FFF7BAFAFFF748FF2146D0BD0000F03D8B
:100D60000000F0412DE9F047089D8E460446884674
:100D7000002B4AD18A42174662D9B2FA82F64EB1A6
:100D8000C6F1200301FA06F820FA03F3B74043EA5C
:100D90000808B4404FEA174E1FFA87FCB8FBFEF173
:100DA000230C0EFB118843EA084301FB0CF29A4224
:100DB00009D9FB1801F1FF3080F0EA809A4240F235
:100DC000E78002393B449A1AA3B2B2FBFEF00EFB55
:100DD000102243EA024300FB0CFC9C4509D9FB1896
:100DE00000F1FF3280F0D6809C4540F2D3803B4436
:100DF000023840EA0140A3EB0C0300211DB1F3408F
:100E00000022C5E90032BDE8F0878B4205D90DB15B
:100E1000C5E9000100210846F5E7B3FA83F100298E
:100E200046D1734502D3824200F20581841A6EEBEB
:100E3000030201209046002DE5D0C5E90048E2E715
:100E4000002A00F09080B2FA82F6002E40F0A480D2
:100E50008A1A030C4FEA174E80B2BCB20121B2FBD2
:100E6000FEFC0EFB1C2243EA024304FB0CF29A42F6
:100E700007D9FB180CF1FF3802D29A4200F2E08049
:100E8000C4469B1AB3FBFEF20EFB123340EA034347
:100E900002FB04F49C4207D9FB1802F1FF3002D296
:100EA0009C4200F2CA8002461B1B42EA0C40A5E7A6
:100EB000C1F120068B4022FA06F71F430EFA01F417
:100EC00020FA06F32EFA06FE4FEA1749234300FAEA
:100ED00001F81FFA87FCBEFBF9F01C0C09FB10EEB1
:100EE00044EA0E4400FB0CFEA64502FA01F209D9C1
:100EF0003C1900F1FF3A80F09C80A64540F29980B1
:100F000002383C44A4EB0E041FFA83FEB4FBF9F351
:100F100009FB13444EEA044403FB0CFCA44508D926
:100F20003C1903F1FF3E80F08280A4457FD9023B4B
:100F30003C4443EA0040A4EB0C04A0FB02EC6445F3
:100F40007346E14662D35FD05DB1B8EB030264EB58
:100F5000090404FA06F622FA01F31E43CC40C5E95F
:100F6000006400214FE7B1FBF2FC010C41EA0E41A5
:100F700080B240EA01423B4638463C46B846BE464F
:100F80002026B1FBF7F1A2EB080241EA0C4166E72B
:100F9000014618E710462CE7C6F120022EFA02F3AC
:100FA000B740B14020FA02F24FEA174E0A43B3FBB2
:100FB000FEF8BCB20EFB1833110C41EA034108FBEA
:100FC00004F9B04089454FEA104380B23ED9791800
:100FD00008F1FF3C01D289451FD8A1EB0901B1FB03
:100FE000FEF909FB04F80EFB191192B242EA014224
:100FF000424529D2BA1809F1FF31C4D24245C2D2C2
:10100000A9F102013A44BEE7F0459DD2BEEB0203CE
:101010006CEB070C0138E14696E7A7EB0909494458
:10102000A8F1020CB1FBFEF909FB04F8DBE77346FB
:101030007FE7504666E70846FDE63B44023A33E761
:10104000ACF1020C3B441CE749469CE7A1EB0901CB
:10105000C446B1FBFEF909FB04F8C4E7704700BFC2
:1010600080B500AF024809F05BFA00BF80BD00BF49
:10107000C004002080B582B000AF00237B60184B15
:101080001B6B174A43F480031363154B1B6B03F46C
:1010900080037B607B68002205213A2004F0E4FE97
:1010A0003A2004F0FDFE002206213B2004F0DCFE85
:1010B0003B2004F0F5FE00220521442004F0D4FE7C
:1010C000442004F0EDFE00220621452004F0CCFE71
:1010D000452004F0E5FE00BF0837BD4680BD00BFD7
:1010E0000038024080B500AF01200CF0B5F900BF18
:1010F00080BD000080B500AF084A002108480FF00D
:1011000010FD0346074A1360074A002107480FF005
:1011100008FD0346064A136000BF80BDF09F01082A
:1011200039110008FC01002014A001086514000812
:101130000002002000000000B0B5B2B004AF78603B
:101140000023C7F8B4300023C7F8B030002387F875
:10115000AF30002387F8AE30002387F8AD3000238E
:1011600087F8AC3002F0D6FF07F11803B2491846F1
:1011700015F0E8FA07F118031846FFF799F8034647
:101180009AB207F118016423AC4809F0CFFE04F0CD
:1011900005FB07F11803AA49184615F0D3FA07F121
:1011A00018031846FFF784F803469AB207F11801AE
:1011B0006423A24809F0BAFE04F076FB07F1180395
:1011C000A049184615F0BEFA07F118031846FFF7B4
:1011D0006FF803469AB207F118016423974809F0A3
:1011E000A5FE994804F011FC0346002B0CBF012317
:1011F0000023DBB287F8AF3097F8AF30002B13D065
:1012000007F118039149184615F09CFA07F11803E5
:101210001846FFF74DF803469AB207F11801642308
:10122000864809F083FE12E007F118038849184642
:1012300015F088FA07F118031846FFF739F8034646
:101240009AB207F1180164237C4809F06FFE04F09C
:1012500023FD0246D7F8B430D31AB3F57A7F08D904
:1012600004F01AFDC7F8B4004FF48051794805F036
:10127000D8FB97F8AF30002B00F0D18004F00CFDC4
:101280000246D7F8B030D31AB3F5FA7F40F2C780E0
:1012900004F002FDC7F8B00002F098FF02F072FF00
:1012A000034687F8AD3002F07FFF034687F8AC3085
:1012B000002387F8AB3007F10C031946624804F0AD
:1012C00001FC0346002B0CBF01230023DBB287F88F
:1012D000AB3097F8AB30002B00F08E80B7F90C30B4
:1012E00007EE903AF8EEE77A9FED5B7A67EE877A41
:1012F000C7ED297AB7F90E3007EE903AF8EEE77AA3
:101300009FED557A67EE877AC7ED287AB7F91030E6
:1013100007EE903AF8EEE77A9FED4F7A67EE877A1C
:10132000C7ED277AD7ED297AF1EE677A17EE903A72
:101330001846FFF729F904460D46D7ED287A27EE1F
:10134000A77AD7ED277A67EEA77A77EE277A17EE96
:10135000900AFFF719F902460B4643EC102B12F0E6
:10136000E3FFB0EE407AF0EE607AB0EE471AF0EEAE
:10137000671A45EC104B12F0D5FF51EC100B2CA363
:10138000D3E90023FFF758F902460B4610461946E9
:10139000FFF74AFC0346C7F8983097ED260A04F099
:1013A0000DFC0346012B0CBF01230023DBB287F8A1
:1013B000AE30D7F89800FFF7E7F802460B4697F8EB
:1013C000AE1097F8AD0097F8AC4007F118050294FD
:1013D000019000912149284615F0B4F907F118034E
:1013E0001846FEF765FF03469AB207F11801642319
:1013F000124809F09BFD12E007F11803184918463E
:1014000015F0A0F907F118031846FEF751FF03463F
:101410009AB207F118016423084809F087FD02F029
:10142000D5FE04F0F1F90A2011F03CF90FE700BFF6
:1014300000000020DCA54C406C9101085005002004
:101440008C910108B091010804020020D891010894
:10145000FC91010800040240A8E41C3B2092010812
:101460004C92010880B584B000AF7860054BFB60FA
:10147000054B064A0649F86804F0C8F800BF103763
:10148000BD4680BD649201084F460020F90100204E
:10149000F801002080B588B000AF07F10C030022EE
:1014A0001A605A609A60DA601A610023BB60564B7A
:1014B0001B6B554A43F004031363534B1B6B03F040
:1014C0000403BB60BB6800237B604F4B1B6B4E4A21
:1014D00043F0010313634C4B1B6B03F001037B6070
:1014E0007B6800233B60484B1B6B474A43F0020379
:1014F0001363454B1B6B03F002033B603B68002208
:101500004FF40051414805F073FA00221021404881
:1015100005F06EFA002241F287413E4805F068FA74
:101520004FF40053FB6001233B6100237B610023E8
:10153000BB6107F10C031946344805F0CDF81023C0
:10154000FB6001233B6101237B610023BB6107F149
:101550000C0319462E4805F0BFF80323FB60012356
:101560003B6101237B610023BB6107F10C0319463A
:10157000284805F0B1F841F20443FB6001233B61C8
:1015800000237B610023BB6107F10C03194621484E
:1015900005F0A2F84FF4C043FB6000233B61012338
:1015A0007B6107F10C0319461A4805F095F84FF4D2
:1015B000C053FB6000233B6101237B6107F10C03F7
:1015C0001946134805F088F84023FB604FF4881350
:1015D0003B6101237B6107F10C0319460D4805F0BF
:1015E0007BF88023FB6001233B6100237B610223A6
:1015F000BB6107F10C031946064805F06DF800BF02
:101600002037BD4680BD00BF0038024000080240C0
:10161000000002400004024080B500AF124B134AA4
:101620001A60114B124A5A600F4B00229A600E4BFF
:101630000022DA600C4B4FF480421A610A4B002200
:101640005A61094B00229A61074B0022DA61064B6E
:1016500000221A62044805F0FFF90346002B01D06E
:1016600000F0A8F900BF80BD040200200054004033
:10167000A086010080B58AB000AF786007F114033E
:1016800000221A605A609A60DA601A617B681B68EF
:10169000194A93422CD100233B61184B1B6B174A0C
:1016A00043F002031363154B1B6B03F002033B6112
:1016B0003B694FF440737B611223BB610123FB61E3
:1016C00002233B6204237B6207F1140319460C4892
:1016D00005F002F80023FB60084B1B6C074A43F43B
:1016E00000131364054B1B6C03F40013FB60FB68D1
:1016F00000BF2837BD4680BD00540040003802407E
:1017000000040240B0B59EB000AF04F08FFA00F0C4
:101710009FF8FFF7BFFEFFF7ADFC00F051F90BF0AB
:101720003DFC01F06BF901F069F800F0B7FD01F044
:101730003BF901F0AFF8FFF76FFF3F4B07F15C0497
:101740001D460FCD0FC495E8070003C4228007F1A2
:101750005C031846FEF7ACFD03469AB207F15C0144
:101760006423364809F0E2FB00F0DAFA344B07F163
:1017700044041D460FCD0FC495E8030020600434D7
:10178000218007F144031846FEF792FD03469AB202
:1017900007F144016423294809F0C8FBFFF760FC06
:1017A000284B07F12C041D460FCD0FC495E803000C
:1017B00084E8030007F12C031846FEF779FD034681
:1017C0009AB207F12C0164231C4809F0AFFB0BF01F
:1017D000E5FB1D4B07F118041D460FCD0FC42B6808
:1017E000236007F118031846FEF762FD03469AB21C
:1017F00007F118016423114809F098FB134B3C1DB5
:101800001D460FCD0FC42B6823703B1D1846FEF7F5
:101810004FFD03469AB2391D6423084809F086FB40
:1018200002F048FD02F086FD0FF0FAF8FFF762FCC7
:101830000FF03CF900BFFDE7809201085005002041
:101840009C920108B4920108CC920108E092010830
:1018500080B594B000AF07F11C0334220021184674
:1018600015F084F807F1080300221A605A609A60A4
:10187000DA601A6100237B60294B1B6C284A43F015
:1018800080531364264B1B6C03F080537B607B6892
:1018900000233B60234B1B68224A43F44043136000
:1018A000204B1B6803F440433B603B680623FB610D
:1018B00001237B620123BB621023FB6202237B6353
:1018C0000023BB631023FB63C0233B6402237B64C0
:1018D0000423BB640223FB6407F11C03184606F0D3
:1018E000A3FC0346002B01D000F064F80F23BB607B
:1018F0000223FB6000233B614FF480537B61002394
:10190000BB6107F108030321184606F0ADF8034652
:10191000002B01D000F04EF800BF5037BD4680BD0F
:10192000003802400070004080B582B000AF78609F
:10193000391D4FF6FF730122034809F0F7FA7B685F
:1019400018460837BD4680BD9805002080B584B094
:1019500000AF78600023FB7307F10F014FF6FF73B0
:1019600001220A4809F06DFBFB7B0D2B04D10D20F1
:10197000FFF7DAFF0A23FB73FB7B1846FFF7D4FF60
:10198000034618461037BD4680BD00BF98050020AD
:1019900080B582B000AF78607B681B68044A9342D0
:1019A00001D104F065F900BF0837BD4680BD00BF16
:1019B0000008004080B400AF72B600BF00BFFDE772
:1019C00080B586B000AF3B1D00221A605A609A6055
:1019D000DA601A6100233B60244B254A1A60234BCE
:1019E00000225A60214B7F229A60204BFF22DA604E
:1019F0001E4B00221A611D4B00225A611B4B002214
:101A00009A611A4806F094FE0346002B01D0FFF7B6
:101A1000D1FF00233B7100237B710023BB710023A6
:101A20003B6100237B613B1D002219460F4806F0F5
:101A300000FF0346002B01D0FFF7BCFF01233B70E2
:101A400001237B700123BB700023FB703B46002207
:101A50001946064806F0E5FF0346002B01D0FFF7C4
:101A6000A9FF00BF1837BD4680BD00BF5802002047
:101A70000028004080B592B000AF786007F10C03F9
:101A80003C220021184614F071FF7B681B680C4A49
:101A9000934211D10823FB604FF48073BB6207F1BE
:101AA0000C03184606F0F2F90346002B01D0FFF7AD
:101AB00081FF044B01221A6000BF4837BD4680BD3C
:101AC000002800403C0E474280B59AB000AF7860D5
:101AD00007F1540300221A605A609A60DA601A61B2
:101AE00007F118033C220021184614F03FFF7B68E1
:101AF0001B68794A934240F0EB806023BB6100236E
:101B00003B640023BB6307F11803184606F0BEF9D7
:101B10000346002B01D0FFF74DFF00237B616F4B85
:101B20005B6C6E4A43F4006353646C4B5B6C03F470
:101B300000637B617B6900233B61684B1B6B674AD9
:101B400043F001031363654B1B6B03F001033B611F
:101B50003B690023FB60614B1B6B604A43F002034F
:101B600013635E4B1B6B03F00203FB60FB684023B7
:101B70007B650223BB650123FB6503233B660C23C6
:101B80007B6607F154031946554804F0A5FD4FF450
:101B900000437B650223BB650023FB6503233B6693
:101BA0000C237B6607F1540319464E4804F094FD5C
:101BB00010237B650223BB650123FB6503233B6682
:101BC0000C237B6607F154031946464804F084FD54
:101BD000454B464A1A60444B4FF000625A60424BF4
:101BE00000229A60404B0022DA603F4B4FF4806243
:101BF0001A613D4B4FF480525A613B4B4FF4804287
:101C00009A61394B2022DA61374B4FF400321A6265
:101C1000354B04225A62344B03229A62324B4FF402
:101C20000002DA62304B4FF400121A632E4804F0BF
:101C300045F90346002B01D0FFF7BCFE7B682A4A1A
:101C40001A64294A7B689363294B2A4A1A60284BF5
:101C50004FF000625A60264B40229A60244B0022CB
:101C6000DA60234B4FF480621A61214B4FF48052AB
:101C70005A611F4B4FF480429A611D4B2022DA615A
:101C80001B4B4FF400321A62194B04225A62184B54
:101C900003229A62164B4FF40002DA62144B4FF49F
:101CA00000121A63124804F009F90346002B01D010
:101CB000FFF780FE7B680E4ADA630D4A7B68936308
:101CC00000220521312004F0CFF8312004F0E8F89B
:101CD00000BF6837BD4680BD002C0140003802407F
:101CE0000000024000040240FC0200205864024050
:101CF0005C030020A064024080B582B000AF786031
:101D00007868FEF7D5FA03469AB2642379680348E7
:101D100009F00CF900BF0837BD4680BD5005002012
:101D2000F0B5F3B004AF07F5B8733C2200211846B4
:101D300014F01CFE6023C7F870310023C7F89831F7
:101D40000023C7F8903107F5B873184606F09EF8DF
:101D50000346002B03D0C548FFF7CEFF7DE207F511
:101D6000DC73A3F5867300221A60C14B5B6CC04A1A
:101D700043F400635364BE4B5B6C03F4006207F5ED
:101D8000DC73A3F586731A6007F5DC73A3F586731D
:101D90001B6807F5DC73A3F5887300221A60B44B47
:101DA0001B6BB34A43F001031363B14B1B6B03F08E
:101DB000010207F5DC73A3F588731A6007F5DC737D
:101DC000A3F588731B6807F5DC73A3F58A730022FB
:101DD0001A60A74B1B6BA64A43F002031363A44B84
:101DE0001B6B03F0020207F5DC73A3F58A731A601C
:101DF00007F5DC73A3F58A731B6807F5AE73002241
:101E00001A605A609A60DA601A614023C7F85C3140
:101E10000223C7F860310123C7F864310323C7F8F0
:101E200068310C23C7F86C3107F5AE731946914839
:101E300004F052FC4FF40043C7F85C310223C7F8AA
:101E400060310023C7F864310323C7F868310C23DD
:101E5000C7F86C3107F5AE731946874804F03CFCAF
:101E60001023C7F85C310223C7F860310123C7F89B
:101E700064310323C7F868310C23C7F86C3107F5C8
:101E8000AE7319467C4804F027FC7C4B7C4A1A60F0
:101E90007A4B00225A60794B00229A60774B0022DD
:101EA000DA60764B00221A61744B00225A61734B40
:101EB00076229A617348FFF71FFF7348FFF71CFFF4
:101EC0004FF4FA7003F0F4FE7048FFF715FF6B4B08
:101ED0001E686A4D6C4605F1100393E8070084E81C
:101EE00007002B1D0ECB30460AF0E4FA0346002B08
:101EF00003D06748FFF700FFAFE16648FFF7FCFE3D
:101F0000654B01221A606548FFF7F6FE5B4B1B68C4
:101F100018460AF018FB0A2003F0CAFE574B1B684C
:101F20005A6807F594735E49184614F00BFC07F5E0
:101F300094731846FFF7E0FE504B1B681A6807F5CC
:101F400094735849184614F0FDFB07F5947318462E
:101F5000FFF7D2FE5448FFF7CFFE0023C7F8143135
:101F60000023C7F818310023C7F81C310023C7F835
:101F700020314FF48063C7F82431404B1B6807F5CC
:101F80008A72114618460AF0FAFA4FF47A73C7F8C3
:101F9000B4311AE0D7F8B431013BC7F8B431D7F8FF
:101FA000B431002B11D14148FFF7A6FE334B1B681B
:101FB0005A6B07F154033E49184614F0C3FB07F16E
:101FC00054031846FFF798FE47E12C4B1B685B6BE8
:101FD00003F08003002BDDD0284B1B6880229A631E
:101FE0003448FFF789FE0A2003F062FE3248FFF70B
:101FF00083FE4FF4D573C7F814310823C7F818319E
:102000004023C7F81C310023C7F820314FF4806308
:10201000C7F82431194B1B6807F58A721146184618
:102020000AF0ADFA4FF47A73C7F8B4314AE0D7F842
:10203000B431013BC7F8B431D7F8B431002B41D1EA
:102040001E48FFF759FE0D4B1B685A6B07F15403EE
:102050001749184614F076FB07F154031846FFF7AA
:102060004BFE1748FFF748FE33E000BFF49201082B
:1020700000380240000002400004024078020020C4
:10208000002C014018930108309301084C9301087B
:102090007093010898930108A0802542C09301081D
:1020A000D8930108F09301080894010830940108BE
:1020B000489401085C940108689401089094010810
:1020C000A8940108674B1B685B6B03F04503002B6A
:1020D000ADD0644B1B685B6B03F00403002B07D08F
:1020E000604B1B6804229A635F48FFF705FE2EE0F1
:1020F0005C4B1B685B6B03F00103002B07D0594B53
:102100001B6801229A635948FFF7F6FD1FE0554B03
:102110001B685B6B03F04003002B18D0514B1B680E
:1021200040229A634F4B1B68002118460AF05EFA62
:10213000C7F8B00107F15403D7F8B0214C4918464D
:1021400014F000FB07F154031846FFF7D5FD49488A
:10215000FFF7D2FD434806F0F5FD034687F8AF319F
:1021600097F8AF31002B35D097F8AF213D4B93F85E
:102170003430DBB219463B4B9B6B381D00930B464A
:102180003D4914F0DFFA3B1D1846FFF7B5FD4FF44B
:10219000FA7003F08DFD3948FFF7AEFD314B9E22FA
:1021A0009A61304806F0CEFD034687F8AF3197F8C4
:1021B000AF31002B0ED097F8AF212A4B9B6B07F164
:1021C00054002F4914F0BEFA07F154031846FFF7E4
:1021D00093FD42E02B48FFF78FFD224B5B6D214AB8
:1021E000926D02FB03F31A0D1E4B9B6D07F1B000BD
:1021F000254914F0A7FA07F1B0031846FFF77CFD54
:10220000184B04229A61214B5B6823F0FF02154BA7
:102210009B69DBB21D4913434B601D48FFF76CFD02
:102220004FF400610F4807F047FB034687F8AF31D2
:1022300097F8AF31002B0DD097F8AF2107F1540379
:102240001449184614F07EFA07F154031846FFF7B4
:1022500053FD02E01048FFF74FFD07F5DE77BD465E
:10226000F0BD00BF78020020D4940108F494010866
:102270000495010824950108489501087C950108FA
:102280009C950108C0950108D0950108002C0140DB
:10229000F49501081C9601084C96010880B500AF22
:1022A000174B184A1A60164B4FF482725A60144B3F
:1022B00000229A60124B0022DA60114B00221A6150
:1022C0000F4B00225A610E4B4FF400729A610C4B77
:1022D0002822DA610A4B00221A62094B00225A6254
:1022E000074B00229A62064B0A22DA62044808F081
:1022F0003EF80346002B01D0FFF75CFB00BF80BD1A
:10230000BC0300200030014080B58AB000AF786087
:1023100007F1140300221A605A609A60DA601A61A9
:102320007B681B68304A934259D100233B612F4B95
:102330005B6C2E4A43F4805353642C4B5B6C03F468
:1023400080533B613B690023FB60284B1B6B274A92
:1023500043F001031363254B1B6B03F00103FB6088
:10236000FB68A0237B610223BB610023FB61032385
:102370003B6205237B6207F1140319461C4804F0F5
:10238000ABF91C4B1C4A1A601A4B4FF0C0625A60E2
:10239000184B40229A60174B0022DA60154B4FF41D
:1023A00080621A61134B00225A61124B00229A611B
:1023B000104B0022DA610F4B00221A620D4B0022F3
:1023C0005A620C4803F07AFD0346002B01D0FFF758
:1023D000F1FA7B68074A9A64064A7B68936300BFF8
:1023E0002837BD4680BD00BF0030014000380240A4
:1023F00000000240140400208864024080B582B0CE
:1024000000AF00237B60124B5B6C114A43F48043A6
:1024100053640F4B5B6C03F480437B607B68002349
:102420003B600B4B1B6C0A4A43F080531364084B10
:102430001B6C03F080533B603B6800220F216FF060
:10244000010003F011FD00BF0837BD4680BD00BF8D
:102450000038024080B58EB000AF78600023FB6288
:102460000023BB620023FB60334B1B6C324A43F0FA
:1024700004031364304B1B6C03F00403FB60FB6824
:1024800007F1100207F114031146184605F0CCFCC1
:102490003B6AFB62FB6A002B03D105F09DFC78636D
:1024A00004E005F099FC03465B007B637B6B234AE9
:1024B000A2FB03239B0C013BBB62214B214A1A6008
:1024C0001F4B40F2E732DA601D4ABB6A53601C4B77
:1024D00000221A611A4B00229A60194B00229A615D
:1024E000174807F0CDFF034687F8333097F83330AD
:1024F000002B1BD1124808F07BF8034687F83330D5
:1025000097F83330002B11D11E2003F0C9FC7B68F3
:102510000F2B08D8002279681E2003F0A5FC0A4A78
:102520007B68136002E0012387F8333097F833307B
:1025300018463837BD4680BD0038024083DE1B4355
:1025400074040020000800400800002080B400AFA0
:1025500000BFFDE780B400AF00BFFDE780B400AF6F
:1025600000BFFDE780B400AF00BFFDE780B400AF5F
:1025700000BFFDE780B400AF00BFBD465DF8047B3F
:102580007047000080B500AF064B1B78002B03D1CD
:10259000054808F09DF804E0034808F0C8F801F089
:1025A000A1FE80BD934600200805002080B500AF45
:1025B000024808F0BCF800BF80BD00BF74040020D2
:1025C00080B500AF024808F077FE00BF80BD00BFB5
:1025D0005005002080B500AF024808F06DFE00BF36
:1025E00080BD00BF9805002080B500AF024806F00E
:1025F00013FE00BF80BD00BF7802002080B500AF91
:10260000024803F0F3FD00BF80BD00BFE0050020DD
:1026100080B500AF024803F0E9FD00BF80BD00BFF8
:10262000FC02002080B500AF024803F0DFFD00BFD0
:1026300080BD00BF1404002080B500AF024803F045
:10264000D5FD00BF80BD00BF5C03002080B400AF9B
:1026500001231846BD465DF8047B704780B582B003
:1026600000AF7860396014F039FA034616221A6018
:102670004FF0FF3318460837BD4680BD80B582B0A5
:1026800000AF78604FF0FF317868FFF7E7FF00BFD9
:10269000FDE780B586B000AFF860B9607A600023CE
:1026A0007B610AE0FFF752F90146BB685A1CBA6029
:1026B000CAB21A707B6901337B617A697B689A427E
:1026C000F0DB7B6818461837BD4680BD80B586B004
:1026D00000AFF860B9607A6000237B6109E0BB68F5
:1026E0005A1CBA601B781846FFF71EF97B69013344
:1026F0007B617A697B689A42F1DB7B681846183700
:10270000BD4680BD80B483B000AF78604FF0FF332A
:1027100018460C37BD465DF8047B704780B483B023
:1027200000AF786039603B684FF400525A60002374
:1027300018460C37BD465DF8047B704780B483B003
:1027400000AF7860012318460C37BD465DF8047B66
:10275000704780B485B000AFF860B9607A6000233C
:1027600018461437BD465DF8047B704780B586B0C7
:1027700000AF7860144A154BD31A7B617B693B61CB
:10278000134B1B68002B02D1114B124A1A60104BDD
:102790001A687B6813443A699A4207D214F09EF98A
:1027A00003460C221A604FF0FF3309E0084B1B6808
:1027B000FB60074B1A687B681344054A1360FB688B
:1027C00018461837BD4680BD0000042000040000F4
:1027D000BC04002048DA002080B400AF064BD3F8D8
:1027E0008830054A43F47003C2F8883000BFBD4604
:1027F0005DF8047B704700BF00ED00E080B586B057
:1028000000AF07F1080300221A605A609A60DA608C
:102810003B4600221A605A601D4B4FF080421A60FE
:102820001B4B5F225A601A4B00229A60184B4FF0E4
:10283000FF32DA60164B00221A61154B00229A61B2
:10284000134807F01DFE0346002B01D0FFF7B2F836
:102850004FF48053BB6007F1080319460C4808F099
:1028600056F80346002B01D0FFF7A4F800233B6085
:1028700000237B603B461946054808F077FA03467B
:10288000002B01D0FFF796F800BF1837BD4680BD7A
:10289000C004002080B586B000AF07F10803002215
:1028A0001A605A609A60DA603B4600221A605A60E9
:1028B0001D4B1E4A1A601C4B07225A601A4B0022FD
:1028C0009A60194B40F2E732DA60174B00221A6126
:1028D000154B00229A61144807F0D2FD0346002BE5
:1028E00001D0FFF767F84FF48053BB6007F108038E
:1028F00019460D4808F00BF80346002B01D0FFF7EE
:1029000059F800233B6000237B603B46194606488C
:1029100008F02CFA0346002B01D0FFF74BF800BF5C
:102920001837BD4680BD00BF0805002000040040E8
:1029300080B584B000AF78607B681B68B3F1804FCE
:102940000ED10023FB60164B1B6C154A43F00103AC
:102950001364134B1B6C03F00103FB60FB681AE06C
:102960007B681B680F4A934215D10023BB600C4B58
:102970001B6C0B4A43F002031364094B1B6C03F0FE
:102980000203BB60BB68002205211D2003F06CFA26
:102990001D2003F085FA00BF1037BD4680BD00BF83
:1029A000003802400004004080B500AF114B124ACD
:1029B0001A60104B4FF4E1325A600E4B00229A60BD
:1029C0000C4B0022DA600B4B00221A61094B0C22DF
:1029D0005A61084B00229A61064B0022DA610548D1
:1029E00008F054FA0346002B01D0FEF7E3FF00BFC6
:1029F00080BD00BF500500200010014080B500AF31
:102A0000114B124A1A60104B4FF416525A600E4B7B
:102A100000229A600C4B0022DA600B4B00221A61F4
:102A2000094B0C225A61084B00229A61064B002286
:102A3000DA61054808F02AFA0346002B01D0FEF7B8
:102A4000B9FF00BF80BD00BF9805002000440040D2
:102A500080B58CB000AF786007F11C0300221A60CB
:102A60005A609A60DA601A617B681B68524A934226
:102A700065D10023BB61514B5B6C504A43F010039E
:102A800053644E4B5B6C03F01003BB61BB690023C6
:102A90007B614A4B1B6B494A43F001031363474B6D
:102AA0001B6B03F001037B617B694FF40443FB6103
:102AB00002233B6200237B620323BB620723FB628A
:102AC00007F11C0319463E4803F006FE3D4B3E4A03
:102AD0001A603C4B4FF000625A603A4B00229A60F9
:102AE000384B0022DA60374B4FF480621A61354B65
:102AF00000225A61334B00229A61324B4FF48072AC
:102B0000DA61304B4FF400321A622E4B00225A62C7
:102B10002C4803F0D3F90346002B01D0FEF74AFFFF
:102B20007B68284ADA63274A7B6893630022012185
:102B3000252003F099F9252003F0B2F938E07B68ED
:102B40001B68224A934233D100233B611B4B1B6C11
:102B50001A4A43F400331364184B1B6C03F400331C
:102B60003B613B690023FB60144B1B6B134A43F032
:102B700001031363114B1B6B03F00103FB60FB6844
:102B80000C23FB6102233B6200237B620323BB62B5
:102B90000723FB6207F11C031946094803F09CFD5B
:102BA00000220221262003F05FF9262003F078F9A5
:102BB00000BF3037BD4680BD0010014000380240E4
:102BC00000000240E0050020406402400044004054
:102BD00080B500AF4FF480520249034808F0C8FAAC
:102BE00000BF80BD400600205005002080B5A0B089
:102BF00000AFA14B1B685B68C3F58053FB669F4B1E
:102C00001B68FA6E9A4205D39C4B1B68FA6ED31A66
:102C1000FB6727E1994B1B68FA6ED31A03F58053C3
:102C2000FB671FE1954B1B68954AD35C87F86B30B7
:102C3000924B1B680133C3F30B03904A1360FB6F85
:102C4000013BFB678F4B1B6801338E4A13608E4B31
:102C50001B78DBB219468D4A97F86B3053548A4B78
:102C60001B78DBB25A1C8A4B83FB0231D317C91A7B
:102C70000B465B000B44D11ACAB2834B1A70012376
:102C800087F87B3000237B673DE07F4B1B78DBB20E
:102C90001A467B6FD31A9A1C7D4B83FB0231D317E4
:102CA000C91A0B465B000B44D31A7B667B6F002B63
:102CB0000AD1764A7B6E13441B78DBB2FF2B03D01C
:102CC000002387F87B3021E07B6F012B0AD16F4A0C
:102CD0007B6E13441B78DBB2FF2B03D0002387F8F5
:102CE0007B3013E07B6F022B0AD1684A7B6E134462
:102CF0001B78DBB2FF2B03D0002387F87B3005E085
:102D00007B6F01337B677B6F022BBEDD97F87B30D7
:102D1000002B57D15F4B1B78DBB21A465E4B53F842
:102D20002230B3F5805F2BD35A4B1B78DBB21A46A7
:102D30005A4B01219954574B1B78DBB20133002BBE
:102D400003F00103B8BF5B42DAB2524B1A70514B29
:102D50001B78DBB21946504B002243F821204D4B23
:102D60001B78DBB21A464D4B00219954494B1B7816
:102D7000DBB21A46484B53F82230B3F5805F70D26D
:102D8000444B1B78DBB21A46424B1B78DBB2194628
:102D9000414B53F82130424912030A44134497F837
:102DA0006B201A703B4B1B78DBB23B4A52F8232056
:102DB0000132394941F823203A4B1B680133394A23
:102DC00013604FE0384B01221A70384B00221A7002
:102DD000344B1B68012B10D92E4B1B78DAB21146ED
:102DE0002D4B53F821301146023B2B4A42F821303B
:102DF0002C4B1B68023B2B4A1360264B1B78DBB223
:102E00001A46264B012199541E4B1A683B46284905
:102E1000184613F097FC3B461846FDF749FA03465F
:102E20009AB239466423234808F080F81D4B0022EB
:102E30001A60214B00221A6000233B6707E0134A07
:102E40003B6F134400221A703B6F01333B673B6FAB
:102E5000022BF4DD0C4B00221A70164808F0ADF975
:102E600005E000BFFB6F002B7FF4DCAE00BF00BFAE
:102E70008037BD4680BD00BFE00500204026002011
:102E800040060020544600205346002050460020B3
:102E9000565555554E460020444600204C460020CD
:102EA00044260020584600204F460020F90100200B
:102EB0006C960108500500205C46002080B483B069
:102EC00000AF786000BF0C37BD465DF8047B7047EB
:102ED00080B483B000AF786000BF0C37BD465DF8AA
:102EE000047B7047DFF834D0FFF776FC0C480D49BF
:102EF0000D4A002302E0D458C4500433C4188C4255
:102F0000F9D30A4A0A4C002301E013600432A242BA
:102F1000FBD313F0E9FDFEF7F5FB7047000004203A
:102F200000000020DC01002000510408DC0100202A
:102F300044DA0020FEE780B584B000AF78607B689B
:102F4000FB60F86800F096F87B6818461037BD46BD
:102F500080BD80B582B000AF78607B68184600F015
:102F600012F87B6818460837BD4680BD80B582B030
:102F700000AF78607B681846FFF7EBFF7B68184668
:102F80000837BD4680BD80B584B000AF78607B68EF
:102F9000FB60FB68BB607B68184600F057F87B68F5
:102FA00018461037BD4680BD80B582B000AF78604E
:102FB0007B6819687B689A687B681B68D31A9B10CA
:102FC000074A02FB03F31A46786800F05EF87B6854
:102FD0001846FFF7B0FF7B6818460837BD4680BD2E
:102FE000ABAAAAAAB0B586B000AF78607B681D68AE
:102FF0007B685C687B68184600F060F803467D617A
:103000003C61FB603969786900F063F800BF7B6858
:103010001846FFF7C9FF7B6818461837BD46B0BD94
:1030200080B483B000AF78607B685A687B681B68A7
:10303000D31A9B10044A02FB03F318460C37BD4613
:103040005DF8047B704700BFABAAAAAA80B483B026
:1030500000AF78607B6800221A607B6800225A60AB
:103060007B6800229A607B6818460C37BD465DF885
:10307000047B704780B483B000AF78607B681846EB
:103080000C37BD465DF8047B704780B588B000AF53
:10309000F860B9607A60BB68002B0BD0FB68FB61FD
:1030A000BB68BB617B687B617A69B969F86900F0CC
:1030B0001DF800BF00BF2037BD4680BD80B483B07F
:1030C00000AF78607B6818460C37BD465DF8047B1E
:1030D000704780B582B000AF786039603968786831
:1030E00000F017F800BF0837BD4680BD80B584B03A
:1030F00000AFF860B9607A607A6813465B001344E9
:103100009B001946B86811F0E7F800BF1037BD46BC
:1031100080BD80B483B000AF7860396000BF0C37E9
:10312000BD465DF8047B704780B483B000AF786023
:1031300039603B6818460C37BD465DF8047B704724
:1031400080B588B000AF87ED030AC7ED020A87EDAE
:10315000011AFB687B61BB68BB617B68FB6107F19F
:1031600014031946034800F033FA00BF2037BD4668
:1031700080BD00BF6046002080B582B000AF78609F
:103180009FED9E1ADFED9E0A9FED9E0AFFF7D8FF86
:103190009FED9D1ADFED9D0A9FED9D0AFFF7D0FF81
:1031A0009FED9C1ADFED9C0A9FED9C0AFFF7C8FF7C
:1031B0009FED9B1ADFED9B0A9FED9B0AFFF7C0FF77
:1031C0009FED9A1ADFED9A0A9FED9A0AFFF7B8FF72
:1031D0009FED991ADFED990A9FED990AFFF7B0FF6D
:1031E0009FED981ADFED980A9FED980AFFF7A8FF68
:1031F0009FED971ADFED970A9FED970AFFF7A0FF63
:103200009FED961ADFED960A9FED960AFFF798FF5D
:103210009FED951ADFED950A9FED950AFFF790FF58
:103220009FED941ADFED940A9FED940AFFF788FF53
:103230009FED931ADFED930A9FED930AFFF780FF4E
:103240009FED921ADFED920A9FED920AFFF778FF49
:103250009FED911ADFED910A9FED910AFFF770FF44
:103260009FED901ADFED900A9FED900AFFF768FF3F
:103270009FED8F1ADFED8F0A9FED8F0AFFF760FF3A
:103280009FED8E1ADFED8E0A9FED8E0AFFF758FF35
:103290009FED8D1ADFED8D0A9FED8D0AFFF750FF30
:1032A0009FED8C1ADFED8C0A9FED8C0AFFF748FF2B
:1032B0009FED8B1ADFED8B0A9FED8B0AFFF740FF26
:1032C0009FED8A1ADFED8A0A9FED8A0AFFF738FF21
:1032D0009FED891ADFED890A9FED890AFFF730FF1C
:1032E0009FED881ADFED880A9FED880AFFF728FF17
:1032F0009FED871ADFED870A9FED870AFFF720FF12
:103300009FED861ADFED860A9FED860AFFF718FF0C
:103310009FED851ADFED850A9FED850AFFF710FF07
:103320009FED841ADFED840A9FED840AFFF708FF02
:103330009FED831ADFED830A9FED830AFFF700FFFD
:103340009FED821ADFED820A9FED820AFFF7F8FEF9
:103350009FED811ADFED810A9FED810AFFF7F0FEF4
:103360009FED801ADFED800A9FED800AFFF7E8FEEF
:103370009FED7F1ADFED7F0A9FED7F0AFFF7E0FEEA
:103380009FED7E1ADFED7E0A9FED7E0AFFF7D8FEE5
:103390009FED7D1ADFED7D0A9FED7D0AFFF7D0FEE0
:1033A0009FED7C1ADFED7C0A9FED7C0AFFF7C8FEDB
:1033B0009FED7B1ADFED7B0A9FED7B0AFFF7C0FED6
:1033C0009FED7A1ADFED7A0A9FED7A0AFFF7B8FED1
:1033D0009FED791ADFED790A9FED790AFFF7B0FECC
:1033E0009FED781ADFED780A9FED780AFFF7A8FEC7
:1033F0007B6818460837BD4680BD00BF583910416C
:103400006688E2427E79B941B29D2141FB88E24261
:103410004178B9417D3F31414189E242B577B941B7
:103420007B144841DE89E2426576B9417F6A8B416F
:10343000DB8AE2428F74B941D7A397415E8BE242A7
:10344000BD74B941A8C68E41718BE2427876B9410C
:10345000D5788141428BE242CA77B94146B68A416A
:103460006E8BE2420C79B9418FC28A41AB8BE2424A
:10347000AF79B94121B09241D38BE2422C7AB94164
:1034800091EDB641168CE242617AB941355EC54193
:10349000578CE242E179B941F628C141658CE2429C
:1034A000017AB9413BDFCD41468CE242FB79B9411B
:1034B00004569F41288CE2426578B9419A999F4110
:1034C000048CE2428E76B9412FDDAE41D68BE242CA
:1034D0002574B9415A64E541F08BE2426073B94109
:1034E0000000A741FF8BE2422072B941C14A11425C
:1034F0000A8CE2424371B941DB791142FD8BE24211
:103500003670B94177BEED41158CE2427C6FB9410E
:1035100089C114424C8CE242806FB94148E10942B2
:10352000818CE242D46FB941E9260542C38CE24264
:103530004470B9414EE20142FA8CE2428770B941CF
:10354000DBF9DA41198DE242D16FB9414A0CBF4132
:10355000CE8CE242846EB941A245BF41BF8CE242AB
:10356000A26DB94139B4CA41CD8CE2420C6CB9416B
:1035700008AC0142E38CE242006CB9416ABC4C42A7
:10358000FF8CE242F36CB941E73B88423D8DE24259
:10359000016DB9415CCFA742718DE242466DB941E0
:1035A000EE3CB342BD8DE242EF6DB941504DBF429A
:1035B000178EE242166DB941F4FDC3427F8EE2429E
:1035C000286DB941CD6C0343028FE242796DB94158
:1035D00090B589B000AF786039607B685A687B68C5
:1035E0009B689A4226D07A687B685B68FA61BB6107
:1035F0003B687B61786900F035F90246FB693B6105
:10360000BB69FB60BA60FB6819460C20FFF78CFDB4
:103610000446B86800F026F90246234607CA83E844
:10362000070000BF00BF7B685B6803F10C027B688A
:103630005A6008E0786800F00AF803463A681946CC
:10364000786800F02BF800BF2437BD4690BD80B5E8
:1036500084B000AF78607B681A1D07F10C03114637
:10366000184600F00AF9FB6818461037BD4680BDC1
:1036700080B582B000AF184600F005F80346184642
:103680000837BD4680BD80B483B000AF38710123D8
:1036900018460C37BD465DF8047B7047B0B594B052
:1036A00000AFF860B9607A606C4A0121F86800F0F8
:1036B000F4F8B864FB681B687B64FB685B683B6478
:1036C000F86800F031F903463B6107F1100207F199
:1036D00008031146184600F037F90346FB63FB6800
:1036E000B96C184600F04AF9B863BB6BFB64FD681F
:1036F000FA6B13465B0013449B001A46BB6B9C1885
:10370000786800F0AFF803467D633C63FB62F86ABB
:1037100000F0A8F802467B6BBB623B6B7B623A62AF
:103720007B6A19460C20FFF7FFFC0446386A00F05C
:1037300099F80246234607CA83E8070000BF00BF86
:103740000023FB64FFF794FF0346002B27D007F10B
:103750000803184600F03FF903461C68FB6818464A
:10376000FFF7ACFC0346BA6B2146786C00F01FF9FA
:10377000F864FB6C0C33FB6407F10803184600F097
:103780002AF903461C68FB681846FFF797FC0346B6
:10379000FA6C396C204600F00AF9F86426E007F16B
:1037A0000803184600F017F903461C68FB68184622
:1037B000FFF784FC0346BA6B2146786C00F016F9DB
:1037C000F864FB6C0C33FB6407F10803184600F047
:1037D00002F903461C68FB681846FFF76FFC0346B6
:1037E000FA6C396C204600F001F9F864FFF740FFED
:1037F000034683F00103DBB2002B0ED0FB681846B2
:10380000FFF75CFC02467B6CFB613B6CBB617A6141
:10381000B969F869FFF75DFC00BFF868FB689A6852
:103820007B6CD31A9B100E4A02FB03F31A46796C89
:10383000FFF72BFCFB68BA6B1A60FB68FA6C5A60E6
:10384000BA6C13465B0013449B001A46BB6B1A44C8
:10385000FB689A6000BF5037BD46B0BDF8960108BE
:10386000ABAAAAAA80B483B000AF78607B68184680
:103870000C37BD465DF8047B704780B483B000AF61
:10388000786039603B681A687B681A607B68184604
:103890000C37BD465DF8047B704790B587B000AF2C
:1038A000F860B9607A60F86800F0CDF80446F8680E
:1038B000FFF7B6FB0346E21ABB689A4234BF012306
:1038C0000023DBB2002B02D0786810F01EFDF868F0
:1038D000FFF7A6FB0446F868FFF7A2FB03463B612F
:1038E00007F1080207F110031146184600F0BCF872
:1038F00003461B6823447B61F868FFF791FB02468F
:103900007B69934206D3F86800F09DF802467B6914
:10391000934204D9F86800F096F8034600E07B690A
:1039200018461C37BD4690BD80B584B000AF7860A6
:103930007A6807F10C0311461846FFF79EFFFB68F3
:1039400018461037BD4680BD90B583B000AF786093
:103950003960786800F03FF803461C68386800F06A
:103960003AF803461B68E31A9B10034A02FB03F371
:1039700018460C37BD4690BDABAAAAAA80B584B044
:1039800000AF786039603B68002B0BD07B68FB6030
:103990003B68BB600022B968F86800F0D7F80346BE
:1039A00000BF00E0002318461037BD4680BD90B52B
:1039B00087B002AFF860B9607A603B608DF8004074
:1039C0003B687A68B968F86800F062F80346184600
:1039D0001437BD4690BD80B483B000AF78607B687B
:1039E00018460C37BD465DF8047B704790B585B02E
:1039F00000AFF860B9607A603B60F86800F05AF890
:103A00000446B86800F056F801463B687A682046DC
:103A100000F05FF8034618461437BD4690BD80B4E9
:103A200083B000AF786039603B681A687B681B68B8
:103A30009A4201D23B6800E07B6818460C37BD46CD
:103A40005DF8047B704780B582B000AF78607B681A
:103A5000184600F06FF80346184600F04BF803468E
:103A600018460837BD4680BD80B483B000AF78608B
:103A700039607B681A683B681B689A4201D23B68D0
:103A800000E07B6818460C37BD465DF8047B704744
:103A900080B584B000AFF860B9607A603B603B6885
:103AA0007A68B968F86800F081F80346184610375C
:103AB000BD4680BD80B584B000AF786007F10C03CF
:103AC0007968184600F08FF8FB6818461037BD4635
:103AD00080BD80B584B000AFF860B9607A603B60AB
:103AE0007A68B968F86800F090F80346184610370D
:103AF000BD4680BD80B588B000AF78600C4B3B619F
:103B00007B68FB61FB69BB61BB697B61084B00BFE4
:103B100000BFFB6007F10C0207F1100311461846C5
:103B2000FFF77DFF03461B6818462037BD4680BD62
:103B3000AAAAAA0A80B483B000AF78607B6818464E
:103B40000C37BD465DF8047B7047000080B586B039
:103B500000AFF860B9607A60FB687B61114ABB68AE
:103B600093428CBF01230023DBB2002B14BF01233F
:103B70000023DBB2002B07D0BB680B4A934201D96C
:103B800010F0C0FB10F0BBFBBA6813465B00134497
:103B90009B00184610F0A2FB034618461837BD4696
:103BA00080BD00BFAAAAAA0A55555515B0B584B064
:103BB00000AFF860B9607A603B60F86800F039F8EF
:103BC0000446B86800F035F80546786800F031F82A
:103BD00002463B682946204600F036F80346184660
:103BE0001037BD46B0BD80B582B000AF7860396097
:103BF0003B46184600F052F803461A687B681A6084
:103C00007B6818460837BD4680BD80B586B000AFDA
:103C1000F860B9607A600123FB750123BB757A688F
:103C2000B968F86800F045F8034618461837BD46ED
:103C300080BD80B483B000AF78607B6818460C37D5
:103C4000BD465DF8047B704780B586B000AFF86074
:103C5000B9607A603B60BA68FB68D31A9B100E4A61
:103C600002FB03F37B617B69002B09DD7A69134654
:103C70005B0013449B001A46F968786812F05CFEFA
:103C80007A6913465B0013449B001A467B68134411
:103C900018461837BD4680BDABAAAAAA80B483B027
:103CA00000AF78607B6818460C37BD465DF8047B32
:103CB000704780B584B000AFF860B9607A607A6808
:103CC000B968F86800F005F8034618461037BD4695
:103CD00080BD90B585B000AFF860B9607A60F868D3
:103CE00000F00FF80446B86800F00BF803467A6855
:103CF0001946204600F016F8034618461437BD460C
:103D000090BD80B582B000AF78603B1D184600F0D2
:103D10002CF80346184600F034F8034618460837D6
:103D2000BD4680BDB0B584B000AFF860B9607A60C0
:103D3000F868FFF77EFF0446B868FFF77AFF05468C
:103D40007B681846FFF775FF03461A46294620464A
:103D500000F022F802463B1D1146184600F02CF8F0
:103D6000034618461037BD46B0BD80B483B000AFDF
:103D700078607B681B6818460C37BD465DF8047B8D
:103D8000704780B483B000AF78607B6818460C370A
:103D9000BD465DF8047B704780B584B000AFF86025
:103DA000B9607A607A68B968F86800F011F803467B
:103DB00018461037BD4680BD80B483B000AF786030
:103DC00039603B6818460C37BD465DF8047B704788
:103DD00080B584B000AFF860B9607A607A68B9687D
:103DE000F86800F005F8034618461037BD4680BD58
:103DF00080B586B000AFF860B9607A60BA68FB68D9
:103E0000D31A9B10144A02FB03F37B617B69012BDD
:103E1000CCBF01230023DBB2002B0AD07A69134602
:103E20005B0013449B001A46F968786812F084FD21
:103E300006E07B69012B03D1F968786800F00EF881
:103E40007A6913465B0013449B001A467B6813444F
:103E500018461837BD4680BDABAAAAAA80B582B065
:103E600000AF78603960386800F009F802467B6876
:103E700007CA83E8070000BF0837BD4680BD80B48D
:103E800083B000AF78607B6818460C37BD465DF89C
:103E9000047B704780B500AF0348FFF767F803481D
:103EA000FFF76AF900BF80BD604600206C46002025
:103EB00080B500AF0248FFF795F800BF80BD00BF96
:103EC0006046002080B500AFFFF7E4FF80BD80B5FD
:103ED00000AFFFF7EDFF80BD80B584B000AF786024
:103EE0007B68FB60F86800F098F87B68184610372C
:103EF000BD4680BD80B582B000AF78607B68184653
:103F000000F02FF87B6818460837BD4680BD80B5A5
:103F100082B000AF78607B681846FFF7EBFF7B68E4
:103F200018460837BD4680BD80B582B000AF7860C6
:103F30007B681846FFF7EBFF7B680022DA607B683E
:103F400018460837BD4680BD80B582B000AF7860A6
:103F50007B68184600F02FF87B6818460837BD4686
:103F600080BD80B584B000AF78607B68FB60FB6883
:103F7000BB607B68184600F03CF87B681846103739
:103F8000BD4680BD80B582B000AF78607B6819689F
:103F90007B689A687B681B68D31ADB101A467868BE
:103FA00000F046F87B681846FFF796FF7B681846D6
:103FB0000837BD4680BDB0B586B000AF78607B687D
:103FC0001D687B685C687B68184600F04AF8034609
:103FD0007D613C61FB603969786900F04DF800BF94
:103FE0007B681846FFF7CEFF7B6818461837BD463A
:103FF000B0BD80B483B000AF78607B6800221A60E7
:104000007B6800225A607B6800229A607B681846B1
:104010000C37BD465DF8047B704780B483B000AFB9
:1040200078607B6818460C37BD465DF8047B7047A6
:1040300080B588B000AFF860B9607A60BB68002BCB
:104040000BD0FB68FB61BB68BB617B687B617A69F5
:10405000B969F86900F01DF800BF00BF2037BD4600
:1040600080BD80B483B000AF78607B6818460C37A1
:10407000BD465DF8047B704780B582B000AF7860C4
:1040800039603968786800F014F800BF0837BD4619
:1040900080BD80B584B000AFF860B9607A607B689D
:1040A000DB001946B86810F017F900BF1037BD469D
:1040B00080BD80B483B000AF7860396000BF0C373A
:1040C000BD465DF8047B704780B500AF0348FFF73D
:1040D0002BFF0348FFF728FF00BF80BD704600207C
:1040E0008046002080B500AF0348FFF72DFF03484E
:1040F000FFF72AFF00BF80BD8046002070460020E9
:1041000080B500AFFFF7E0FF80BD80B500AFFFF7DF
:10411000E9FF80BD80B500AF00F01CF803461A46E9
:10412000084B1A7000F022F803461A46064B1A7024
:10413000064B00221A70064B00221A700023184604
:1041400080BD00BF04000020050000209046002034
:104150009146002080B500AF4FF48041024802F044
:104160002FFC0346184680BD0004024080B500AF16
:104170004FF40051024802F023FC0346184680BD6C
:104180000004024080B483B000AF064B1B78FB7183
:10419000044B00221A70FB7918460C37BD465DF8B7
:1041A000047B70479046002080B483B000AF064B7C
:1041B0001B78FB71044B00221A70FB7918460C37F0
:1041C000BD465DF8047B70479146002080B582B003
:1041D00000AFFFF7BFFF0346FB71FFF7C7FF0346C2
:1041E000BB710F4B1B78002B05D1FB79012B02D142
:1041F0000C4B01221A700C4B1B78002B05D1BB799C
:10420000012B02D1094B01221A70054AFB79137068
:10421000054ABB79137000BF0837BD4680BD00BF9B
:104220000400002090460020050000209146002058
:1042300080B588B000AF3B1D002219461C4804F031
:1042400092FB0346002B2DD13B460022194618480D
:1042500004F06BFCFB7814331BB25B021AB27B7860
:104260001BB25B011BB213431AB2BB781BB21343E0
:104270001BB2FB833B791BB2DB021AB27B791BB208
:104280005B011BB213431AB2BB795B08DBB21BB2F2
:1042900013431BB2BB83FB8B1A04BB8B1343BB6161
:1042A000BB6900E0002318462037BD4680BD00BF33
:1042B0005802002080B500AF00228021064802F09D
:1042C00097FB064B00221A70054B00221A70FEF76E
:1042D000E1FA00BF80BD00BF00040240924600200A
:1042E0009346002080B500AF0F4B1B78002B19D0F0
:1042F0000E4B1B78002B05D0002280210C4802F0C9
:1043000077FB04E001228021094802F071FB074B92
:104310001B78002B0CBF01230023DBB21A46034B92
:104320001A7000E000BF80BD934600209246002036
:104330000004024080B500AF074806F0C9F900222A
:104340008021064802F054FB054B00221A70054BF1
:1043500000221A7000BF80BD080500200004024042
:10436000924600209346002080B483B000AF78606E
:104370007B681B781A467B6801331B781B021A4343
:104380007B6802331B781B041A437B6803331B785A
:104390001B06134318460C37BD465DF8047B704777
:1043A00080B483B000AF78607B681B781A467B6866
:1043B00001331B781B021A437B6802331B781B04F2
:1043C0001A437B6803331B781B06134318460C37CC
:1043D000BD465DF8047B704780B483B000AF786061
:1043E00039603B68DAB27B681A703B681A127B68E6
:1043F0000133D2B21A703B681A147B680233D2B20E
:104400001A703B681A0E7B680333D2B21A7000BF71
:104410000C37BD465DF8047B704780B489B000AFAF
:10442000786039600023FB610023FB7600237B6109
:1044300000233B613B697A6813441B78FB733B693B
:10444000002B05D1FB7B9B11DBB203F00103FB7654
:104450003B69002B04D1FB7B03F03F03DBB203E09D
:10446000FB7B03F07F03DBB2BB73BA7B7B6902FA91
:1044700003F3FA691343FB613B69002B01D1062367
:1044800000E007237A6913447B613B6901333B6198
:1044900097F90F30002B03DA3B69052B02DCC9E7E3
:1044A00000BF00E000BF3B683A691A60FB7E002B4A
:1044B00002D0FB695B4200E0FB6918462437BD4629
:1044C0005DF8047B704780B586B000AFF860B960D6
:1044D0007A6007F110037A68B968F8680BF0CCFBD2
:1044E0000346FB75FB7D002B03D13B697A689A423A
:1044F00002D04FF0FF3300E0002318461837BD46C6
:1045000080BD80B588B000AFF860B9607A603B606C
:104510003B68BB610023FB612BE0BA69FB691A446D
:104520007B681B68581C79680860B9680B4412786E
:104530001A707B681B68B3F5005F17D37B681A6835
:1045400007F11003B968F8680BF004FD0346FB752A
:10455000FB7D002B04D17B681A683B699A4202D02C
:104560004FF0FF330AE07B6800221A60FB690133D9
:10457000FB61FA69BB6A9A42CFD300231846203701
:10458000BD4680BD80B586B000AFF860B9607A6086
:104590007B681B68002B17D07B681A6807F1100333
:1045A000B968F8680BF0D6FC0346FB75FB7D002B61
:1045B00004D17B681A683B699A4202D04FF0FF33FE
:1045C00003E07B6800221A60002318461837BD46B6
:1045D00080BD0000B0B5ADF5FF6D08AF07F5FB631A
:1045E000A3F2D473186007F5FB63A3F5FB631960AE
:1045F0000023C7F8AC370023C7F8A8374FF0FF33C4
:10460000C7F8D43707F5FB63A3F2D47307F24C5015
:10461000012219680BF05AF9034687F8A73797F873
:10462000A737002B18D097F8A72707F15C03C549D7
:10463000184612F087F807F15C031846FBF738FEBE
:1046400003469AB207F15C016423BF4806F06EFC92
:104650004FF0FF3300F03DBC07F5FB63A3F5237378
:10466000DB68C7F8A03707F52E73D7F8A027B7493E
:10467000184612F067F807F52E731846FBF718FE78
:1046800003469AB207F52E716423AF4806F04EFC3C
:104690004FF4805010F0DCF90346C7F8AC374FF404
:1046A000005010F0D5F90346C7F8A837D7F8AC3753
:1046B000002B03D0D7F8A837002B1AD107F5FB63DE
:1046C000A3F22C63A24A1C4615460FCD0FC495E8F1
:1046D000070084E8070007F5D6731846FBF7E8FDE6
:1046E00003469AB207F5D6716423974806F01EFC7C
:1046F000D8E307F5FB63A3F5FB6307F547700A22D0
:1047000019680BF0E3F8034687F8A73797F8A7373F
:10471000002B15D097F8A72707F15C038D491846A1
:1047200012F010F807F15C031846FBF7C1FD0346D1
:104730009AB207F15C016423834806F0F7FBB1E30A
:1047400007F52D7107F24C5304221846FFF7BBFE04
:104750000346002B1FD007F5FB63A3F244637E4A98
:104760001C4615460FCD0FC495E8030084E80300EE
:1047700007F5CA731846FBF79BFD03469AB207F587
:10478000CA716423704806F0D1FB07F547731846D9
:104790000BF00DFE86E307F52D731846FFF7E4FDD9
:1047A000C7F89C0707F51973D7F89C276B4918467B
:1047B00011F0C8FF07F519731846FBF779FD03469A
:1047C0009AB207F5197164235F4806F0AFFB07F54D
:1047D000FB63A3F5AF6300221A6007F52D7307F59D
:1047E000187207F5477004210091D7F8A817FFF752
:1047F00088FE0346002B1FD007F5FB63A3F5CC63AF
:10480000574A1C4615460FCD0FC495E8070003C450
:10481000227007F5BC731846FBF74AFD03469AB2AF
:1048200007F5BC716423484806F080FB07F5477321
:1048300018460BF0BCFD35E30023C7F8D037002342
:10484000C7F8CC37B8E207F5BA7107F24C53042227
:104850001846FFF738FE0346002B1BD0D7F8CC379D
:104860005A1C07F15C033F49184611F06BFF07F132
:104870005C031846FBF71CFD03469AB207F15C0186
:104880006423314806F052FB07F5477318460BF0D6
:104890008EFD07E307F5BA731846FFF765FDC7F805
:1048A0009407D7F8D027D7F894371344C7F8D037F0
:1048B000D7F8CC375A1C07F10C00D7F894372A499F
:1048C00011F040FF07F10C031846FBF7F1FC03461B
:1048D0009AB207F10C0164231B4806F027FB07F589
:1048E000BA7307F5187207F5477004210091D7F8DD
:1048F000A817FFF706FE0346002B39D007F5FB6328
:10490000A3F27C73194A1C4615460FCD0FC40FCD78
:104910000FC495E8030020600434218007F15C0394
:104920001846FBF7C5FC03469AB207F15C01642305
:10493000054806F0FBFA07F5477318460BF037FDFC
:10494000B0E200BF14970108500500203C97010811
:104950002C99010878970108489901089C9701084B
:1049600060990108B4970108E09701087C99010853
:10497000D7F89437002B00F0198207F5B47107F2CD
:104980004C530C221846FFF79EFD0346002B1FD008
:1049900007F5FB63A3F5D263B54A1C4615460FCD58
:1049A0000FC495E80F0007C4237007F5A4731846D9
:1049B000FBF77EFC03469AB207F5A4716423AD4869
:1049C00006F0B4FA07F5477318460BF0F0FC69E2FD
:1049D00007F5B4731846FFF7E3FCC7F8C80707F5F7
:1049E000B47304331846FFF7DBFCC7F8C40707F5B8
:1049F000B47308331846FFF7D3FCC7F8C007D7F8DD
:104A0000CC37002B3DD1D7F8C83707EE903AF8EEF7
:104A1000E77A9FED997AC7EE876A16EE900AFBF760
:104A2000B3FD04460D46D7F8C43707EE903AF8EECA
:104A3000E77A9FED917AC7EE876A16EE900AFBF748
:104A4000A3FD02460B4607F15C00D7F8C01706919C
:104A5000CDE90423D7F8C4370293CDE90045D7F850
:104A6000C827864911F06EFE07F15C031846FBF774
:104A70001FFC03469AB207F15C0164237D4806F0EF
:104A800055FA07F5B47307F5187207F547700C214E
:104A90000091D7F8A817FFF734FD0346002B1FD06D
:104AA00007F5FB63A3F5D663754A1C4615460FCD83
:104AB0000FC495E80F0007C4238007F594731846C8
:104AC000FBF7F6FB03469AB207F594716423694835
:104AD00006F02CFA07F5477318460BF068FCE1E185
:104AE0000123C7F8BC3759E10023C7F8B83707F5E9
:104AF0009072D7F8B837D11807F24C5301221846F4
:104B0000FFF7E1FC0346002B1BD0D7F8BC375A1C3B
:104B100007F15C035B49184611F014FE07F15C03D2
:104B20001846FBF7C5FB03469AB207F15C01642304
:104B3000504806F0FBF907F5477318460BF037FCB1
:104B4000B0E1D7F8B8370133C7F8B837D7F8B83776
:104B5000013B07F5FB62A2F5D762D35C5BB2002B89
:104B600003DAD7F8B837052BC1DD07F58E7207F5E4
:104B7000907311461846FFF750FCC7F890070023C2
:104B8000C7F8B43707F59072D7F8B437D11807F2E1
:104B90004C5301221846FFF796FC0346002B1BD00E
:104BA000D7F8BC375A1C07F15C033749184611F097
:104BB000C9FD07F15C031846FBF77AFB03469AB27E
:104BC00007F15C0164232B4806F0B0F907F5477341
:104BD00018460BF0ECFB65E1D7F8B4370133C7F8A2
:104BE000B437D7F8B437013B07F5FB62A2F5D762BB
:104BF000D35C5BB2002B03DAD7F8B437052BC1DDE9
:104C000007F58E7207F5907311461846FFF705FCFD
:104C1000C7F88C070023C7F8B03707F59072D7F8AC
:104C2000B037D11807F24C5301221846FFF74BFC5E
:104C30000346002B2CD0D7F8BC375A1C07F15C0375
:104C40001249184611F07EFD07F15C031846FBF788
:104C50002FFB03469AB207F15C016423054806F076
:104C600065F907F5477318460BF0A1FB1AE100BF81
:104C7000A49901085005002000247449FC970108FC
:104C8000C4990108349801085C98010884980108C7
:104C9000D7F8B0370133C7F8B037D7F8B037013B92
:104CA00007F5FB62A2F5D762D35C5BB2002B03DA97
:104CB000D7F8B037052BB0DD07F58E7207F5907386
:104CC00011461846FFF7A9FBC7F88807D7F8C82789
:104CD000D7F890371344C7F88437D7F8C427D7F8E4
:104CE0008C371344C7F88037D7F8C027D7F88837F0
:104CF0001344C7F87C3707F58873D7F8841718462C
:104D0000FFF76AFB07F588730433D7F88017184656
:104D1000FFF762FB07F588730833D7F87C1718464E
:104D2000FFF75AFB07F5887307F5187207F5477008
:104D30000C210091D7F8A817FFF7E3FB0346002BDF
:104D40001BD0D7F8BC375A1C07F15C0363491846DF
:104D500011F0F8FC07F15C031846FBF7A9FA0346CB
:104D60009AB207F15C0164235D4806F0DFF807F5AD
:104D7000477318460BF01BFB94E0D7F88437C7F84D
:104D8000C837D7F88037C7F8C437D7F87C37C7F8A3
:104D9000C037D7F8BC370133C7F8BC37D7F8BC27C2
:104DA000D7F894379A42FFF49FAE00E000BFD7F8DF
:104DB000CC370133C7F8CC37D7F8CC27D7F89C3796
:104DC0009A42FFF440AD07F5187207F54773D7F81C
:104DD000A8171846FFF7D6FB0346002B1FD007F590
:104DE000FB63A3F2E4633F4A1C4615460FCD0FC494
:104DF00095E8070003C4227007F1F4031846FBF797
:104E000057FA03469AB207F1F4016423344806F0D6
:104E10008DF807F5477318460BF0C9FA42E007F51D
:104E2000477318460BF03AFA07F5FB63A3F2BC434D
:104E30009B69C7F8983707F5477318460BF0B7FA20
:104E4000D7F8A037642202FB03F307EE903AB8EEDE
:104E5000677AD7F8983707EE903AF8EE677AC7EE98
:104E6000276A16EE900AFBF78FFB02460B4607F502
:104E7000E470CDE90023D7F8D037D7F898271A493E
:104E800011F060FC07F5E4731846FBF711FA0346CE
:104E90009AB207F5E4716423114806F047F800233D
:104EA000C7F8D437D7F8AC37002B03D0D7F8AC0706
:104EB0000FF0D6FDD7F8A837002B03D0D7F8A807F6
:104EC0000FF0CEFD07F24C5318460BF070FAD7F8EE
:104ED000D437184607F5FB67BD46B0BDAC9801084E
:104EE00050050020E4990108C8980108B0B5ADF557
:104EF000007D02AF07F5FC73A3F5F673186007F5A4
:104F0000FC73A3F5F873196007F5FC73A3F5FA7346
:104F10001A600023C7F8F43110E0664AD7F8F4317C
:104F2000134400221A70644AD7F8F431002142F881
:104F30002310D7F8F4310133C7F8F431D7F8F4313E
:104F4000012BEADD5D4B00221A7007F5FC73A3F517
:104F5000F67307F5AE701A68594911F0F3FB07F5BF
:104F6000AE731846FBF7A4F903469AB207F5AE7183
:104F70006423544805F0DAFF07F5FC73A3F5F673D4
:104F80000A22196850480AF0A1FC034687F8F33159
:104F900097F8F32107F1F8034C49184611F0D2FBBA
:104FA00007F1F8031846FBF783F903469AB207F1B5
:104FB000F8016423434805F0B9FF97F8F331002B5B
:104FC00051D107F5FC73A3F5F8731B6801221A7021
:104FD00007F5FC73A3F5FA731B6801221A7007F535
:104FE000FC73A3F5F8731B681B78DBB21C4607F54E
:104FF000FC73A3F5FA731B681B78DBB2194607F53F
:10500000FC73A3F5F67207F1600000912346126865
:105010002F4911F097FB07F160031846FBF748F999
:1050200003469AB207F160016423264805F07EFF2B
:1050300007F5FC73A3F5F473264A184611464F236F
:105040001A4611F078FD07F110031846FBF730F906
:1050500003469AB207F1100164231A4805F066FF6F
:10506000FDF7B6FD1FE007F5FC73A3F5CC731A4AF4
:105070001C4615460FCD0FC40FCD0FC40FCD0FC466
:105080002B681A46228002341B0C237007F1600340
:105090001846FBF70DF903469AB207F16001642345
:1050A000084805F043FF97F8F331184607F5FC77F9
:1050B000BD46B0BD4C460020444600204F4600206F
:1050C000009A010850050020F4480020309A010899
:1050D000449A0108A09A0108F09A010880B5A2B08C
:1050E00000AF0346B9607A60FB73002387F887300E
:1050F000FDF77CFD0023C7F880305FE0344AD7F825
:10510000803013441B78DBB2002B52D0FB7BDBB228
:10511000002B4ED02F4AD7F8803052F82330FB674F
:10512000FB6F002B45D0D7F880301B032A4A991813
:1051300007F17803FA6F294800F0D4F9034687F89D
:10514000873097F88730002B1ED1BB681A68BB6F79
:105150001A44BB681A60BB681A687B681B68D31A5C
:10516000B3F5C82F03D9BB681A687B681A60184A60
:10517000D7F88030134400221A70164AD7F88030CE
:10518000002142F8231014E097F8872007F1140358
:105190001349184611F0D6FA07F114031846FBF725
:1051A00087F803469AB207F1140164230D4805F00D
:1051B000BDFED7F880300133C7F88030D7F8803093
:1051C000012B9BDD97F8873018468837BD4680BD98
:1051D0004C4600204446002044260020F44800208D
:1051E000249B010850050020B0B5ADF5067D00AF49
:1051F00007F50674A4F50374206007F50670A0F5A2
:105200000470016007F50671A1F505710A6007F5E4
:105210000672A2F5067213600023C7F814324DE03F
:105220008F4AD7F8143213441B78DBB2002B40D0DE
:105230008C4AD7F8143252F82330C7F80C32D7F81A
:105240000C32002B35D0D7F814321B03864A99183C
:1052500007F17403D7F80C2284480AF07BFE03465A
:1052600087F80B3297F80B32002B0CD17C4AD7F819
:105270001432134400221A707A4AD7F814320021EB
:1052800042F8231015E097F80B2207F11003784934
:10529000184611F057FA07F110031846FBF708F803
:1052A00003469AB207F110016423724805F03EFEEE
:1052B00008E0D7F814320133C7F81432D7F81432A3
:1052C000012BADDD07F50673A3F5047307F5D27066
:1052D0001A68694911F036FA07F5D2731846FAF7D9
:1052E000E7FF03469AB207F5D2716423614805F0DF
:1052F0001DFE5E480AF0D2FF5C480BF058F807F537
:105300000673A3F505731B6800221A7007F5067370
:10531000A3F5047307F50672A2F5037207F59670FC
:105320001B681268554911F00DFA07F59673184677
:10533000FAF7BEFF03469AB207F5967164234D480B
:1053400005F0F4FD07F50673A3F5047207F506737F
:10535000A3F503731168186800F0E2F8034687F8B4
:105360000B3297F80B32002B14D097F80B2207F171
:1053700010034349184611F0E5F907F110031846E8
:10538000FAF796FF03469AB207F1100164233948F1
:1053900005F0CCFD0023C7F8103210E0304AD7F8F2
:1053A0001032134400221A702E4AD7F8103200210E
:1053B00042F82310D7F810320133C7F81032D7F86B
:1053C0001032012BEADD2F4B00221A704FF47A7055
:1053D0000DF068F907F50673A3F505731B68002245
:1053E0001A7007F50673A3F5037307F194001A68A2
:1053F000254911F0A7F907F194031846FAF758FF69
:1054000003469AB207F1940164231A4805F08EFD11
:1054100007F50673A3F506731B6801221A7007F5DA
:105420000673A3F5D073194A1C4615460FCD0FC459
:1054300095E8070084E8070007F178031846FAF7B3
:1054400037FF03469AB207F178016423094805F053
:105450006DFD97F80B32184607F50677BD46B0BDCF
:105460004C4600204446002044260020F4480020FA
:10547000489B0108500500206C9B0108B49B010863
:10548000049C01084F460020249C0108689C0108E8
:1054900080B582B000AF104B7B6001220F491048ED
:1054A0000AF0B0F90346FB70FB78002B01D0FB78C3
:1054B0000DE078680AF0AAFF0346FB70FB78002B2A
:1054C00004D0FB78082B01D0FB7800E000231846BD
:1054D0000837BD4680BD00BF849C01088C9C010834
:1054E000BC46002080B584B000AFF860B9607A6037
:1054F0003B60FB68002B05D0BB68002B02D07B68AB
:10550000002B01D1132306E03B687A68B968F8687C
:105510000AF020FD034618461037BD4680BD000046
:10552000B0B5B8B000AF78603960002387F8DF30DD
:10553000314B07F1BC041D460FCD0FC495E80700A1
:1055400084E8070007F1BC0307F158007A682B498B
:1055500011F0F8F807F158031846FAF7A9FE0346C8
:105560009AB207F158016423254805F0DFFC07F1E2
:10557000BC0319467868FFF72DF8C7F8D800D7F8AC
:10558000D830002B1AD11F4B07F108041D460FCD50
:105590000FC40FCD0FC42B68238007F108031846F2
:1055A000FAF786FE03469AB207F10801642314480D
:1055B00005F0BCFC002387F8DF3017E007F1080393
:1055C000D7F8D8201049184611F0BCF807F10803A5
:1055D0001846FAF76DFE03469AB207F108016423F4
:1055E000074805F0A3FC022387F8DF3097F8DF3087
:1055F0001846E037BD46B0BDEC9C0108909C010800
:1056000050050020089D0108BC9C0108B0B5A6B05B
:1056100000AFF860B9607A603B60594B07F17404E1
:105620001D460FCD0FC495E8070003C4227007F193
:1056300074031846FAF73CFE03469AB207F1740168
:105640006423504805F072FC4FF4FA700DF02AF80C
:105650004D4B07F148041D460FCD0FC40FCD0FC4AD
:1056600095E8070084E8070007F148031846FAF7B1
:105670001FFE03469AB207F148016423414805F032
:1056800055FCFFF705FF034687F8973097F89730EA
:10569000002B1BD03D4B07F114041D460FCD0FC44A
:1056A0000FCD0FC42B68236007F114031846FAF7D7
:1056B000FFFD03469AB207F114016423314805F057
:1056C00035FC4FF47A700CF0EDFFFAE7304B07F140
:1056D00038040FCB84E80F0007F138031846FAF7B7
:1056E000E7FD03469AB207F138016423254805F027
:1056F0001DFCBB681B78DBB2002B14D17B681B78C8
:10570000DBB2002B0FD17A68B968F868FFF7EEFBBF
:10571000034687F8973097F89730002B03D04FF463
:105720007A700CF0BFFF7B681B78DBB2002B07D0D0
:10573000BB681B78DBB2174A17491846FFF7CEFC47
:105740003B681B78DBB2002B15D0BB681B78DBB243
:10575000002B10D0104B1B68C7F890307B68BA68DC
:10576000D7F89010F868FFF73FFD0B4B00221A6046
:10577000084B00221A600A200CF094FFB9E700BF22
:10578000149F010850050020309F01085C9F01080C
:10579000809F0108984600209446002080B500AF05
:1057A00000224FF40051084801F022F900F074FA89
:1057B0000346064A1360064B00221A70054B00226E
:1057C0001A7000BF80BD00BF000802409C46002048
:1057D000A0460020A146002080B582B000AF03465D
:1057E000FB71FB79002B02D100F066F807E0FB7932
:1057F000642B01D96423FB71024AFB7913700837CB
:10580000BD4680BDA146002080B584B000AF204BCE
:105810001B781A461F4B1B6802FB03F31E4AA2FBB0
:1058200003235B09FB601B4B1A68FB68D31ABB6040
:1058300000F032FA7860194B1B687A68D31A3B6023
:10584000144B1B683A689A420CD3144A7B68136065
:10585000134B01221A7001224FF40051114801F03C
:10586000C7F810E00E4B1B78002B0CD03A68FB6891
:105870009A4208D30A4B00221A7000224FF40051BA
:10588000084801F0B5F800BF1037BD4680BD00BF25
:10589000A146002050A001081F85EB51A44600201E
:1058A000A04600200008024080B500AF3220FFF77C
:1058B00093FF00BF80BD000080B500AF00224FF411
:1058C0000051054801F094F8044B00221A70044B73
:1058D00000221A7000BF80BD00080240A1460020CF
:1058E000A046002080B584B000AF7860396000F039
:1058F000D3F9F86009E000F0CFF90246FB68D31A4B
:105900003A689A4201D2012306E0786801F018FD56
:105910000346202BEFD1002318461037BD4680BD2B
:1059200080B586B002AF78600B46FB701346BB7043
:10593000FB783B73BB787B7307F10C026423009305
:105940000223D021786801F0CBF90346FB73FB7B7F
:10595000002B01D0012309E064217868FFF7C2FF22
:105960000346002B01D0012300E000231846103726
:10597000BD4680BD80B586B002AF78600B46FB7037
:10598000FF23BB73FA1C642300930123D0217868A2
:1059900001F0A6F90346FB73FB7B002B01D0BB7B18
:1059A00022E064217868FFF79DFF0346002B01D0B9
:1059B000BB7B19E007F10E02642300930123D02181
:1059C000786801F08BFA0346FB73FB7B002B01D058
:1059D000FF2309E064217868FFF784FF0346002B6A
:1059E00001D0FF2300E0BB7B18461037BD4680BDC9
:1059F00080B582B000AF786075217868FFF7BAFF94
:105A0000034618460837BD4680BD80B584B000AF58
:105A100078607B68002B01D101234FE0642000F007
:105A200047F97868FFF7E4FF0346FB73FB7B682BBD
:105A300001D0012342E001226B217868FFF770FF5B
:105A40000346002B01D0012338E00A2000F030F992
:105A500000226C217868FFF763FF0346002B01D01A
:105A600001232BE0092219217868FFF759FF03462B
:105A7000002B01D0012321E006221A217868FFF7CC
:105A80004FFF0346002B01D0012317E018221B21F2
:105A90007868FFF745FF0346002B01D001230DE096
:105AA00018221C217868FFF73BFF0346002B01D02A
:105AB000012303E0322000F0FBF8002318461037E2
:105AC000BD4680BD80B588B002AF786039603B23A9
:105AD000FB723B68002B01D101236AE007F10B0246
