:020000040800F2
:1000000000000420652D00089D240008A524000898
:10001000AD240008B5240008BD240008000000003D
:100020000000000000000000000000009122010814
:10003000C524000800000000E124010859F100086F
:10004000B52D0008B52D0008B52D0008B52D000808
:10005000B52D0008B52D0008B52D0008B52D0008F8
:10006000B52D0008D3240008B52D0008B52D0008D3
:10007000B52D0008B52D0008B52D0008B52D0008D8
:10008000B52D0008B52D0008B52D0008B52D0008C8
:10009000B52D0008B52D0008B52D0008E124000895
:1000A000B52D0008B52D0008B52D0008B52D0008A8
:1000B000B52D0008B52D0008F1240008B52D000865
:1000C000B52D0008B52D0008B52D0008B52D000888
:1000D000B52D00080525000819250008B52D0008D4
:1000E0002D250008B52D0008B52D0008B52D0008F8
:1000F000B52D0008B52D0008B52D0008B52D000858
:10010000000000003D250008B52D0008B52D0008B1
:100110000000000000000000B52D0008B52D00080B
:10012000B52D0008B52D00085125000865250008EB
:10013000B52D0008B52D0008B52D0008B52D000817
:10014000B52D0008B52D0008B52D0008B52D000807
:10015000792500088D250008B52D0008B52D00086B
:10016000B52D0008B52D00080000000000000000BB
:10017000000000000000000000000000000000007F
:10018000B52D0008B52D000800000000000000009B
:10019000B52D0008B52D000800000000000000008B
:1001A000000000000000000000000000000000004F
:1001B000000000000000000000000000B52D000855
:0401C000B52D000851
:1001D00010B5054C237833B9044B13B10448AFF381
:1001E00000800123237010BDDC010020000000000E
:1001F0007871010808B5034B1BB103490348AFF3FD
:10020000008008BD00000000E001002078710108B6
:1002100001F0FF01102A2BDB10F0070F08D010F8B7
:10022000013B013A8B422DD010F0070F42B3F6D1BB
:10023000F0B441EA012141EA014122F007047FF0D4
:1002400000070023F0E80256083C85EA010586EA2B
:10025000010685FA47F5A3FA87F586FA47F6A5FA67
:1002600087F68EB9EED1F0BC01F0FF0102F0070273
:1002700032B110F8013B013A83EA010313B1F8D11E
:100280000020704701387047002D06BF35460338FF
:10029000073815F0010F07D1013015F4807F02BF38
:1002A000013015F4C03F0130F0BC0138704700BF89
:1002B000034613F8012B002AFBD1181A01387047A6
:1002C00081F0004102E000BF83F0004330B54FEA07
:1002D00041044FEA430594EA050F08BF90EA020F74
:1002E0001FBF54EA000C55EA020C7FEA645C7FEA07
:1002F000655C00F0E2804FEA5454D4EB5555B8BF2A
:100300006D420CDD2C4480EA020281EA030382EA9A
:10031000000083EA010180EA020281EA0303362D2C
:1003200088BF30BD11F0004F4FEA01314FF4801CFF
:100330004CEA113102D0404261EB410113F0004F11
:100340004FEA03334CEA133302D0524263EB4303C8
:1003500094EA050F00F0A780A4F10104D5F1200E66
:100360000DDB02FA0EFC22FA05F2801841F10001C1
:1003700003FA0EF2801843FA05F359410EE0A5F195
:1003800020050EF1200E012A03FA0EFC28BF4CF0C6
:10039000020C43FA05F3C01851EBE37101F000457C
:1003A00007D54FF0000EDCF1000C7EEB00006EEB89
:1003B0000101B1F5801F1BD3B1F5001F0CD3490813
:1003C0005FEA30004FEA3C0C04F101044FEA44526A
:1003D00012F5800F80F09A80BCF1004F08BF5FEAF1
:1003E000500C50F1000041EB045141EA050130BDD1
:1003F0005FEA4C0C404141EB0101013C28BFB1F5E3
:10040000801FE9D291F0000F04BF01460020B1FA2D
:1004100081F308BF2033A3F10B03B3F120020CDA00
:100420000C3208DD02F1140CC2F10C0201FA0CF0DE
:1004300021FA02F10CE002F11402D8BFC2F1200C43
:1004400001FA02F120FA0CFCDCBF41EA0C019040F9
:10045000E41AA2BF01EB0451294330BD6FEA040442
:100460001F3C1CDA0C340EDC04F11404C4F120022D
:1004700020FA04F001FA02F340EA030021FA04F33F
:1004800045EA030130BDC4F10C04C4F1200220FA96
:1004900002F001FA04F340EA0300294630BD21FAD4
:1004A00004F0294630BD94F0000F83F4801306BF9A
:1004B00081F480110134013D4EE77FEA645C18BF8E
:1004C0007FEA655C29D094EA050F08BF90EA020F25
:1004D00005D054EA000C04BF1946104630BD91EA1D
:1004E000030F1EBF0021002030BD5FEA545C05D120
:1004F0004000494128BF41F0004130BD14F580045F
:100500003CBF01F5801130BD01F0004545F0FE41D2
:1005100041F470014FF0000030BD7FEA645C1ABF07
:10052000194610467FEA655C1CBF0B46024650EA3E
:10053000013406BF52EA033591EA030F41F400216A
:1005400030BD00BF90F0000F04BF0021704730B5F0
:100550004FF4806404F132044FF000054FF00001C5
:1005600050E700BF90F0000F04BF0021704730B586
:100570004FF4806404F1320410F0004548BF40425B
:100580004FF000013EE700BF42004FEAE2014FEAB0
:1005900031014FEA02701FBF12F07F4393F07F4F8B
:1005A00081F06051704732F07F4208BF704793F08E
:1005B0007F4F04BF41F40021704730B54FF46074A1
:1005C00001F0004521F000411CE700BF50EA0102A4
:1005D00008BF704730B54FF000050AE050EA01024D
:1005E00008BF704730B511F0004502D5404261EBBD
:1005F00041014FF4806404F132045FEA915C3FF4FE
:10060000D8AE4FF003025FEADC0C18BF03325FEA9A
:10061000DC0C18BF033202EBDC02C2F1200300FA4B
:1006200003FC20FA02F001FA03FE40EA0E0021FA70
:1006300002F11444BDE600BF70B54FF0FF0C4CF45E
:10064000E06C1CEA11541DBF1CEA135594EA0C0F10
:1006500095EA0C0F00F0DEF82C4481EA030621EA4B
:100660004C5123EA4C5350EA013518BF52EA033586
:1006700041F4801143F4801338D0A0FB02CE4FF038
:100680000005E1FB02E506F00042E0FB03E54FF068
:100690000006E1FB03569CF0000F18BF4EF0010E60
:1006A000A4F1FF04B6F5007F64F5407404D25FEA5C
:1006B0004E0E6D4146EB060642EAC62141EA55510F
:1006C0004FEAC52040EA5E504FEACE2EB4F1FD0C51
:1006D00088BFBCF5E06F1ED8BEF1004F08BF5FEACF
:1006E000500E50F1000041EB045170BD06F0004681
:1006F00046EA010140EA020081EA0301B4EB5C042E
:10070000C2BFD4EB0C0541EA045170BD41F4801125
:100710004FF0000E013C00F3AB8014F1360FDEBF4A
:10072000002001F0004170BDC4F10004203C35DA26
:100730000C341BDC04F11404C4F1200500FA05F3A9
:1007400020FA04F001FA05F240EA020001F000424A
:1007500021F0004110EBD37021FA04F642EB0601C0
:100760005EEA430E08BF20EAD37070BDC4F10C04EA
:10077000C4F1200500FA04F320FA05F001FA04F2AE
:1007800040EA020001F0004110EBD37041F100019A
:100790005EEA430E08BF20EAD37070BDC4F12005A5
:1007A00000FA05F24EEA020E20FA04F301FA05F20D
:1007B00043EA020321FA04F001F0004121FA04F2B5
:1007C00020EA020000EBD3705EEA430E08BF20EA85
:1007D000D37070BD94F0000F0FD101F000464000BF
:1007E00041EB010111F4801F08BF013CF7D041EA41
:1007F000060195F0000F18BF704703F00046520045
:1008000043EB030313F4801F08BF013DF7D043EA15
:100810000603704794EA0C0F0CEA135518BF95EACB
:100820000C0F0CD050EA410618BF52EA4306D1D152
:1008300081EA030101F000414FF0000070BD50EA71
:10084000410606BF1046194652EA430619D094EAFB
:100850000C0F02D150EA013613D195EA0C0F05D1E5
:1008600052EA03361CBF104619460AD181EA030139
:1008700001F0004141F0FE4141F470014FF00000F1
:1008800070BD41F0FE4141F4780170BD70B54FF08C
:10089000FF0C4CF4E06C1CEA11541DBF1CEA13550C
:1008A00094EA0C0F95EA0C0F00F0A7F8A4EB0504EE
:1008B00081EA030E52EA03354FEA013100F08880E5
:1008C0004FEA03334FF0805545EA131343EA1263AE
:1008D0004FEA022245EA111545EA10654FEA002663
:1008E0000EF000419D4208BF964244F1FD0404F51C
:1008F000407402D25B084FEA3202B61A65EB030578
:100900005B084FEA32024FF480104FF4002CB6EB34
:10091000020E75EB030E22BFB61A754640EA0C00B4
:100920005B084FEA3202B6EB020E75EB030E22BFF4
:10093000B61A754640EA5C005B084FEA3202B6EB35
:10094000020E75EB030E22BFB61A754640EA9C00F4
:100950005B084FEA3202B6EB020E75EB030E22BFC4
:10096000B61A754640EADC0055EA060E18D04FEA82
:10097000051545EA16754FEA06164FEAC30343EA22
:1009800052734FEAC2025FEA1C1CC0D111F4801FEF
:100990000BD141EA00014FF000004FF0004CB6E7E8
:1009A00011F4801F04BF01430020B4F1FD0C88BF87
:1009B000BCF5E06F3FF6AFAEB5EB030C04BFB6EB92
:1009C000020C5FEA500C50F1000041EB045170BD85
:1009D0000EF0004E4EEA113114EB5C04C2BFD4EBB2
:1009E0000C0541EA045170BD41F480114FF0000E36
:1009F000013C90E645EA060E8DE60CEA135594EAB2
:100A00000C0F08BF95EA0C0F3FF43BAF94EA0C0FB4
:100A10000AD150EA01347FF434AF95EA0C0F7FF429
:100A200025AF104619462CE795EA0C0F06D152EA7D
:100A300003353FF4FDAE1046194622E750EA410661
:100A400018BF52EA43067FF4C5AE50EA41047FF472
:100A50000DAF52EA43057FF4EBAE12E74FF0FF3CD7
:100A600006E000BF4FF0010C02E000BF4FF0010CA8
:100A70004DF804CD4FEA410C7FEA6C5C4FEA430C21
:100A800018BF7FEA6C5C1BD001B050EA410C0CBF70
:100A900052EA430C91EA030F02BF90EA020F0020D2
:100AA000704710F1000F91EA030F58BF994208BF39
:100AB00090422CBFD8176FEAE37040F001007047F6
:100AC0004FEA410C7FEA6C5C02D150EA013C07D14D
:100AD0004FEA430C7FEA6C5CD6D152EA033CD3D098
:100AE0005DF8040B704700BF8446104662468C4692
:100AF0001946634600E000BF01B5FFF7B7FF0028C5
:100B000048BF10F1000F01BD4DF808EDFFF7F4FFED
:100B10000CBF012000205DF808FB00BF4DF808ED78
:100B2000FFF7EAFF34BF012000205DF808FB00BF9B
:100B30004DF808EDFFF7E0FF94BF012000205DF8BD
:100B400008FB00BF4DF808EDFFF7CEFF94BF012072
:100B500000205DF808FB00BF4DF808EDFFF7C4FF6B
:100B600034BF012000205DF808FB00BF4FEA410CB4
:100B70007FEA6C5C02D150EA013C0AD14FEA430C97
:100B80007FEA6C5C02D152EA033C02D14FF00000D4
:100B900070474FF0010070474FEA410212F5001212
:100BA00015D211D56FF47873B3EB625212D94FEAB4
:100BB000C12343F0004343EA505311F0004F23FA9E
:100BC00002F018BF404270474FF00000704750EAF3
:100BD000013005D111F0004008BF6FF000407047B0
:100BE0004FF00000704700BF4A0011D212F500120A
:100BF00011D20DD56FF47873B3EB62520ED44FEA75
:100C0000C12343F0004343EA505323FA02F07047F4
:100C10004FF00000704750EA013002D14FF0FF3032
:100C200070474FF0000070474FEA4102B2F1E043D5
:100C300024BFB3F5001CDCF1FE5C0DD901F0004CC3
:100C40004FEAC0024CEA5070B2F1004F40EB830013
:100C500008BF20F00100704711F0804F21D113F13F
:100C60003872BCBF01F00040704741F480114FEA78
:100C70005252C2F11802C2F1200C10FA0CF320FA01
:100C800002F018BF40F001004FEAC1234FEAD3231E
:100C900003FA0CFC40EA0C0023FA02F34FEA430388
:100CA000CCE77FEA625307D150EA01331EBF4FF011
:100CB000FE4040F44000704701F0004040F0FE402C
:100CC00040F40000704700BF53B94AB9002908BF7B
:100CD00000281CBF4FF0FF314FF0FF3000F0BEB9CD
:100CE000ADF1080C6DE904CE00F03CF8DDF804E04D
:100CF000DDE9022304B0704738B500220023044622
:100D00000D46FFF70BFF28B920462946BDE83840BD
:100D100000F00AB8204605F1004100F005F8404215
:100D200061EB410138BD00BFD0B50C4B0022064637
:100D30000F46FFF781FCFFF757FF0446FFF702FC61
:100D4000074B0022FFF778FC02460B463046394637
:100D5000FFF7BAFAFFF748FF2146D0BD0000F03D8B
:100D60000000F0412DE9F047089D8E460446884674
:100D7000002B4AD18A42174662D9B2FA82F64EB1A6
:100D8000C6F1200301FA06F820FA03F3B74043EA5C
:100D90000808B4404FEA174E1FFA87FCB8FBFEF173
:100DA000230C0EFB118843EA084301FB0CF29A4224
:100DB00009D9FB1801F1FF3080F0EA809A4240F235
:100DC000E78002393B449A1AA3B2B2FBFEF00EFB55
:100DD000102243EA024300FB0CFC9C4509D9FB1896
:100DE00000F1FF3280F0D6809C4540F2D3803B4436
:100DF000023840EA0140A3EB0C0300211DB1F3408F
:100E00000022C5E90032BDE8F0878B4205D90DB15B
:100E1000C5E9000100210846F5E7B3FA83F100298E
:100E200046D1734502D3824200F20581841A6EEBEB
:100E3000030201209046002DE5D0C5E90048E2E715
:100E4000002A00F09080B2FA82F6002E40F0A480D2
:100E50008A1A030C4FEA174E80B2BCB20121B2FBD2
:100E6000FEFC0EFB1C2243EA024304FB0CF29A42F6
:100E700007D9FB180CF1FF3802D29A4200F2E08049
:100E8000C4469B1AB3FBFEF20EFB123340EA034347
:100E900002FB04F49C4207D9FB1802F1FF3002D296
:100EA0009C4200F2CA8002461B1B42EA0C40A5E7A6
:100EB000C1F120068B4022FA06F71F430EFA01F417
:100EC00020FA06F32EFA06FE4FEA1749234300FAEA
:100ED00001F81FFA87FCBEFBF9F01C0C09FB10EEB1
:100EE00044EA0E4400FB0CFEA64502FA01F209D9C1
:100EF0003C1900F1FF3A80F09C80A64540F29980B1
:100F000002383C44A4EB0E041FFA83FEB4FBF9F351
:100F100009FB13444EEA044403FB0CFCA44508D926
:100F20003C1903F1FF3E80F08280A4457FD9023B4B
:100F30003C4443EA0040A4EB0C04A0FB02EC6445F3
:100F40007346E14662D35FD05DB1B8EB030264EB58
:100F5000090404FA06F622FA01F31E43CC40C5E95F
:100F6000006400214FE7B1FBF2FC010C41EA0E41A5
:100F700080B240EA01423B4638463C46B846BE464F
:100F80002026B1FBF7F1A2EB080241EA0C4166E72B
:100F9000014618E710462CE7C6F120022EFA02F3AC
:100FA000B740B14020FA02F24FEA174E0A43B3FBB2
:100FB000FEF8BCB20EFB1833110C41EA034108FBEA
:100FC00004F9B04089454FEA104380B23ED9791800
:100FD00008F1FF3C01D289451FD8A1EB0901B1FB03
:100FE000FEF909FB04F80EFB191192B242EA014224
:100FF000424529D2BA1809F1FF31C4D24245C2D2C2
:10100000A9F102013A44BEE7F0459DD2BEEB0203CE
:101010006CEB070C0138E14696E7A7EB0909494458
:10102000A8F1020CB1FBFEF909FB04F8DBE77346FB
:101030007FE7504666E70846FDE63B44023A33E761
:10104000ACF1020C3B441CE749469CE7A1EB0901CB
:10105000C446B1FBFEF909FB04F8C4E7704700BFC2
:1010600080B500AF024807F03FFE00BF80BD00BF63
:101070007404002080B582B000AF00237B60184B61
:101080001B6B174A43F480031363154B1B6B03F46C
:1010900080037B607B68002205213A2004F0B8FAC7
:1010A0003A2004F0D1FA002206213B2004F0B0FAE5
:1010B0003B2004F0C9FA00220521442004F0A8FADC
:1010C000442004F0C1FA00220621452004F0A0FAD1
:1010D000452004F0B9FA00BF0837BD4680BD00BF07
:1010E0000038024080B500AF01200AF06BFD00BF60
:1010F00080BD000080B500AF084A002108480EF00E
:10110000C6F80346074A1360074A002107480EF055
:10111000BEF80346064A136000BF80BDA07E0108EA
:1011200035110008FC010020C47E01085911000897
:101130000002002080B582B000AF78604FF480518B
:10114000044805F042F84FF47A700FF061FE00BFDA
:10115000F4E700BF00040240B0B5A2B000AF786071
:10116000594BC7F88430594B07F160041D460FCD29
:101170000FC495E8070003C4227007F16003184606
:10118000FFF796F803469AB207F1600164235048CE
:1011900008F082FA4FF4FA700FF03AFE4D4B07F167
:1011A0003C041D460FCD0FC40FCD0FC42B68237018
:1011B00007F13C031846FFF77BF803469AB207F1A4
:1011C0003C016423424808F067FA04F045F80346FE
:1011D00087F8833097F88330002B1BD03E4B07F104
:1011E00008041D460FCD0FC40FCD0FC42B6823601C
:1011F00007F108031846FFF75BF803469AB207F1B8
:1012000008016423324808F047FA4FF47A700FF06F
:10121000FFFDFAE7314B07F12C040FCB84E80F00F8
:1012200007F12C031846FFF743F803469AB207F17B
:101230002C016423264808F02FFA294B1B78DBB2D7
:10124000002B15D1274B1B78DBB2002B10D1254A80
:101250002349D7F8840003F02DFD034687F8833037
:1012600097F88330002B03D04FF47A700FF0D0FD45
:101270001C4B1B78DBB2002B07D0194B1B78DBB261
:10128000194A1A49184603F00DFE194B1B78DBB2B8
:10129000002B14D0124B1B78DBB2002B0FD0134B5A
:1012A0001B68FB670F4B0E4AF96FD7F8840003F0F9
:1012B0007FFE0E4B00221A600B4B00221A600A20A0
:1012C0000FF0A6FDB9E700BF0C72010828720108F3
:1012D000BC04002044720108687201088C72010885
:1012E000F8010020F901002008020020040200207B
:1012F000BB45002080B588B000AF07F10C03002289
:101300001A605A609A60DA601A610023BB606A4B07
:101310001B6B694A43F004031363674B1B6B03F0B9
:101320000403BB60BB6800237B60634B1B6B624A9A
:1013300043F001031363604B1B6B03F001037B60FD
:101340007B6800233B605C4B1B6B5B4A43F00203F2
:101350001363594B1B6B03F002033B603B68002295
:1013600041F21001554804F017FF002245F2030135
:10137000534804F011FF01224FF44071504804F02B
:101380000BFF1023FB6001233B6101237B610023E2
:10139000BB6107F10C031946484804F071FD44F2A3
:1013A0000303FB6001233B6101237B610023BB61DD
:1013B00007F10C031946424804F062FD4FF48053D4
:1013C000FB6001233B6100237B610023BB6107F1CC
:1013D0000C0319463A4804F053FD4FF40053FB60E8
:1013E0004FF488133B6100237B6107F10C0319461E
:1013F000334804F045FD4FF48053FB6001233B610B
:1014000000237B610023BB6107F10C0319462B48C5
:1014100004F036FD0823FB604FF444133B610123C5
:101420007B6107F10C031946254804F029FD402390
:10143000FB604FF404133B6101237B6107F10C0354
:1014400019461F4804F01CFD8023FB6000233B610C
:1014500001237B6107F10C031946194804F010FDC4
:101460004FF44073FB6001233B6101237B61022346
:10147000BB6107F10C031946114804F001FD00227D
:101480000221092004F0C4F8092004F0DDF800224C
:101490000321172004F0BCF8172004F0D5F800222F
:1014A0000221282004F0B4F8282004F0CDF800BF71
:1014B0002037BD4680BD00BF00380240000002401A
:1014C0000004024080B582B000AF0346FB80FB8879
:1014D000402B02D102F05EFD04E0FB88082B01D115
:1014E00002F086FD00BF0837BD4680BDB0B5DCB058
:1014F00000AF03F06FFF00F053F9FFF7FBFEFFF7BB
:10150000B9FD00F005FA01F0B9F901F021F900F098
:101510006DFE01F089F9954B07F5A4741D460FCDBA
:101520000FC40FCD0FC495E8030084E8030007F54E
:10153000A4731846FEF7BCFE03469AB207F5A471E1
:1015400064238B4808F0A8F88A4B07F596741D466B
:101550000FCD0FC495E8070003C4228007F59673EA
:101560001846FEF7A5FE03469AB207F59671642366
:101570007F4808F091F800F07BFB7F4B07F58A74F9
:101580001D460FCD0FC495E8030020600434218070
:1015900007F58A731846FEF78BFE03469AB207F5E5
:1015A0008A716423724808F077F8FFF759FD734B8E
:1015B00007F1FC041D460FCD0FC495E8030084E835
:1015C000030007F1FC031846FEF772FE03469AB2C9
:1015D00007F1FC016423664808F05EF80AF094F80D
:1015E000674B07F1E8041D460FCD0FC42B6823603D
:1015F00007F1E8031846FEF75BFE03469AB207F1CF
:10160000E80164235A4808F047F85E4B07F1D40418
:101610001D460FCD0FC42B68237007F1D403184665
:10162000FEF746FE03469AB207F1D4016423504800
:1016300008F032F8544B07F1B0041D460FCD0FC42B
:101640000FCD0FC42B68238007F1B0031846FEF7B7
:101650002FFE03469AB207F1B0016423444808F014
:101660001BF80DF093FD494B07F190041D460FCD7B
:101670000FC495E80F0007C4238007F190031846B4
:10168000FEF716FE03469AB207F19001642338482C
:1016900008F002F807F5B873A3F582733C4A1C46BC
:1016A00015460FCD0FC40FCD0FC42B68237007F163
:1016B0006C031846FEF7FCFD03469AB207F16C0175
:1016C00064232B4807F0E8FFFFF714FD07F5B87314
:1016D000A3F592732F4A1C4615460FCD0FC495E80B
:1016E0000F0007C4237007F14C031846FEF7E0FD16
:1016F00003469AB207F14C0164231D4807F0CCFF62
:1017000007F5B873A3F5A473234A1C4615460FCDFD
:101710000FC40FCD0FC42B68237007F128031846A0
:10172000FEF7C6FD03469AB207F12801642310486C
:1017300007F0B2FF0DF070FD07F5B873A3F5B673AF
:10174000164A1C4615460FCD0FC40FCD0FC42B688B
:1017500023703B1D1846FEF7ABFD03469AB2391DB8
:101760006423034807F098FF00BFFDE79C7201085F
:10177000BC040020C4720108E0720108F87201087C
:101780001073010824730108387301085C730108A1
:101790007C730108A0730108C0730108E473010899
:1017A00080B594B000AF07F11C0334220021184625
:1017B00013F024F907F1080300221A605A609A60B6
:1017C000DA601A6100237B60294B1B6C284A43F0C6
:1017D00080531364264B1B6C03F080537B607B6843
:1017E00000233B60234B1B68224A43F440431360B1
:1017F000204B1B6803F440433B603B680623FB61BE
:1018000001237B620123BB621023FB6202237B6303
:101810000023BB631023FB63C0233B6402237B6470
:101820000423BB640223FB6407F11C03184605F084
:10183000DFF80346002B01D000F064F80F23BB60F3
:101840000223FB6000233B614FF480537B61002344
:10185000BB6107F108030321184604F0E9FC0346C5
:10186000002B01D000F04EF800BF5037BD4680BDC0
:10187000003802400070004080B582B000AF786050
:10188000391D4FF6FF730122034807F005FF7B68FF
:1018900018460837BD4680BD0405002080B584B0D9
:1018A00000AF78600023FB7307F10F014FF6FF7361
:1018B00001220A4807F07BFFFB7B0D2B04D10D2092
:1018C000FFF7DAFF0A23FB73FB7B1846FFF7D4FF11
:1018D000034618461037BD4680BD00BF04050020F2
:1018E00080B582B000AF78607B681B68044A934281
:1018F00001D103F091FD00BF0837BD4680BD00BF98
:101900000008004080B400AF72B600BF00BFFDE722
:1019100080B586B000AF3B1D00221A605A609A6005
:10192000DA601A6100233B60244B254A1A60234B7E
:1019300000225A60214B7F229A60204BFF22DA60FE
:101940001E4B00221A611D4B00225A611B4B0022C4
:101950009A611A4805F0D0FA0346002B01D0FFF730
:10196000D1FF00233B7100237B710023BB71002357
:101970003B6100237B613B1D002219460F4805F0A7
:101980003CFB0346002B01D0FFF7BCFF01233B705B
:1019900001237B700123BB700023FB703B460022B8
:1019A0001946064805F021FC0346002B01D0FFF73D
:1019B000A9FF00BF1837BD4680BD00BF0C02002044
:1019C0000028004080B592B000AF786007F10C03AA
:1019D0003C220021184613F011F87B681B680C4A62
:1019E000934211D10823FB604FF48073BB6207F16F
:1019F0000C03184604F02EFE0346002B01D0FFF71F
:101A000081FF044B01221A6000BF4837BD4680BDEC
:101A1000002800403C0E474280B59AB000AF786085
:101A200007F1540300221A605A609A60DA601A6162
:101A300007F118033C220021184612F0DFFF7B68F3
:101A40001B68794A934240F0EB806023BB6100231E
:101A50003B640023BB6307F11803184604F0FAFD4A
:101A60000346002B01D0FFF74DFF00237B616F4B36
:101A70005B6C6E4A43F4006353646C4B5B6C03F421
:101A800000637B617B6900233B61684B1B6B674A8A
:101A900043F001031363654B1B6B03F001033B61D0
:101AA0003B690023FB60614B1B6B604A43F0020300
:101AB00013635E4B1B6B03F00203FB60FB68402368
:101AC0007B650223BB650123FB6503233B660C2377
:101AD0007B6607F154031946554804F0D1F94FF4D9
:101AE00000437B650223BB650023FB6503233B6644
:101AF0000C237B6607F1540319464E4804F0C0F9E5
:101B000010237B650223BB650123FB6503233B6632
:101B10000C237B6607F154031946464804F0B0F9DC
:101B2000454B464A1A60444B4FF000625A60424BA4
:101B300000229A60404B0022DA603F4B4FF48062F3
:101B40001A613D4B4FF480525A613B4B4FF4804237
:101B50009A61394B2022DA61374B4FF400321A6216
:101B6000354B04225A62344B03229A62324B4FF4B3
:101B70000002DA62304B4FF400121A632E4803F071
:101B800071FD0346002B01D0FFF7BCFE7B682A4A9B
:101B90001A64294A7B689363294B2A4A1A60284BA6
:101BA0004FF000625A60264B40229A60244B00227C
:101BB000DA60234B4FF480621A61214B4FF480525C
:101BC0005A611F4B4FF480429A611D4B2022DA610B
:101BD0001B4B4FF400321A62194B04225A62184B05
:101BE00003229A62164B4FF40002DA62144B4FF450
:101BF00000121A63124803F035FD0346002B01D092
:101C0000FFF780FE7B680E4ADA630D4A7B689363B8
:101C100000220521312003F0FBFC312003F014FDEC
:101C200000BF6837BD4680BD002C0140003802402F
:101C30000000024000040240B0020020586402404C
:101C400010030020A064024080B582B000AF78602D
:101C50007868FEF72DFB03469AB26423796803483F
:101C600007F01AFD00BF0837BD4680BDBC04002048
:101C7000F0B5F3B004AF07F5B8733C220021184665
:101C800012F0BCFE6023C7F870310023C7F898310A
:101C90000023C7F8903107F5B873184604F0DAFC52
:101CA0000346002B03D0C548FFF7CEFF7DE207F5C2
:101CB000DC73A3F5867300221A60C14B5B6CC04ACB
:101CC00043F400635364BE4B5B6C03F4006207F59E
:101CD000DC73A3F586731A6007F5DC73A3F58673CE
:101CE0001B6807F5DC73A3F5887300221A60B44BF8
:101CF0001B6BB34A43F001031363B14B1B6B03F03F
:101D0000010207F5DC73A3F588731A6007F5DC732D
:101D1000A3F588731B6807F5DC73A3F58A730022AB
:101D20001A60A74B1B6BA64A43F002031363A44B34
:101D30001B6B03F0020207F5DC73A3F58A731A60CC
:101D400007F5DC73A3F58A731B6807F5AE730022F1
:101D50001A605A609A60DA601A614023C7F85C31F1
:101D60000223C7F860310123C7F864310323C7F8A1
:101D700068310C23C7F86C3107F5AE7319469148EA
:101D800004F07EF84FF40043C7F85C310223C7F833
:101D900060310023C7F864310323C7F868310C238E
:101DA000C7F86C3107F5AE731946874804F068F838
:101DB0001023C7F85C310223C7F860310123C7F84C
:101DC00064310323C7F868310C23C7F86C3107F579
:101DD000AE7319467C4804F053F87C4B7C4A1A6079
:101DE0007A4B00225A60794B00229A60774B00228E
:101DF000DA60764B00221A61744B00225A61734BF1
:101E000076229A617348FFF71FFF7348FFF71CFFA4
:101E10004FF4FA7003F020FB7048FFF715FF6B4B8F
:101E20001E686A4D6C4605F1100393E8070084E8CC
:101E300007002B1D0ECB304608F0F2FE0346002BA8
:101E400003D06748FFF700FFAFE16648FFF7FCFEED
:101E5000654B01221A606548FFF7F6FE5B4B1B6875
:101E6000184608F026FF0A2003F0F6FA574B1B68C5
:101E70005A6807F594735E49184612F0ABFC07F5F3
:101E800094731846FFF7E0FE504B1B681A6807F57D
:101E900094735849184612F09DFC07F59473184640
:101EA000FFF7D2FE5448FFF7CFFE0023C7F81431E6
:101EB0000023C7F818310023C7F81C310023C7F8E6
:101EC00020314FF48063C7F82431404B1B6807F57D
:101ED0008A721146184608F008FF4FF47A73C7F863
:101EE000B4311AE0D7F8B431013BC7F8B431D7F8B0
:101EF000B431002B11D14148FFF7A6FE334B1B68CC
:101F00005A6B07F154033E49184612F063FC07F17F
:101F100054031846FFF798FE47E12C4B1B685B6B98
:101F200003F08003002BDDD0284B1B6880229A63CE
:101F30003448FFF789FE0A2003F08EFA3248FFF793
:101F400083FE4FF4D573C7F814310823C7F818314E
:101F50004023C7F81C310023C7F820314FF48063B9
:101F6000C7F82431194B1B6807F58A7211461846C9
:101F700008F0BBFE4FF47A73C7F8B4314AE0D7F8E3
:101F8000B431013BC7F8B431D7F8B431002B41D19B
:101F90001E48FFF759FE0D4B1B685A6B07F154039F
:101FA0001749184612F016FC07F154031846FFF7BC
:101FB0004BFE1748FFF748FE33E000BF08740108E6
:101FC0000038024000000240000402402C020020C1
:101FD000002C01402C74010844740108607401084D
:101FE00084740108AC740108A0802542D4740108EF
:101FF000EC740108047501081C750108447501089A
:102000005C750108707501087C750108A4750108EC
:10201000BC750108674B1B685B6B03F04503002B25
:10202000ADD0644B1B685B6B03F00403002B07D03F
:10203000604B1B6804229A635F48FFF705FE2EE0A1
:102040005C4B1B685B6B03F00103002B07D0594B03
:102050001B6801229A635948FFF7F6FD1FE0554BB4
:102060001B685B6B03F04003002B18D0514B1B68BF
:1020700040229A634F4B1B680021184608F06CFE03
:10208000C7F8B00107F15403D7F8B0214C491846FE
:1020900012F0A0FB07F154031846FFF7D5FD49489D
:1020A000FFF7D2FD434805F031FA034687F8AF3118
:1020B00097F8AF31002B35D097F8AF213D4B93F80F
:1020C0003430DBB219463B4B9B6B381D00930B46FB
:1020D0003D4912F07FFB3B1D1846FFF7B5FD4FF45D
:1020E000FA7003F0B9F93948FFF7AEFD314B9E2283
:1020F0009A61304805F00AFA034687F8AF3197F83D
:10210000AF31002B0ED097F8AF212A4B9B6B07F114
:1021100054002F4912F05EFB07F154031846FFF7F5
:1021200093FD42E02B48FFF78FFD224B5B6D214A68
:10213000926D02FB03F31A0D1E4B9B6D07F1B0006D
:10214000254912F047FB07F1B0031846FFF77CFD65
:10215000184B04229A61214B5B6823F0FF02154B58
:102160009B69DBB21D4913434B601D48FFF76CFDB3
:102170004FF400610F4805F083FF034687F8AF3145
:1021800097F8AF31002B0DD097F8AF2107F154032A
:102190001449184612F01EFB07F154031846FFF7C6
:1021A00053FD02E01048FFF74FFD07F5DE77BD460F
:1021B000F0BD00BF2C020020E87501080876010878
:1021C00018760108387601085C76010890760108D7
:1021D000B0760108D4760108E4760108002C0140AD
:1021E00008770108307701086077010880B500AFF3
:1021F000174B184A1A60164B4FF482725A60144BF0
:1022000000229A60124B0022DA60114B00221A6100
:102210000F4B00225A610E4B4FF400729A610C4B27
:102220002822DA610A4B00221A62094B00225A6204
:10223000074B00229A62064B0A22DA62044806F033
:102240007AFC0346002B01D0FFF75CFB00BF80BD8A
:10225000700300200030014080B58AB000AF786084
:1022600007F1140300221A605A609A60DA601A615A
:102270007B681B68304A934259D100233B612F4B46
:102280005B6C2E4A43F4805353642C4B5B6C03F419
:1022900080533B613B690023FB60284B1B6B274A43
:1022A00043F001031363254B1B6B03F00103FB6039
:1022B000FB68A0237B610223BB610023FB61032336
:1022C0003B6205237B6207F1140319461C4803F0A7
:1022D000D7FD1C4B1C4A1A601A4B4FF0C0625A6063
:1022E000184B40229A60174B0022DA60154B4FF4CE
:1022F00080621A61134B00225A61124B00229A61CC
:10230000104B0022DA610F4B00221A620D4B0022A3
:102310005A620C4803F0A6F90346002B01D0FFF7E0
:10232000F1FA7B68074A9A64064A7B68936300BFA8
:102330002837BD4680BD00BF003001400038024054
:1023400000000240C80300208864024080B582B0CB
:1023500000AF00237B60124B5B6C114A43F4804357
:1023600053640F4B5B6C03F480437B607B680023FA
:102370003B600B4B1B6C0A4A43F080531364084BC1
:102380001B6C03F080533B603B6800220F216FF011
:10239000010003F03DF900BF0837BD4680BD00BF16
:1023A0000038024080B58EB000AF78600023FB6239
:1023B0000023BB620023FB60334B1B6C324A43F0AB
:1023C00004031364304B1B6C03F00403FB60FB68D5
:1023D00007F1100207F114031146184604F008F93A
:1023E0003B6AFB62FB6A002B03D104F0D9F87863E7
:1023F00004E004F0D5F803465B007B637B6B234A63
:10240000A2FB03239B0C013BBB62214B214A1A60B8
:102410001F4B40F2E732DA601D4ABB6A53601C4B27
:1024200000221A611A4B00229A60194B00229A610D
:10243000174806F009FC034687F8333097F8333025
:10244000002B1BD1124806F0B7FC034687F8333047
:1024500097F83330002B11D11E2003F0F5F87B687C
:102460000F2B08D8002279681E2003F0D1F80A4A01
:102470007B68136002E0012387F8333097F833302C
:1024800018463837BD4680BD0038024083DE1B4306
:1024900028040020000800400800002080B400AF9D
:1024A00000BFFDE780B400AF00BFFDE780B400AF20
:1024B00000BFFDE780B400AF00BFFDE780B400AF10
:1024C00000BFFDE780B400AF00BFBD465DF8047BF0
:1024D000704780B500AF082003F092FE00BF80BDBA
:1024E00080B500AF402003F08BFE00BF80BD000030
:1024F00080B500AF024806F0CFFC00BF80BD00BF32
:102500002804002080B500AF024807F08BFA00BF16
:1025100080BD00BFBC04002080B500AF024807F0BA
:1025200081FA00BF80BD00BF0405002080B500AF68
:102530004FF4005003F064FE00BF80BD80B500AFD3
:10254000024805F04DFA00BF80BD00BF2C020020FC
:1025500080B500AF024803F01DFA00BF80BD00BF88
:102560004C05002080B500AF024803F013FA00BF0D
:1025700080BD00BFB002002080B500AF024803F06C
:1025800009FA00BF80BD00BFC803002080B500AFBE
:10259000024803F0FFF900BF80BD00BF1003002018
:1025A00080B400AF01231846BD465DF8047B704738
:1025B00080B582B000AF7860396012F0D7FA034678
:1025C00016221A604FF0FF3318460837BD4680BD0B
:1025D00080B582B000AF78604FF0FF317868FFF7C8
:1025E000E7FF00BFFDE780B586B000AFF860B960D7
:1025F0007A6000237B610AE0FFF750F90146BB686F
:102600005A1CBA60CAB21A707B6901337B617A695D
:102610007B689A42F0DB7B6818461837BD4680BD60
:1026200080B586B000AFF860B9607A6000237B6146
:1026300009E0BB685A1CBA601B781846FFF71CF902
:102640007B6901337B617A697B689A42F1DB7B6845
:1026500018461837BD4680BD80B483B000AF78609F
:102660004FF0FF3318460C37BD465DF8047B7047CA
:1026700080B483B000AF786039603B684FF400529B
:102680005A60002318460C37BD465DF8047B70473E
:1026900080B483B000AF7860012318460C37BD4684
:1026A0005DF8047B704780B485B000AFF860B96016
:1026B0007A60002318461437BD465DF8047B7047E6
:1026C00080B586B000AF7860144A154BD31A7B6191
:1026D0007B693B61134B1B68002B02D1114B124AE3
:1026E0001A60104B1A687B6813443A699A4207D201
:1026F00012F03CFA03460C221A604FF0FF3309E057
:10270000084B1B68FB60074B1A687B681344054A3B
:102710001360FB6818461837BD4680BD00000420D2
:102720000004000070040020A8D9002080B400AF8D
:10273000064BD3F88830054A43F47003C2F888305A
:1027400000BFBD465DF8047B704700BF00ED00E0B0
:1027500080B586B000AF07F1080300221A605A6006
:102760009A60DA603B4600221A605A601D4B4FF0B7
:1027700080421A601B4B5F225A601A4B00229A60FB
:10278000184B4FF0FF32DA60164B00221A61154BDE
:1027900000229A61134806F057FA0346002B01D035
:1027A000FFF7B0F84FF48053BB6007F108031946F8
:1027B0000C4806F061FC0346002B01D0FFF7A2F89D
:1027C00000233B6000237B603B461946054806F02A
:1027D00083FE0346002B01D0FFF794F800BF1837A3
:1027E000BD4680BD7404002080B485B000AF786021
:1027F0007B681B68B3F1804F0DD10023FB60094B50
:102800001B6C084A43F001031364064B1B6C03F076
:102810000103FB60FB6800BF1437BD465DF8047B15
:10282000704700BF0038024080B500AF114B124A1C
:102830001A60104B4FF4E1325A600E4B00229A603E
:102840000C4B0022DA600B4B00221A61094B0C2260
:102850005A61084B00229A61064B0022DA61054852
:1028600006F0CAFE0346002B01D0FFF74BF800BF6D
:1028700080BD00BFBC0400200010014080B500AF47
:10288000114B124A1A60104B4FF416525A600E4BFD
:1028900000229A600C4B0022DA600B4B00221A6176
:1028A000094B0C225A61084B00229A61064B002208
:1028B000DA61054806F0A0FE0346002B01D0FFF7C1
:1028C00021F800BF80BD00BF040500200044004087
:1028D00080B58CB000AF786007F11C0300221A604D
:1028E0005A609A60DA601A617B681B68524A9342A8
:1028F00065D10023BB61514B5B6C504A43F0100320
:1029000053644E4B5B6C03F01003BB61BB69002347
:102910007B614A4B1B6B494A43F001031363474BEE
:102920001B6B03F001037B617B694FF40443FB6184
:1029300002233B6200237B620323BB620723FB620B
:1029400007F11C0319463E4803F09AFA3D4B3E4AF4
:102950001A603C4B4FF000625A603A4B00229A607A
:10296000384B0022DA60374B4FF480621A61354BE6
:1029700000225A61334B00229A61324B4FF480722D
:10298000DA61304B4FF400321A622E4B00225A6249
:102990002C4802F067FE0346002B01D0FEF7B2FF81
:1029A0007B68284ADA63274A7B6893630022012107
:1029B000252002F02DFE252002F046FE38E07B683F
:1029C0001B68224A934233D100233B611B4B1B6C93
:1029D0001A4A43F400331364184B1B6C03F400339E
:1029E0003B613B690023FB60144B1B6B134A43F0B4
:1029F00001031363114B1B6B03F00103FB60FB68C6
:102A00000C23FB6102233B6200237B620323BB6236
:102A10000723FB6207F11C031946094803F030FA4B
:102A200000220221262002F0F3FD262002F00CFEF7
:102A300000BF3037BD4680BD001001400038024065
:102A4000000002404C050020406402400044004069
:102A500080B500AF4FF480520249034806F03EFFB4
:102A600000BF80BDAC050020BC04002080B5A0B034
:102A700000AFA14B1B685B68C3F58053FB669F4B9F
:102A80001B68FA6E9A4205D39C4B1B68FA6ED31AE8
:102A9000FB6727E1994B1B68FA6ED31A03F5805345
:102AA000FB671FE1954B1B68954AD35C87F86B3039
:102AB000924B1B680133C3F30B03904A1360FB6F07
:102AC000013BFB678F4B1B6801338E4A13608E4BB3
:102AD0001B78DBB219468D4A97F86B3053548A4BFA
:102AE0001B78DBB25A1C8A4B83FB0231D317C91AFD
:102AF0000B465B000B44D11ACAB2834B1A700123F8
:102B000087F87B3000237B673DE07F4B1B78DBB28F
:102B10001A467B6FD31A9A1C7D4B83FB0231D31765
:102B2000C91A0B465B000B44D31A7B667B6F002BE4
:102B30000AD1764A7B6E13441B78DBB2FF2B03D09D
:102B4000002387F87B3021E07B6F012B0AD16F4A8D
:102B50007B6E13441B78DBB2FF2B03D0002387F876
:102B60007B3013E07B6F022B0AD1684A7B6E1344E3
:102B70001B78DBB2FF2B03D0002387F87B3005E006
:102B80007B6F01337B677B6F022BBEDD97F87B3059
:102B9000002B57D15F4B1B78DBB21A465E4B53F8C4
:102BA0002230B3F5805F2BD35A4B1B78DBB21A4629
:102BB0005A4B01219954574B1B78DBB20133002B40
:102BC00003F00103B8BF5B42DAB2524B1A70514BAB
:102BD0001B78DBB21946504B002243F821204D4BA5
:102BE0001B78DBB21A464D4B00219954494B1B7898
:102BF000DBB21A46484B53F82230B3F5805F70D2EF
:102C0000444B1B78DBB21A46424B1B78DBB21946A9
:102C1000414B53F82130424912030A44134497F8B8
:102C20006B201A703B4B1B78DBB23B4A52F82320D7
:102C30000132394941F823203A4B1B680133394AA4
:102C400013604FE0384B01221A70384B00221A7083
:102C5000344B1B68012B10D92E4B1B78DAB211466E
:102C60002D4B53F821301146023B2B4A42F82130BC
:102C70002C4B1B68023B2B4A1360264B1B78DBB2A4
:102C80001A46264B012199541E4B1A683B46284987
:102C9000184611F09FFD3B461846FDF709FB034619
:102CA0009AB239466423234806F0F6FC1D4B0022F5
:102CB0001A60214B00221A6000233B6707E0134A89
:102CC0003B6F134400221A703B6F01333B673B6F2D
:102CD000022BF4DD0C4B00221A70164806F023FE7E
:102CE00005E000BFFB6F002B7FF4DCAE00BF00BF30
:102CF0008037BD4680BD00BF4C050020AC250020BC
:102D0000AC050020C0450020BF450020BC45002088
:102D100056555555BA450020B0450020B84500200D
:102D2000B0250020C4450020BB450020F90100204B
:102D300080770108BC040020C845002080B483B01F
:102D400000AF786000BF0C37BD465DF8047B70476C
:102D500080B483B000AF786000BF0C37BD465DF82B
:102D6000047B7047DFF834D0FFF7E0FC0C480D49D6
:102D70000D4A002302E0D458C4500433C4188C42D6
:102D8000F9D30A4A0A4C002301E013600432A2423C
:102D9000FBD311F0F1FEFEF7A9FB70470000042001
:102DA00000000020DC010020302F0408DC0100209E
:102DB000A4D90020FEE780B584B000AF78607B68BE
:102DC000FB60F86800F096F87B6818461037BD463F
:102DD00080BD80B582B000AF78607B68184600F097
:102DE00012F87B6818460837BD4680BD80B582B0B2
:102DF00000AF78607B681846FFF7EBFF7B681846EA
:102E00000837BD4680BD80B584B000AF78607B6870
:102E1000FB60FB68BB607B68184600F057F87B6876
:102E200018461037BD4680BD80B582B000AF7860CF
:102E30007B6819687B689A687B681B68D31A9B104B
:102E4000074A02FB03F31A46786800F05EF87B68D5
:102E50001846FFF7B0FF7B6818460837BD4680BDAF
:102E6000ABAAAAAAB0B586B000AF78607B681D682F
:102E70007B685C687B68184600F060F803467D61FB
:102E80003C61FB603969786900F063F800BF7B68DA
:102E90001846FFF7C9FF7B6818461837BD46B0BD16
:102EA00080B483B000AF78607B685A687B681B6829
:102EB000D31A9B10044A02FB03F318460C37BD4695
:102EC0005DF8047B704700BFABAAAAAA80B483B0A8
:102ED00000AF78607B6800221A607B6800225A602D
:102EE0007B6800229A607B6818460C37BD465DF807
:102EF000047B704780B483B000AF78607B6818466D
:102F00000C37BD465DF8047B704780B588B000AFD4
:102F1000F860B9607A60BB68002B0BD0FB68FB617E
:102F2000BB68BB617B687B617A69B969F86900F04D
:102F30001DF800BF00BF2037BD4680BD80B483B000
:102F400000AF78607B6818460C37BD465DF8047B9F
:102F5000704780B582B000AF7860396039687868B2
:102F600000F017F800BF0837BD4680BD80B584B0BB
:102F700000AFF860B9607A607A6813465B0013446A
:102F80009B001946B8680FF05FFD00BF1037BD46C3
:102F900080BD80B483B000AF7860396000BF0C376B
:102FA000BD465DF8047B704780B483B000AF7860A5
:102FB00039603B6818460C37BD465DF8047B7047A6
:102FC00080B588B000AF87ED030AC7ED020A87ED30
:102FD000011AFB687B61BB68BB617B68FB6107F121
:102FE00014031946034800F033FA00BF2037BD46EA
:102FF00080BD00BFCC45002080B582B000AF7860B6
:103000009FED9E1ADFED9E0A9FED9E0AFFF7D8FF07
:103010009FED9D1ADFED9D0A9FED9D0AFFF7D0FF02
:103020009FED9C1ADFED9C0A9FED9C0AFFF7C8FFFD
:103030009FED9B1ADFED9B0A9FED9B0AFFF7C0FFF8
:103040009FED9A1ADFED9A0A9FED9A0AFFF7B8FFF3
:103050009FED991ADFED990A9FED990AFFF7B0FFEE
:103060009FED981ADFED980A9FED980AFFF7A8FFE9
:103070009FED971ADFED970A9FED970AFFF7A0FFE4
:103080009FED961ADFED960A9FED960AFFF798FFDF
:103090009FED951ADFED950A9FED950AFFF790FFDA
:1030A0009FED941ADFED940A9FED940AFFF788FFD5
:1030B0009FED931ADFED930A9FED930AFFF780FFD0
:1030C0009FED921ADFED920A9FED920AFFF778FFCB
:1030D0009FED911ADFED910A9FED910AFFF770FFC6
:1030E0009FED901ADFED900A9FED900AFFF768FFC1
:1030F0009FED8F1ADFED8F0A9FED8F0AFFF760FFBC
:103100009FED8E1ADFED8E0A9FED8E0AFFF758FFB6
:103110009FED8D1ADFED8D0A9FED8D0AFFF750FFB1
:103120009FED8C1ADFED8C0A9FED8C0AFFF748FFAC
:103130009FED8B1ADFED8B0A9FED8B0AFFF740FFA7
:103140009FED8A1ADFED8A0A9FED8A0AFFF738FFA2
:103150009FED891ADFED890A9FED890AFFF730FF9D
:103160009FED881ADFED880A9FED880AFFF728FF98
:103170009FED871ADFED870A9FED870AFFF720FF93
:103180009FED861ADFED860A9FED860AFFF718FF8E
:103190009FED851ADFED850A9FED850AFFF710FF89
:1031A0009FED841ADFED840A9FED840AFFF708FF84
:1031B0009FED831ADFED830A9FED830AFFF700FF7F
:1031C0009FED821ADFED820A9FED820AFFF7F8FE7B
:1031D0009FED811ADFED810A9FED810AFFF7F0FE76
:1031E0009FED801ADFED800A9FED800AFFF7E8FE71
:1031F0009FED7F1ADFED7F0A9FED7F0AFFF7E0FE6C
:103200009FED7E1ADFED7E0A9FED7E0AFFF7D8FE66
:103210009FED7D1ADFED7D0A9FED7D0AFFF7D0FE61
:103220009FED7C1ADFED7C0A9FED7C0AFFF7C8FE5C
:103230009FED7B1ADFED7B0A9FED7B0AFFF7C0FE57
:103240009FED7A1ADFED7A0A9FED7A0AFFF7B8FE52
:103250009FED791ADFED790A9FED790AFFF7B0FE4D
:103260009FED781ADFED780A9FED780AFFF7A8FE48
:103270007B6818460837BD4680BD00BF58391041ED
:103280006688E2427E79B941B29D2141FB88E242E3
:103290004178B9417D3F31414189E242B577B94139
:1032A0007B144841DE89E2426576B9417F6A8B41F1
:1032B000DB8AE2428F74B941D7A397415E8BE24229
:1032C000BD74B941A8C68E41718BE2427876B9418E
:1032D000D5788141428BE242CA77B94146B68A41EC
:1032E0006E8BE2420C79B9418FC28A41AB8BE242CC
:1032F000AF79B94121B09241D38BE2422C7AB941E6
:1033000091EDB641168CE242617AB941355EC54114
:10331000578CE242E179B941F628C141658CE2421D
:10332000017AB9413BDFCD41468CE242FB79B9419C
:1033300004569F41288CE2426578B9419A999F4191
:10334000048CE2428E76B9412FDDAE41D68BE2424B
:103350002574B9415A64E541F08BE2426073B9418A
:103360000000A741FF8BE2422072B941C14A1142DD
:103370000A8CE2424371B941DB791142FD8BE24292
:103380003670B94177BEED41158CE2427C6FB94190
:1033900089C114424C8CE242806FB94148E1094234
:1033A000818CE242D46FB941E9260542C38CE242E6
:1033B0004470B9414EE20142FA8CE2428770B94151
:1033C000DBF9DA41198DE242D16FB9414A0CBF41B4
:1033D000CE8CE242846EB941A245BF41BF8CE2422D
:1033E000A26DB94139B4CA41CD8CE2420C6CB941ED
:1033F00008AC0142E38CE242006CB9416ABC4C4229
:10340000FF8CE242F36CB941E73B88423D8DE242DA
:10341000016DB9415CCFA742718DE242466DB94161
:10342000EE3CB342BD8DE242EF6DB941504DBF421B
:10343000178EE242166DB941F4FDC3427F8EE2421F
:10344000286DB941CD6C0343028FE242796DB941D9
:1034500090B589B000AF786039607B685A687B6846
:103460009B689A4226D07A687B685B68FA61BB6188
:103470003B687B61786900F035F90246FB693B6186
:10348000BB69FB60BA60FB6819460C20FFF78CFD36
:103490000446B86800F026F90246234607CA83E8C6
:1034A000070000BF00BF7B685B6803F10C027B680C
:1034B0005A6008E0786800F00AF803463A6819464E
:1034C000786800F02BF800BF2437BD4690BD80B56A
:1034D00084B000AF78607B681A1D07F10C031146B9
:1034E000184600F00AF9FB6818461037BD4680BD43
:1034F00080B582B000AF184600F005F803461846C4
:103500000837BD4680BD80B483B000AF3871012359
:1035100018460C37BD465DF8047B7047B0B594B0D3
:1035200000AFF860B9607A606C4A0121F86800F079
:10353000F4F8B864FB681B687B64FB685B683B64F9
:10354000F86800F031F903463B6107F1100207F11A
:1035500008031146184600F037F90346FB63FB6881
:10356000B96C184600F04AF9B863BB6BFB64FD68A0
:10357000FA6B13465B0013449B001A46BB6B9C1806
:10358000786800F0AFF803467D633C63FB62F86A3D
:1035900000F0A8F802467B6BBB623B6B7B623A6231
:1035A0007B6A19460C20FFF7FFFC0446386A00F0DE
:1035B00099F80246234607CA83E8070000BF00BF08
:1035C0000023FB64FFF794FF0346002B27D007F18D
:1035D0000803184600F03FF903461C68FB681846CC
:1035E000FFF7ACFC0346BA6B2146786C00F01FF97C
:1035F000F864FB6C0C33FB6407F10803184600F019
:103600002AF903461C68FB681846FFF797FC034637
:10361000FA6C396C204600F00AF9F86426E007F1EC
:103620000803184600F017F903461C68FB681846A3
:10363000FFF784FC0346BA6B2146786C00F016F95C
:10364000F864FB6C0C33FB6407F10803184600F0C8
:1036500002F903461C68FB681846FFF76FFC034637
:10366000FA6C396C204600F001F9F864FFF740FF6E
:10367000034683F00103DBB2002B0ED0FB68184633
:10368000FFF75CFC02467B6CFB613B6CBB617A61C3
:10369000B969F869FFF75DFC00BFF868FB689A68D4
:1036A0007B6CD31A9B100E4A02FB03F31A46796C0B
:1036B000FFF72BFCFB68BA6B1A60FB68FA6C5A6068
:1036C000BA6C13465B0013449B001A46BB6B1A444A
:1036D000FB689A6000BF5037BD46B0BD0C7801084A
:1036E000ABAAAAAA80B483B000AF78607B68184602
:1036F0000C37BD465DF8047B704780B483B000AFE3
:10370000786039603B681A687B681A607B68184685
:103710000C37BD465DF8047B704790B587B000AFAD
:10372000F860B9607A60F86800F0CDF80446F8688F
:10373000FFF7B6FB0346E21ABB689A4234BF012387
:103740000023DBB2002B02D078680FF096F9F868FE
:10375000FFF7A6FB0446F868FFF7A2FB03463B61B0
:1037600007F1080207F110031146184600F0BCF8F3
:1037700003461B6823447B61F868FFF791FB024610
:103780007B69934206D3F86800F09DF802467B6996
:10379000934204D9F86800F096F8034600E07B698C
:1037A00018461C37BD4690BD80B584B000AF786028
:1037B0007A6807F10C0311461846FFF79EFFFB6875
:1037C00018461037BD4680BD90B583B000AF786015
:1037D0003960786800F03FF803461C68386800F0EC
:1037E0003AF803461B68E31A9B10034A02FB03F3F3
:1037F00018460C37BD4690BDABAAAAAA80B584B0C6
:1038000000AF786039603B68002B0BD07B68FB60B1
:103810003B68BB600022B968F86800F0D7F803463F
:1038200000BF00E0002318461037BD4680BD90B5AC
:1038300087B002AFF860B9607A603B608DF80040F5
:103840003B687A68B968F86800F062F80346184681
:103850001437BD4690BD80B483B000AF78607B68FC
:1038600018460C37BD465DF8047B704790B585B0AF
:1038700000AFF860B9607A603B60F86800F05AF811
:103880000446B86800F056F801463B687A6820465E
:1038900000F05FF8034618461437BD4690BD80B46B
:1038A00083B000AF786039603B681A687B681B683A
:1038B0009A4201D23B6800E07B6818460C37BD464F
:1038C0005DF8047B704780B582B000AF78607B689C
:1038D000184600F06FF80346184600F04BF8034610
:1038E00018460837BD4680BD80B483B000AF78600D
:1038F00039607B681A683B681B689A4201D23B6852
:1039000000E07B6818460C37BD465DF8047B7047C5
:1039100080B584B000AFF860B9607A603B603B6806
:103920007A68B968F86800F081F8034618461037DD
:10393000BD4680BD80B584B000AF786007F10C0350
:103940007968184600F08FF8FB6818461037BD46B6
:1039500080BD80B584B000AFF860B9607A603B602C
:103960007A68B968F86800F090F80346184610378E
:10397000BD4680BD80B588B000AF78600C4B3B6120
:103980007B68FB61FB69BB61BB697B61084B00BF66
:1039900000BFFB6007F10C0207F110031146184647
:1039A000FFF77DFF03461B6818462037BD4680BDE4
:1039B000AAAAAA0A80B483B000AF78607B681846D0
:1039C0000C37BD465DF8047B7047000080B586B0BB
:1039D00000AFF860B9607A60FB687B61114ABB6830
:1039E00093428CBF01230023DBB2002B14BF0123C1
:1039F0000023DBB2002B07D0BB680B4A934201D9EE
:103A00000FF038F80FF033F8BA6813465B00134430
:103A10009B0018460FF01AF8034618461837BD46A3
:103A200080BD00BFAAAAAA0A55555515B0B584B0E5
:103A300000AFF860B9607A603B60F86800F039F870
:103A40000446B86800F035F80546786800F031F8AB
:103A500002463B682946204600F036F803461846E1
:103A60001037BD46B0BD80B582B000AF7860396018
:103A70003B46184600F052F803461A687B681A6005
:103A80007B6818460837BD4680BD80B586B000AF5C
:103A9000F860B9607A600123FB750123BB757A6811
:103AA000B968F86800F045F8034618461837BD466F
:103AB00080BD80B483B000AF78607B6818460C3757
:103AC000BD465DF8047B704780B586B000AFF860F6
:103AD000B9607A603B60BA68FB68D31A9B100E4AE3
:103AE00002FB03F37B617B69002B09DD7A691346D6
:103AF0005B0013449B001A46F968786810F064FF75
:103B00007A6913465B0013449B001A467B68134492
:103B100018461837BD4680BDABAAAAAA80B483B0A8
:103B200000AF78607B6818460C37BD465DF8047BB3
:103B3000704780B584B000AFF860B9607A607A6889
:103B4000B968F86800F005F8034618461037BD4616
:103B500080BD90B585B000AFF860B9607A60F86854
:103B600000F00FF80446B86800F00BF803467A68D6
:103B70001946204600F016F8034618461437BD468D
:103B800090BD80B582B000AF78603B1D184600F054
:103B90002CF80346184600F034F803461846083758
:103BA000BD4680BDB0B584B000AFF860B9607A6042
:103BB000F868FFF77EFF0446B868FFF77AFF05460E
:103BC0007B681846FFF775FF03461A4629462046CC
:103BD00000F022F802463B1D1146184600F02CF872
:103BE000034618461037BD46B0BD80B483B000AF61
:103BF00078607B681B6818460C37BD465DF8047B0F
:103C0000704780B483B000AF78607B6818460C378B
:103C1000BD465DF8047B704780B584B000AFF860A6
:103C2000B9607A607A68B968F86800F011F80346FC
:103C300018461037BD4680BD80B483B000AF7860B1
:103C400039603B6818460C37BD465DF8047B704709
:103C500080B584B000AFF860B9607A607A68B968FE
:103C6000F86800F005F8034618461037BD4680BDD9
:103C700080B586B000AFF860B9607A60BA68FB685A
:103C8000D31A9B10144A02FB03F37B617B69012B5F
:103C9000CCBF01230023DBB2002B0AD07A69134684
:103CA0005B0013449B001A46F968786810F08CFE9C
:103CB00006E07B69012B03D1F968786800F00EF803
:103CC0007A6913465B0013449B001A467B681344D1
:103CD00018461837BD4680BDABAAAAAA80B582B0E7
:103CE00000AF78603960386800F009F802467B68F8
:103CF00007CA83E8070000BF0837BD4680BD80B40F
:103D000083B000AF78607B6818460C37BD465DF81D
:103D1000047B704780B500AF0348FFF767F803489E
:103D2000FFF76AF900BF80BDCC450020D8450020D0
:103D300080B500AF0248FFF795F800BF80BD00BF17
:103D4000CC45002080B500AFFFF7E4FF80BD80B513
:103D500000AFFFF7EDFF80BD80B584B000AF7860A5
:103D60007B68FB60F86800F098F87B6818461037AD
:103D7000BD4680BD80B582B000AF78607B681846D4
:103D800000F02FF87B6818460837BD4680BD80B527
:103D900082B000AF78607B681846FFF7EBFF7B6866
:103DA00018460837BD4680BD80B582B000AF786048
:103DB0007B681846FFF7EBFF7B680022DA607B68C0
:103DC00018460837BD4680BD80B582B000AF786028
:103DD0007B68184600F02FF87B6818460837BD4608
:103DE00080BD80B584B000AF78607B68FB60FB6805
:103DF000BB607B68184600F03CF87B6818461037BB
:103E0000BD4680BD80B582B000AF78607B68196820
:103E10007B689A687B681B68D31ADB101A4678683F
:103E200000F046F87B681846FFF796FF7B68184657
:103E30000837BD4680BDB0B586B000AF78607B68FE
:103E40001D687B685C687B68184600F04AF803468A
:103E50007D613C61FB603969786900F04DF800BF15
:103E60007B681846FFF7CEFF7B6818461837BD46BB
:103E7000B0BD80B483B000AF78607B6800221A6068
:103E80007B6800225A607B6800229A607B68184633
:103E90000C37BD465DF8047B704780B483B000AF3B
:103EA00078607B6818460C37BD465DF8047B704728
:103EB00080B588B000AFF860B9607A60BB68002B4D
:103EC0000BD0FB68FB61BB68BB617B687B617A6977
:103ED000B969F86900F01DF800BF00BF2037BD4682
:103EE00080BD80B483B000AF78607B6818460C3723
:103EF000BD465DF8047B704780B582B000AF786046
:103F000039603968786800F014F800BF0837BD469A
:103F100080BD80B584B000AFF860B9607A607B681E
:103F2000DB001946B8680EF08FFD00BF1037BD46A4
:103F300080BD80B483B000AF7860396000BF0C37BB
:103F4000BD465DF8047B704780B500AF0348FFF7BE
:103F50002BFF0348FFF728FF00BF80BDDC45002092
:103F6000EC45002080B500AF0348FFF72DFF034864
:103F7000FFF72AFF00BF80BDEC450020DC45002094
:103F800080B500AFFFF7E0FF80BD80B500AFFFF761
:103F9000E9FF80BD80B582B000AF114B1B7883F084
:103FA0000103DBB2002B16D10E4B1B78002B12D174
:103FB00080210D4802F0D8F80346002B02D14FF0C3
:103FC000FF3300E001237B60084B1A687B681344D1
:103FD000064A136000E000BF0837BD4680BD00BF41
:103FE000040000200046002000040240FC450020A0
:103FF00080B584B000AF01F023FAF86008212648AC
:1040000002F0B2F803467B81244B1B68FA68D31A8E
:10401000132B03D8214AFB6813603AE01F4AFB6860
:1040200013607B89002B0ED11D4B1B78DBB283F014
:104030000103DBB2002B06D0194B01221A70194A7A
:10404000FB68136025E07B89012B22D1144B1B7880
:10405000DBB2002B1DD0134B1B68FA68D31A7B60B0
:104060007B6841F28732934208D90F4B1B68002BC3
:104070000FD00D4B1B68012098470AE07B68132B7B
:1040800007D9094B1B68002B03D0074B1B68002086
:1040900098471037BD4680BD000402400846002006
:1040A00001460020044600200C46002080B588B060
:1040B00000AF3B1D002219461C4803F038F80346A8
:1040C000002B2DD13B4600221946184803F011F968
:1040D000FB7814331BB25B021AB27B781BB25B0114
:1040E0001BB213431AB2BB781BB213431BB2FB8340
:1040F0003B791BB2DB021AB27B791BB25B011BB2AC
:1041000013431AB2BB795B08DBB21BB213431BB279
:10411000BB83FB8B1A04BB8B1343BB61BB6900E001
:10412000002318462037BD4680BD00BF0C0200208A
:1041300080B483B000AF78607B681B781A467B68D8
:1041400001331B781B021A437B6802331B781B0464
:104150001A437B6803331B781B06134318460C373E
:10416000BD465DF8047B704780B483B000AF7860D3
:104170007B681B781A467B6801331B781B021A4345
:104180007B6802331B781B041A437B6803331B785C
:104190001B06134318460C37BD465DF8047B704779
:1041A00080B483B000AF786039603B68DAB27B6876
:1041B0001A703B681A127B680133D2B21A703B68DE
:1041C0001A147B680233D2B21A703B681A0E7B68ED
:1041D0000333D2B21A7000BF0C37BD465DF8047BC2
:1041E000704780B489B000AF786039600023FB610C
:1041F0000023FB7600237B6100233B613B697A68E7
:1042000013441B78FB733B69002B05D1FB7B9B118F
:10421000DBB203F00103FB763B69002B04D1FB7B8F
:1042200003F03F03DBB203E0FB7B03F07F03DBB271
:10423000BB73BA7B7B6902FA03F3FA691343FB6130
:104240003B69002B01D1062300E007237A69134460
:104250007B613B6901333B6197F90F30002B03DA37
:104260003B69052B02DCC9E700BF00E000BF3B68EB
:104270003A691A60FB7E002B02D0FB695B4200E0CA
:10428000FB6918462437BD465DF8047B704780B54E
:1042900086B000AFF860B9607A6007F110037A6801
:1042A000B968F8680AF09EF80346FB75FB7D002BA1
:1042B00003D13B697A689A4202D04FF0FF3300E0A5
:1042C000002318461837BD4680BD80B588B000AFC2
:1042D000F860B9607A603B603B68BB610023FB61BA
:1042E0002BE0BA69FB691A447B681B68581C796823
:1042F0000860B9680B4412781A707B681B68B3F5C4
:10430000005F17D37B681A6807F11003B968F86873
:104310000AF0D6F90346FB75FB7D002B04D17B68C0
:104320001A683B699A4202D04FF0FF330AE07B687B
:1043300000221A60FB690133FB61FA69BB6A9A4289
:10434000CFD3002318462037BD4680BD80B586B048
:1043500000AFF860B9607A607B681B68002B17D0EB
:104360007B681A6807F11003B968F8680AF0A8F9C1
:104370000346FB75FB7D002B04D17B681A683B6903
:104380009A4202D04FF0FF3303E07B6800221A60AC
:10439000002318461837BD4680BD0000B0B5ADF506
:1043A000FF6D08AF07F5FB63A3F2D473186007F540
:1043B000FB63A3F5FB6319600023C7F8AC37002348
:1043C000C7F8A8374FF0FF33C7F8D43707F5FB63BA
:1043D000A3F2D47307F24C500122196809F02CFEA5
:1043E000034687F8A73797F8A737002B18D097F818
:1043F000A72707F15C03C549184610F0EBF907F150
:104400005C031846FBF754FF03469AB207F15C01C0
:104410006423BF4805F040F94FF0FF3300F03DBC86
:1044200007F5FB63A3F52373DB68C7F8A03707F52F
:104430002E73D7F8A027B749184610F0CBF907F527
:104440002E731846FBF734FF03469AB207F52E7118
:104450006423AF4805F020F94FF480500EF040FB84
:104460000346C7F8AC374FF400500EF039FB034653
:10447000C7F8A837D7F8AC37002B03D0D7F8A83740
:10448000002B1AD107F5FB63A3F22C63A24A1C464A
:1044900015460FCD0FC495E8070084E8070007F51F
:1044A000D6731846FBF704FF03469AB207F5D67198
:1044B0006423974805F0F0F8D8E307F5FB63A3F50C
:1044C000FB6307F547700A22196809F0B5FD03463A
:1044D00087F8A73797F8A737002B15D097F8A727A5
:1044E00007F15C038D49184610F074F907F15C037D
:1044F0001846FBF7DDFE03469AB207F15C01642320
:10450000834805F0C9F8B1E307F52D7107F24C5364
:1045100004221846FFF7BBFE0346002B1FD007F509
:10452000FB63A3F244637E4A1C4615460FCD0FC4BD
:1045300095E8030084E8030007F5CA731846FBF703
:10454000B7FE03469AB207F5CA716423704805F0B6
:10455000A3F807F5477318460AF0DFFA86E307F574
:104560002D731846FFF7E4FDC7F89C0707F519738C
:10457000D7F89C276B49184610F02CF907F51973EA
:104580001846FBF795FE03469AB207F519716423A6
:104590005F4805F081F807F5FB63A3F5AF630022E0
:1045A0001A6007F52D7307F5187207F54770042197
:1045B0000091D7F8A817FFF788FE0346002B1FD0FD
:1045C00007F5FB63A3F5CC63574A1C4615460FCD90
:1045D0000FC495E8070003C4227007F5BC731846A2
:1045E000FBF766FE03469AB207F5BC7164234848A0
:1045F00005F052F807F5477318460AF08EFA35E3CE
:104600000023C7F8D0370023C7F8CC37B8E207F546
:10461000BA7107F24C5304221846FFF738FE0346DE
:10462000002B1BD0D7F8CC375A1C07F15C033F494D
:10463000184610F0CFF807F15C031846FBF738FE78
:1046400003469AB207F15C016423314805F024F86F
:1046500007F5477318460AF060FA07E307F5BA73DF
:104660001846FFF765FDC7F89407D7F8D027D7F8A5
:1046700094371344C7F8D037D7F8CC375A1C07F112
:104680000C00D7F894372A4910F0A4F807F10C036E
:104690001846FBF70DFE03469AB207F10C0164239E
:1046A0001B4804F0F9FF07F5BA7307F5187207F510
:1046B000477004210091D7F8A817FFF706FE0346BC
:1046C000002B39D007F5FB63A3F27C73194A1C4613
:1046D00015460FCD0FC40FCD0FC495E80300206021
:1046E0000434218007F15C031846FBF7E1FD034623
:1046F0009AB207F15C016423054804F0CDFF07F589
:10470000477318460AF009FAB0E200BF287801089A
:10471000BC04002050780108407A01088C78010818
:104720005C7A0108B0780108747A0108C878010839
:10473000F4780108907A0108D7F89437002B00F03C
:10474000198207F5B47107F24C530C221846FFF793
:104750009EFD0346002B1FD007F5FB63A3F5D26334
:10476000B54A1C4615460FCD0FC495E80F0007C487
:10477000237007F5A4731846FBF79AFD03469AB217
:1047800007F5A4716423AD4804F086FF07F547736D
:1047900018460AF0C2F969E207F5B4731846FFF744
:1047A000E3FCC7F8C80707F5B47304331846FFF7EE
:1047B000DBFCC7F8C40707F5B47308331846FFF7E6
:1047C000D3FCC7F8C007D7F8CC37002B3DD1D7F8BA
:1047D000C83707EE903AF8EEE77A9FED997AC7EE80
:1047E000876A16EE900AFBF7CFFE04460D46D7F80F
:1047F000C43707EE903AF8EEE77A9FED917AC7EE6C
:10480000876A16EE900AFBF7BFFE02460B4607F1D9
:104810005C00D7F8C0170691CDE90423D7F8C43758
:104820000293CDE90045D7F8C82786490FF0D2FF9B
:1048300007F15C031846FBF73BFD03469AB207F10C
:104840005C0164237D4804F027FF07F5B47307F586
:10485000187207F547700C210091D7F8A817FFF7D9
:1048600034FD0346002B1FD007F5FB63A3F5D66389
:10487000754A1C4615460FCD0FC495E80F0007C4B6
:10488000238007F594731846FBF712FD03469AB28E
:1048900007F594716423694804F0FEFE07F5477339
:1048A00018460AF03AF9E1E10123C7F8BC3759E1AB
:1048B0000023C7F8B83707F59072D7F8B837D11882
:1048C00007F24C5301221846FFF7E1FC0346002B88
:1048D0001BD0D7F8BC375A1C07F15C035B4918465C
:1048E0000FF078FF07F15C031846FBF7E1FC034685
:1048F0009AB207F15C016423504804F0CDFE07F53D
:10490000477318460AF009F9B0E1D7F8B837013310
:10491000C7F8B837D7F8B837013B07F5FB62A2F5FF
:10492000D762D35C5BB2002B03DAD7F8B837052B1C
:10493000C1DD07F58E7207F5907311461846FFF733
:1049400050FCC7F890070023C7F8B43707F59072FA
:10495000D7F8B437D11807F24C5301221846FFF7A5
:1049600096FC0346002B1BD0D7F8BC375A1C07F126
:104970005C03374918460FF02DFF07F15C0318461A
:10498000FBF796FC03469AB207F15C0164232B48BF
:1049900004F082FE07F5477318460AF0BEF865E199
:1049A000D7F8B4370133C7F8B437D7F8B437013B79
:1049B00007F5FB62A2F5D762D35C5BB2002B03DA8A
:1049C000D7F8B437052BC1DD07F58E7207F5907364
:1049D00011461846FFF705FCC7F88C070023C7F8F7
:1049E000B03707F59072D7F8B037D11807F24C53AB
:1049F00001221846FFF74BFC0346002B2CD0D7F8BA
:104A0000BC375A1C07F15C03124918460FF0E2FE4E
:104A100007F15C031846FBF74BFC03469AB207F11B
:104A20005C016423054804F037FE07F54773184618
:104A30000AF073F81AE100BFB87A0108BC0400203C
:104A40000024744910790108D87A010848790108CE
:104A50007079010898790108D7F8B0370133C7F8A1
:104A6000B037D7F8B037013B07F5FB62A2F5D76244
:104A7000D35C5BB2002B03DAD7F8B037052BB0DD7F
:104A800007F58E7207F5907311461846FFF7A9FBDC
:104A9000C7F88807D7F8C827D7F890371344C7F85E
:104AA0008437D7F8C427D7F88C371344C7F8803732
:104AB000D7F8C027D7F888371344C7F87C3707F5ED
:104AC0008873D7F884171846FFF76AFB07F58873D1
:104AD0000433D7F880171846FFF762FB07F5887391
:104AE0000833D7F87C171846FFF75AFB07F5887389
:104AF00007F5187207F547700C210091D7F8A81731
:104B0000FFF7E3FB0346002B1BD0D7F8BC375A1C3A
:104B100007F15C03634918460FF05CFE07F15C0384
:104B20001846FBF7C5FB03469AB207F15C01642304
:104B30005D4804F0B1FD07F54773184609F0EDFF35
:104B400094E0D7F88437C7F8C837D7F88037C7F864
:104B5000C437D7F87C37C7F8C037D7F8BC3701332C
:104B6000C7F8BC37D7F8BC27D7F894379A42FFF478
:104B70009FAE00E000BFD7F8CC370133C7F8CC3781
:104B8000D7F8CC27D7F89C379A42FFF440AD07F509
:104B9000187207F54773D7F8A8171846FFF7D6FB22
:104BA0000346002B1FD007F5FB63A3F2E4633F4AE3
:104BB0001C4615460FCD0FC495E8070003C42270AC
:104BC00007F1F4031846FBF773FB03469AB207F1AB
:104BD000F4016423344804F05FFD07F54773184679
:104BE00009F09BFF42E007F54773184609F00CFFF8
:104BF00007F5FB63A3F2BC439B69C7F8983707F539
:104C00004773184609F089FFD7F8A037642202FBE2
:104C100003F307EE903AB8EE677AD7F8983707EEC5
:104C2000903AF8EE677AC7EE276A16EE900AFBF71D
:104C3000ABFC02460B4607F5E470CDE90023D7F83C
:104C4000D037D7F898271A490FF0C4FD07F5E47359
:104C50001846FBF72DFB03469AB207F5E47164236F
:104C6000114804F019FD0023C7F8D437D7F8AC3742
:104C7000002B03D0D7F8AC070DF03AFFD7F8A837D0
:104C8000002B03D0D7F8A8070DF032FF07F24C53E2
:104C9000184609F042FFD7F8D437184607F5FB67E6
:104CA000BD46B0BDC0790108BC040020F87A0108F7
:104CB000DC790108B0B5ADF5007D02AF07F5FC73F6
:104CC000A3F5F673186007F5FC73A3F5F873196084
:104CD00007F5FC73A3F5FA731A600023C7F8F431E3
:104CE00010E0664AD7F8F431134400221A70644A7F
:104CF000D7F8F431002142F82310D7F8F43101330A
:104D0000C7F8F431D7F8F431012BEADD5D4B00220E
:104D10001A7007F5FC73A3F5F67307F5AE701A6801
:104D200059490FF057FD07F5AE731846FBF7C0FA67
:104D300003469AB207F5AE716423544804F0ACFC04
:104D400007F5FC73A3F5F6730A221968504809F0B9
:104D500073F9034687F8F33197F8F32107F1F80365
:104D60004C4918460FF036FD07F1F8031846FBF7DB
:104D70009FFA03469AB207F1F8016423434804F00E
:104D80008BFC97F8F331002B51D107F5FC73A3F599
:104D9000F8731B6801221A7007F5FC73A3F5FA7308
:104DA0001B6801221A7007F5FC73A3F5F8731B68E2
:104DB0001B78DBB21C4607F5FC73A3F5FA731B687E
:104DC0001B78DBB2194607F5FC73A3F5F67207F101
:104DD00060000091234612682F490FF0FBFC07F199
:104DE00060031846FBF764FA03469AB207F16001C4
:104DF0006423264804F050FC07F5FC73A3F5F47314
:104E0000264A184611464F231A460FF0DCFE07F1DA
:104E100010031846FBF74CFA03469AB207F110014B
:104E200064231A4804F038FCFDF712FE1FE007F572
:104E3000FC73A3F5CC731A4A1C4615460FCD0FC45C
:104E40000FCD0FC40FCD0FC42B681A462280023439
:104E50001B0C237007F160031846FBF729FA034681
:104E60009AB207F160016423084804F015FC97F832
:104E7000F331184607F5FC77BD46B0BDB8450020B4
:104E8000B0450020BB450020147B0108BC04002075
:104E900054480020447B0108587B0108B47B01087A
:104EA000047C010880B5A2B000AF0346B9607A6007
:104EB000FB73002387F88730FDF7D8FD0023C7F880
:104EC00080305FE0344AD7F8803013441B78DBB27F
:104ED000002B52D0FB7BDBB2002B4ED02F4AD7F8F1
:104EE000803052F82330FB67FB6F002B45D0D7F89A
:104EF00080301B032A4A991807F17803FA6F294872
:104F000000F0D4F9034687F8873097F88730002BF4
:104F10001ED1BB681A68BB6F1A44BB681A60BB68B5
:104F20001A687B681B68D31AB3F5C82F03D9BB680E
:104F30001A687B681A60184AD7F880301344002238
:104F40001A70164AD7F88030002142F8231014E076
:104F500097F8872007F11403134918460FF03AFC1D
:104F600007F114031846FBF7A3F903469AB207F1B9
:104F7000140164230D4804F08FFBD7F8803001330F
:104F8000C7F88030D7F88030012B9BDD97F8873049
:104F900018468837BD4680BDB8450020B045002082
:104FA000B025002054480020387C0108BC040020B3
:104FB000B0B5ADF5067D00AF07F50674A4F5037432
:104FC000206007F50670A0F50470016007F5067112
:104FD000A1F505710A6007F50672A2F50672136065
:104FE0000023C7F814324DE08F4AD7F81432134427
:104FF0001B78DBB2002B40D08C4AD7F8143252F821
:105000002330C7F80C32D7F80C32002B35D0D7F844
:1050100014321B03864A991807F17403D7F80C223F
:10502000844809F04DFB034687F80B3297F80B32A2
:10503000002B0CD17C4AD7F81432134400221A708A
:105040007A4AD7F81432002142F8231015E097F875
:105050000B2207F11003784918460FF0BBFB07F14C
:1050600010031846FBF724F903469AB207F1100122
:105070006423724804F010FB08E0D7F814320133BF
:10508000C7F81432D7F81432012BADDD07F50673DB
:10509000A3F5047307F5D2701A6869490FF09AFBFB
:1050A00007F5D2731846FBF703F903469AB207F5E2
:1050B000D2716423614804F0EFFA5E4809F0A4FC61
:1050C0005C4809F02AFD07F50673A3F505731B6814
:1050D00000221A7007F50673A3F5047307F506722C
:1050E000A2F5037207F596701B68126855490FF018
:1050F00071FB07F596731846FBF7DAF803469AB288
:1051000007F5967164234D4804F0C6FA07F5067357
:10511000A3F5047207F50673A3F503731168186805
:1051200000F0E2F8034687F80B3297F80B32002BB9
:1051300014D097F80B2207F11003434918460FF0DB
:1051400049FB07F110031846FBF7B2F803469AB281
:1051500007F110016423394804F09EFA0023C7F8D0
:10516000103210E0304AD7F81032134400221A707F
:105170002E4AD7F81032002142F82310D7F8103207
:105180000133C7F81032D7F81032012BEADD2F4B6C
:1051900000221A704FF47A700BF03AFE07F506738E
:1051A000A3F505731B6800221A7007F50673A3F5B3
:1051B000037307F194001A6825490FF00BFB07F100
:1051C00094031846FBF774F803469AB207F194016A
:1051D00064231A4804F060FA07F50673A3F5067312
:1051E0001B6801221A7007F50673A3F5D073194ADC
:1051F0001C4615460FCD0FC495E8070084E807004C
:1052000007F178031846FBF753F803469AB207F103
:1052100078016423094804F03FFA97F80B321846E6
:1052200007F50677BD46B0BDB8450020B045002063
:10523000B0250020544800205C7C0108BC040020FC
:10524000807C0108C87C0108187D0108BB4500204E
:10525000387D01087C7D010880B582B000AF104B1D
:105260007B6001220F49104808F082FE0346FB7064
:10527000FB78002B01D0FB780DE0786809F07CFC0E
:105280000346FB70FB78002B04D0FB78082B01D081
:10529000FB7800E0002318460837BD4680BD00BFFC
:1052A000987D0108A07D01081C46002080B584B0CF
:1052B00000AFF860B9607A603B60FB68002B05D0F6
:1052C000BB68002B02D07B68002B01D1132306E0C2
:1052D0003B687A68B968F86809F0F2F9034618463D
:1052E0001037BD4680BD0000B0B5B8B000AF7860E3
:1052F0003960002387F8DF30314B07F1BC041D46CD
:105300000FCD0FC495E8070084E8070007F1BC0340
:1053100007F158007A682B490FF05CFA07F158033F
:105320001846FAF7C5FF03469AB207F158016423FD
:10533000254804F0B1F907F1BC0319467868FFF776
:105340002DF8C7F8D800D7F8D830002B1AD11F4B4A
:1053500007F108041D460FCD0FC40FCD0FC42B68F5
:10536000238007F108031846FAF7A2FF03469AB212
:1053700007F108016423144804F08EF9002387F82C
:10538000DF3017E007F10803D7F8D8201049184696
:105390000FF020FA07F108031846FAF789FF0346D1
:1053A0009AB207F108016423074804F075F9022353
:1053B00087F8DF3097F8DF301846E037BD46B0BDDC
:1053C000007E0108A47D0108BC0400201C7E0108A9
:1053D000D07D010880B500AF0E4B1B680D4A43F429
:1053E000007313600B4B1B680A4A43F4806313601D
:1053F000084B1B68074A43F480731360032000F0D6
:10540000FCF80020FCF7CEFFFCF7A0FF00231846B5
:1054100080BD00BF003C024080B400AF064B1B784B
:105420001A46064B1B681344044A136000BFBD466E
:105430005DF8047B704700BF0C0000201046002080
:1054400080B400AF034B1B681846BD465DF8047B73
:10545000704700BF1046002080B584B000AF786070
:10546000FFF7EEFFB8607B68FB60FB68B3F1FF3FBE
:1054700005D00A4B1B781A46FB681344FB6000BF3B
:10548000FFF7DEFF0246BB68D31AFA689A42F7D8E4
:1054900000BF00BF1037BD4680BD00BF0C0000201C
:1054A00080B485B000AF78607B6803F00703FB60D1
:1054B0000C4BDB68BB60BA684FF6FF031340BB6060
:1054C000FB681A02BB68134343F0BF6343F4003325
:1054D000BB60044ABB68D36000BF1437BD465DF8AB
:1054E000047B704700ED00E080B400AF044BDB6844
:1054F0001B0A03F007031846BD465DF8047B70479E
:1055000000ED00E080B483B000AF0346FB7197F973
:105510000730002B0BDBFB7903F01F02074997F9DB
:1055200007305B09012000FA02F241F8232000BF96
:105530000C37BD465DF8047B704700BF00E100E01A
:1055400080B483B000AF03463960FB7197F9073030
:10555000002B0ADB3B68DAB20C4997F907301201DD
:10556000D2B20B4483F800230AE03B68DAB2084960
:10557000FB7903F00F03043B1201D2B20B441A76FD
:1055800000BF0C37BD465DF8047B704700E100E0CA
:1055900000ED00E080B489B000AFF860B9607A60D7
:1055A000FB6803F00703FB61FB69C3F10703042BEE
:1055B00028BF0423BB61FB690433062B02D9FB69B6
:1055C000033B00E000237B614FF0FF32BB6902FA2E
:1055D00003F3DA43BB681A407B699A404FF0FF310E
:1055E0007B6901FA03F3D9437B680B4013431846E8
:1055F0002437BD465DF8047B704780B582B000AFAC
:1056000078607868FFF74CFF00BF0837BD4680BD63
:1056100080B586B000AF0346B9607A60FB730023A3
:105620007B61FFF761FF78617A68B9687869FFF795
:10563000B1FF024697F90F3011461846FFF780FF79
:1056400000BF1837BD4680BD80B582B000AF0346AD
:10565000FB7197F907301846FFF754FF00BF083772
:10566000BD4680BD80B586B000AF786000237B6109
:10567000FFF7E6FE38617B68002B01D1012399E03A
:105680007B68022283F835207B68002283F834206F
:105690007B681B681A687B681B6822F001021A602D
:1056A0000FE0FFF7CDFE02463B69D31A052B08D960
:1056B0007B6820225A657B68032283F83520032308
:1056C00078E07B681B681B6803F00103002BE8D1BE
:1056D0007B681B681B687B617A69384B13407B6170
:1056E0007B685A687B689B681A437B68DB681A434F
:1056F0007B681B691A437B685B691A437B689B69FB
:105700001A437B68DB691A437B681B6A13437A6917
:1057100013437B617B685B6A042B07D17B68DA6A81
:105720007B681B6B13437A6913437B617B681B683F
:105730007A691A607B681B685B697B617B6923F00F
:1057400007037B617B685B6A7A6913437B617B68D3
:105750005B6A042B17D17B689B6A7A6913437B6170
:105760007B68DB6A002B0ED0786800F00DFB0346E7
:10577000002B08D07B6840225A657B68012283F8A1
:105780003520012316E07B681B687A695A617868C6
:1057900000F0C4FA0346FB607B68DB6D3F229A4051
:1057A000FB689A607B6800225A657B68012283F857
:1057B0003520002318461837BD4680BD3F8010F0C5
:1057C00080B586B000AFF860B9607A603B600023B6
:1057D000FB75FB689B6D3B61FB6893F83430012BD4
:1057E00001D1022340E0FB68012283F83420FB68EA
:1057F00093F83530DBB2012B2FD1FB68022283F8FE
:105800003520FB6800225A653B687A68B968F868F9
:1058100000F056FAFB68DB6D3F229A403B699A60C4
:10582000FB681B681A68FB681B6842F016021A6066
:10583000FB681B6C002B07D0FB681B681A68FB68B1
:105840001B6842F008021A60FB681B681A68FB6854
:105850001B6842F001021A6005E0FB68002283F831
:1058600034200223FB75FB7D18461837BD4680BDEA
:1058700080B584B000AF78607B689B6DFB60FFF7FC
:10588000DFFDB8607B6893F83530DBB2022B08D0BF
:105890007B6880225A657B68002283F834200123CC
:1058A00052E07B681B681A687B681B6822F016024E
:1058B0001A607B681B685A697B681B6822F080024B
:1058C0005A617B681B6C002B03D17B689B6C002B9F
:1058D00007D07B681B681A687B681B6822F0080287
:1058E0001A607B681B681A687B681B6822F00102DB
:1058F0001A6013E0FFF7A4FD0246BB68D31A052B1C
:105900000CD97B6820225A657B68032283F83520F6
:105910007B68002283F83420032315E07B681B6832
:105920001B6803F00103002BE4D17B68DB6D3F2291
:105930009A40FB689A607B68012283F835207B6877
:10594000002283F83420002318461037BD4680BD5E
:1059500080B483B000AF78607B6893F83530DBB2F9
:10596000022B04D07B6880225A6501230CE07B68FF
:10597000052283F835207B681B681A687B681B68E2
:1059800022F001021A60002318460C37BD465DF86C
:10599000047B704780B586B000AF78600023BB60A1
:1059A0008E4B1B688E4AA2FB03239B0A7B617B689C
:1059B0009B6D3B613B691B68FB607B68DB6D08226C
:1059C0009A40FB681340002B1AD07B681B681B6849
:1059D00003F00403002B13D07B681B681A687B68F4
:1059E0001B6822F004021A607B68DB6D08229A4073
:1059F0003B699A607B685B6D43F001027B685A6586
:105A00007B68DB6D01229A40FB681340002B12D0AB
:105A10007B681B685B6903F08003002B0BD07B68FD
:105A2000DB6D01229A403B699A607B685B6D43F0B5
:105A300002027B685A657B68DB6D04229A40FB6832
:105A40001340002B12D07B681B681B6803F0020315
:105A5000002B0BD07B68DB6D04229A403B699A6077
:105A60007B685B6D43F004027B685A657B68DB6D85
:105A700010229A40FB681340002B43D07B681B68C0
:105A80001B6803F00803002B3CD07B68DB6D102201
:105A90009A403B699A607B681B681B6803F480230B
:105AA000002B18D07B681B681B6803F40023002BB5
:105AB00008D17B681B6C002B24D07B681B6C78683A
:105AC00098471FE07B689B6C002B1BD07B689B6C0E
:105AD0007868984716E07B681B681B6803F480733E
